{
	"code.sol": {
		"SafeMath": {
			"abi": [
				{
					"inputs": [
						{
							"internalType": "uint256",
							"name": "a",
							"type": "uint256"
						},
						{
							"internalType": "uint256",
							"name": "b",
							"type": "uint256"
						}
					],
					"name": "safeAdd",
					"outputs": [
						{
							"internalType": "uint256",
							"name": "c",
							"type": "uint256"
						}
					],
					"stateMutability": "pure",
					"type": "function"
				},
				{
					"inputs": [
						{
							"internalType": "uint256",
							"name": "a",
							"type": "uint256"
						},
						{
							"internalType": "uint256",
							"name": "b",
							"type": "uint256"
						}
					],
					"name": "safeDiv",
					"outputs": [
						{
							"internalType": "uint256",
							"name": "c",
							"type": "uint256"
						}
					],
					"stateMutability": "pure",
					"type": "function"
				},
				{
					"inputs": [
						{
							"internalType": "uint256",
							"name": "a",
							"type": "uint256"
						},
						{
							"internalType": "uint256",
							"name": "b",
							"type": "uint256"
						}
					],
					"name": "safeMul",
					"outputs": [
						{
							"internalType": "uint256",
							"name": "c",
							"type": "uint256"
						}
					],
					"stateMutability": "pure",
					"type": "function"
				},
				{
					"inputs": [
						{
							"internalType": "uint256",
							"name": "a",
							"type": "uint256"
						},
						{
							"internalType": "uint256",
							"name": "b",
							"type": "uint256"
						}
					],
					"name": "safeSub",
					"outputs": [
						{
							"internalType": "uint256",
							"name": "c",
							"type": "uint256"
						}
					],
					"stateMutability": "pure",
					"type": "function"
				}
			],
			"devdoc": {
				"kind": "dev",
				"methods": {},
				"version": 1
			},
			"evm": {
				"assembly": "    /* \"code.sol\":1150:1696  contract SafeMath {... */\n  mstore(0x40, 0x80)\n  callvalue\n  dup1\n  iszero\n  tag_1\n  jumpi\n  0x00\n  dup1\n  revert\ntag_1:\n  pop\n  dataSize(sub_0)\n  dup1\n  dataOffset(sub_0)\n  0x00\n  codecopy\n  0x00\n  return\nstop\n\nsub_0: assembly {\n        /* \"code.sol\":1150:1696  contract SafeMath {... */\n      mstore(0x40, 0x80)\n      callvalue\n      dup1\n      iszero\n      tag_1\n      jumpi\n      0x00\n      dup1\n      revert\n    tag_1:\n      pop\n      jumpi(tag_2, lt(calldatasize, 0x04))\n      shr(0xe0, calldataload(0x00))\n      dup1\n      0xa293d1e8\n      eq\n      tag_3\n      jumpi\n      dup1\n      0xb5931f7c\n      eq\n      tag_4\n      jumpi\n      dup1\n      0xd05c78da\n      eq\n      tag_5\n      jumpi\n      dup1\n      0xe6cb9013\n      eq\n      tag_6\n      jumpi\n    tag_2:\n      0x00\n      dup1\n      revert\n        /* \"code.sol\":1300:1438  function safeSub(uint a, uint b) public pure returns (uint c) {... */\n    tag_3:\n      tag_7\n      0x04\n      dup1\n      calldatasize\n      sub\n      dup2\n      add\n      swap1\n      tag_8\n      swap2\n      swap1\n      tag_9\n      jump\t// in\n    tag_8:\n      tag_10\n      jump\t// in\n    tag_7:\n      mload(0x40)\n      tag_11\n      swap2\n      swap1\n      tag_12\n      jump\t// in\n    tag_11:\n      mload(0x40)\n      dup1\n      swap2\n      sub\n      swap1\n      return\n        /* \"code.sol\":1578:1693  function safeDiv(uint a, uint b) public pure returns (uint c) {... */\n    tag_4:\n      tag_13\n      0x04\n      dup1\n      calldatasize\n      sub\n      dup2\n      add\n      swap1\n      tag_14\n      swap2\n      swap1\n      tag_9\n      jump\t// in\n    tag_14:\n      tag_15\n      jump\t// in\n    tag_13:\n      mload(0x40)\n      tag_16\n      swap2\n      swap1\n      tag_12\n      jump\t// in\n    tag_16:\n      mload(0x40)\n      dup1\n      swap2\n      sub\n      swap1\n      return\n        /* \"code.sol\":1446:1570  function safeMul(uint a, uint b) public pure returns (uint c) {... */\n    tag_5:\n      tag_17\n      0x04\n      dup1\n      calldatasize\n      sub\n      dup2\n      add\n      swap1\n      tag_18\n      swap2\n      swap1\n      tag_9\n      jump\t// in\n    tag_18:\n      tag_19\n      jump\t// in\n    tag_17:\n      mload(0x40)\n      tag_20\n      swap2\n      swap1\n      tag_12\n      jump\t// in\n    tag_20:\n      mload(0x40)\n      dup1\n      swap2\n      sub\n      swap1\n      return\n        /* \"code.sol\":1175:1292  function safeAdd (uint a, uint b) public pure returns (uint c) {... */\n    tag_6:\n      tag_21\n      0x04\n      dup1\n      calldatasize\n      sub\n      dup2\n      add\n      swap1\n      tag_22\n      swap2\n      swap1\n      tag_9\n      jump\t// in\n    tag_22:\n      tag_23\n      jump\t// in\n    tag_21:\n      mload(0x40)\n      tag_24\n      swap2\n      swap1\n      tag_12\n      jump\t// in\n    tag_24:\n      mload(0x40)\n      dup1\n      swap2\n      sub\n      swap1\n      return\n        /* \"code.sol\":1300:1438  function safeSub(uint a, uint b) public pure returns (uint c) {... */\n    tag_10:\n        /* \"code.sol\":1354:1360  uint c */\n      0x00\n        /* \"code.sol\":1386:1387  a */\n      dup3\n        /* \"code.sol\":1381:1382  b */\n      dup3\n        /* \"code.sol\":1381:1387  b <= a */\n      gt\n      iszero\n        /* \"code.sol\":1373:1410  require(b <= a, \"Invalid operation!\") */\n      tag_26\n      jumpi\n      mload(0x40)\n      0x08c379a000000000000000000000000000000000000000000000000000000000\n      dup2\n      mstore\n      0x04\n      add\n      tag_27\n      swap1\n      tag_28\n      jump\t// in\n    tag_27:\n      mload(0x40)\n      dup1\n      swap2\n      sub\n      swap1\n      revert\n    tag_26:\n        /* \"code.sol\":1429:1430  b */\n      dup2\n        /* \"code.sol\":1425:1426  a */\n      dup4\n        /* \"code.sol\":1425:1430  a - b */\n      tag_29\n      swap2\n      swap1\n      tag_30\n      jump\t// in\n    tag_29:\n        /* \"code.sol\":1421:1430  c = a - b */\n      swap1\n      pop\n        /* \"code.sol\":1300:1438  function safeSub(uint a, uint b) public pure returns (uint c) {... */\n      swap3\n      swap2\n      pop\n      pop\n      jump\t// out\n        /* \"code.sol\":1578:1693  function safeDiv(uint a, uint b) public pure returns (uint c) {... */\n    tag_15:\n        /* \"code.sol\":1632:1638  uint c */\n      0x00\n        /* \"code.sol\":1663:1664  0 */\n      dup1\n        /* \"code.sol\":1659:1660  b */\n      dup3\n        /* \"code.sol\":1659:1664  b > 0 */\n      gt\n        /* \"code.sol\":1651:1665  require(b > 0) */\n      tag_32\n      jumpi\n      0x00\n      dup1\n      revert\n    tag_32:\n        /* \"code.sol\":1684:1685  b */\n      dup2\n        /* \"code.sol\":1680:1681  a */\n      dup4\n        /* \"code.sol\":1680:1685  a / b */\n      tag_33\n      swap2\n      swap1\n      tag_34\n      jump\t// in\n    tag_33:\n        /* \"code.sol\":1676:1685  c = a / b */\n      swap1\n      pop\n        /* \"code.sol\":1578:1693  function safeDiv(uint a, uint b) public pure returns (uint c) {... */\n      swap3\n      swap2\n      pop\n      pop\n      jump\t// out\n        /* \"code.sol\":1446:1570  function safeMul(uint a, uint b) public pure returns (uint c) {... */\n    tag_19:\n        /* \"code.sol\":1500:1506  uint c */\n      0x00\n        /* \"code.sol\":1527:1528  b */\n      dup2\n        /* \"code.sol\":1523:1524  a */\n      dup4\n        /* \"code.sol\":1523:1528  a * b */\n      tag_36\n      swap2\n      swap1\n      tag_37\n      jump\t// in\n    tag_36:\n        /* \"code.sol\":1519:1528  c = a * b */\n      swap1\n      pop\n        /* \"code.sol\":1550:1551  0 */\n      0x00\n        /* \"code.sol\":1547:1548  a */\n      dup4\n        /* \"code.sol\":1547:1551  a==0 */\n      eq\n        /* \"code.sol\":1547:1561  a==0 || c/a==b */\n      dup1\n      tag_38\n      jumpi\n      pop\n        /* \"code.sol\":1560:1561  b */\n      dup2\n        /* \"code.sol\":1557:1558  a */\n      dup4\n        /* \"code.sol\":1555:1556  c */\n      dup3\n        /* \"code.sol\":1555:1558  c/a */\n      tag_39\n      swap2\n      swap1\n      tag_34\n      jump\t// in\n    tag_39:\n        /* \"code.sol\":1555:1561  c/a==b */\n      eq\n        /* \"code.sol\":1547:1561  a==0 || c/a==b */\n    tag_38:\n        /* \"code.sol\":1539:1562  require(a==0 || c/a==b) */\n      tag_40\n      jumpi\n      0x00\n      dup1\n      revert\n    tag_40:\n        /* \"code.sol\":1446:1570  function safeMul(uint a, uint b) public pure returns (uint c) {... */\n      swap3\n      swap2\n      pop\n      pop\n      jump\t// out\n        /* \"code.sol\":1175:1292  function safeAdd (uint a, uint b) public pure returns (uint c) {... */\n    tag_23:\n        /* \"code.sol\":1230:1236  uint c */\n      0x00\n        /* \"code.sol\":1257:1258  b */\n      dup2\n        /* \"code.sol\":1253:1254  a */\n      dup4\n        /* \"code.sol\":1253:1258  a + b */\n      tag_42\n      swap2\n      swap1\n      tag_43\n      jump\t// in\n    tag_42:\n        /* \"code.sol\":1249:1258  c = a + b */\n      swap1\n      pop\n        /* \"code.sol\":1282:1283  a */\n      dup3\n        /* \"code.sol\":1277:1278  c */\n      dup2\n        /* \"code.sol\":1277:1283  c >= a */\n      lt\n      iszero\n        /* \"code.sol\":1269:1284  require(c >= a) */\n      tag_44\n      jumpi\n      0x00\n      dup1\n      revert\n    tag_44:\n        /* \"code.sol\":1175:1292  function safeAdd (uint a, uint b) public pure returns (uint c) {... */\n      swap3\n      swap2\n      pop\n      pop\n      jump\t// out\n        /* \"#utility.yul\":88:205   */\n    tag_46:\n        /* \"#utility.yul\":197:198   */\n      0x00\n        /* \"#utility.yul\":194:195   */\n      dup1\n        /* \"#utility.yul\":187:199   */\n      revert\n        /* \"#utility.yul\":334:411   */\n    tag_48:\n        /* \"#utility.yul\":371:378   */\n      0x00\n        /* \"#utility.yul\":400:405   */\n      dup2\n        /* \"#utility.yul\":389:405   */\n      swap1\n      pop\n        /* \"#utility.yul\":334:411   */\n      swap2\n      swap1\n      pop\n      jump\t// out\n        /* \"#utility.yul\":417:539   */\n    tag_49:\n        /* \"#utility.yul\":490:514   */\n      tag_63\n        /* \"#utility.yul\":508:513   */\n      dup2\n        /* \"#utility.yul\":490:514   */\n      tag_48\n      jump\t// in\n    tag_63:\n        /* \"#utility.yul\":483:488   */\n      dup2\n        /* \"#utility.yul\":480:515   */\n      eq\n        /* \"#utility.yul\":470:533   */\n      tag_64\n      jumpi\n        /* \"#utility.yul\":529:530   */\n      0x00\n        /* \"#utility.yul\":526:527   */\n      dup1\n        /* \"#utility.yul\":519:531   */\n      revert\n        /* \"#utility.yul\":470:533   */\n    tag_64:\n        /* \"#utility.yul\":417:539   */\n      pop\n      jump\t// out\n        /* \"#utility.yul\":545:684   */\n    tag_50:\n        /* \"#utility.yul\":591:596   */\n      0x00\n        /* \"#utility.yul\":629:635   */\n      dup2\n        /* \"#utility.yul\":616:636   */\n      calldataload\n        /* \"#utility.yul\":607:636   */\n      swap1\n      pop\n        /* \"#utility.yul\":645:678   */\n      tag_66\n        /* \"#utility.yul\":672:677   */\n      dup2\n        /* \"#utility.yul\":645:678   */\n      tag_49\n      jump\t// in\n    tag_66:\n        /* \"#utility.yul\":545:684   */\n      swap3\n      swap2\n      pop\n      pop\n      jump\t// out\n        /* \"#utility.yul\":690:1164   */\n    tag_9:\n        /* \"#utility.yul\":758:764   */\n      0x00\n        /* \"#utility.yul\":766:772   */\n      dup1\n        /* \"#utility.yul\":815:817   */\n      0x40\n        /* \"#utility.yul\":803:812   */\n      dup4\n        /* \"#utility.yul\":794:801   */\n      dup6\n        /* \"#utility.yul\":790:813   */\n      sub\n        /* \"#utility.yul\":786:818   */\n      slt\n        /* \"#utility.yul\":783:902   */\n      iszero\n      tag_68\n      jumpi\n        /* \"#utility.yul\":821:900   */\n      tag_69\n      tag_46\n      jump\t// in\n    tag_69:\n        /* \"#utility.yul\":783:902   */\n    tag_68:\n        /* \"#utility.yul\":941:942   */\n      0x00\n        /* \"#utility.yul\":966:1019   */\n      tag_70\n        /* \"#utility.yul\":1011:1018   */\n      dup6\n        /* \"#utility.yul\":1002:1008   */\n      dup3\n        /* \"#utility.yul\":991:1000   */\n      dup7\n        /* \"#utility.yul\":987:1009   */\n      add\n        /* \"#utility.yul\":966:1019   */\n      tag_50\n      jump\t// in\n    tag_70:\n        /* \"#utility.yul\":956:1019   */\n      swap3\n      pop\n        /* \"#utility.yul\":912:1029   */\n      pop\n        /* \"#utility.yul\":1068:1070   */\n      0x20\n        /* \"#utility.yul\":1094:1147   */\n      tag_71\n        /* \"#utility.yul\":1139:1146   */\n      dup6\n        /* \"#utility.yul\":1130:1136   */\n      dup3\n        /* \"#utility.yul\":1119:1128   */\n      dup7\n        /* \"#utility.yul\":1115:1137   */\n      add\n        /* \"#utility.yul\":1094:1147   */\n      tag_50\n      jump\t// in\n    tag_71:\n        /* \"#utility.yul\":1084:1147   */\n      swap2\n      pop\n        /* \"#utility.yul\":1039:1157   */\n      pop\n        /* \"#utility.yul\":690:1164   */\n      swap3\n      pop\n      swap3\n      swap1\n      pop\n      jump\t// out\n        /* \"#utility.yul\":1170:1288   */\n    tag_51:\n        /* \"#utility.yul\":1257:1281   */\n      tag_73\n        /* \"#utility.yul\":1275:1280   */\n      dup2\n        /* \"#utility.yul\":1257:1281   */\n      tag_48\n      jump\t// in\n    tag_73:\n        /* \"#utility.yul\":1252:1255   */\n      dup3\n        /* \"#utility.yul\":1245:1282   */\n      mstore\n        /* \"#utility.yul\":1170:1288   */\n      pop\n      pop\n      jump\t// out\n        /* \"#utility.yul\":1294:1516   */\n    tag_12:\n        /* \"#utility.yul\":1387:1391   */\n      0x00\n        /* \"#utility.yul\":1425:1427   */\n      0x20\n        /* \"#utility.yul\":1414:1423   */\n      dup3\n        /* \"#utility.yul\":1410:1428   */\n      add\n        /* \"#utility.yul\":1402:1428   */\n      swap1\n      pop\n        /* \"#utility.yul\":1438:1509   */\n      tag_75\n        /* \"#utility.yul\":1506:1507   */\n      0x00\n        /* \"#utility.yul\":1495:1504   */\n      dup4\n        /* \"#utility.yul\":1491:1508   */\n      add\n        /* \"#utility.yul\":1482:1488   */\n      dup5\n        /* \"#utility.yul\":1438:1509   */\n      tag_51\n      jump\t// in\n    tag_75:\n        /* \"#utility.yul\":1294:1516   */\n      swap3\n      swap2\n      pop\n      pop\n      jump\t// out\n        /* \"#utility.yul\":1522:1691   */\n    tag_52:\n        /* \"#utility.yul\":1606:1617   */\n      0x00\n        /* \"#utility.yul\":1640:1646   */\n      dup3\n        /* \"#utility.yul\":1635:1638   */\n      dup3\n        /* \"#utility.yul\":1628:1647   */\n      mstore\n        /* \"#utility.yul\":1680:1684   */\n      0x20\n        /* \"#utility.yul\":1675:1678   */\n      dup3\n        /* \"#utility.yul\":1671:1685   */\n      add\n        /* \"#utility.yul\":1656:1685   */\n      swap1\n      pop\n        /* \"#utility.yul\":1522:1691   */\n      swap3\n      swap2\n      pop\n      pop\n      jump\t// out\n        /* \"#utility.yul\":1697:1865   */\n    tag_53:\n        /* \"#utility.yul\":1837:1857   */\n      0x496e76616c6964206f7065726174696f6e210000000000000000000000000000\n        /* \"#utility.yul\":1833:1834   */\n      0x00\n        /* \"#utility.yul\":1825:1831   */\n      dup3\n        /* \"#utility.yul\":1821:1835   */\n      add\n        /* \"#utility.yul\":1814:1858   */\n      mstore\n        /* \"#utility.yul\":1697:1865   */\n      pop\n      jump\t// out\n        /* \"#utility.yul\":1871:2237   */\n    tag_54:\n        /* \"#utility.yul\":2013:2016   */\n      0x00\n        /* \"#utility.yul\":2034:2101   */\n      tag_79\n        /* \"#utility.yul\":2098:2100   */\n      0x12\n        /* \"#utility.yul\":2093:2096   */\n      dup4\n        /* \"#utility.yul\":2034:2101   */\n      tag_52\n      jump\t// in\n    tag_79:\n        /* \"#utility.yul\":2027:2101   */\n      swap2\n      pop\n        /* \"#utility.yul\":2110:2203   */\n      tag_80\n        /* \"#utility.yul\":2199:2202   */\n      dup3\n        /* \"#utility.yul\":2110:2203   */\n      tag_53\n      jump\t// in\n    tag_80:\n        /* \"#utility.yul\":2228:2230   */\n      0x20\n        /* \"#utility.yul\":2223:2226   */\n      dup3\n        /* \"#utility.yul\":2219:2231   */\n      add\n        /* \"#utility.yul\":2212:2231   */\n      swap1\n      pop\n        /* \"#utility.yul\":1871:2237   */\n      swap2\n      swap1\n      pop\n      jump\t// out\n        /* \"#utility.yul\":2243:2662   */\n    tag_28:\n        /* \"#utility.yul\":2409:2413   */\n      0x00\n        /* \"#utility.yul\":2447:2449   */\n      0x20\n        /* \"#utility.yul\":2436:2445   */\n      dup3\n        /* \"#utility.yul\":2432:2450   */\n      add\n        /* \"#utility.yul\":2424:2450   */\n      swap1\n      pop\n        /* \"#utility.yul\":2496:2505   */\n      dup2\n        /* \"#utility.yul\":2490:2494   */\n      dup2\n        /* \"#utility.yul\":2486:2506   */\n      sub\n        /* \"#utility.yul\":2482:2483   */\n      0x00\n        /* \"#utility.yul\":2471:2480   */\n      dup4\n        /* \"#utility.yul\":2467:2484   */\n      add\n        /* \"#utility.yul\":2460:2507   */\n      mstore\n        /* \"#utility.yul\":2524:2655   */\n      tag_82\n        /* \"#utility.yul\":2650:2654   */\n      dup2\n        /* \"#utility.yul\":2524:2655   */\n      tag_54\n      jump\t// in\n    tag_82:\n        /* \"#utility.yul\":2516:2655   */\n      swap1\n      pop\n        /* \"#utility.yul\":2243:2662   */\n      swap2\n      swap1\n      pop\n      jump\t// out\n        /* \"#utility.yul\":2668:2848   */\n    tag_55:\n        /* \"#utility.yul\":2716:2793   */\n      0x4e487b7100000000000000000000000000000000000000000000000000000000\n        /* \"#utility.yul\":2713:2714   */\n      0x00\n        /* \"#utility.yul\":2706:2794   */\n      mstore\n        /* \"#utility.yul\":2813:2817   */\n      0x11\n        /* \"#utility.yul\":2810:2811   */\n      0x04\n        /* \"#utility.yul\":2803:2818   */\n      mstore\n        /* \"#utility.yul\":2837:2841   */\n      0x24\n        /* \"#utility.yul\":2834:2835   */\n      0x00\n        /* \"#utility.yul\":2827:2842   */\n      revert\n        /* \"#utility.yul\":2854:3048   */\n    tag_30:\n        /* \"#utility.yul\":2894:2898   */\n      0x00\n        /* \"#utility.yul\":2914:2934   */\n      tag_85\n        /* \"#utility.yul\":2932:2933   */\n      dup3\n        /* \"#utility.yul\":2914:2934   */\n      tag_48\n      jump\t// in\n    tag_85:\n        /* \"#utility.yul\":2909:2934   */\n      swap2\n      pop\n        /* \"#utility.yul\":2948:2968   */\n      tag_86\n        /* \"#utility.yul\":2966:2967   */\n      dup4\n        /* \"#utility.yul\":2948:2968   */\n      tag_48\n      jump\t// in\n    tag_86:\n        /* \"#utility.yul\":2943:2968   */\n      swap3\n      pop\n        /* \"#utility.yul\":2992:2993   */\n      dup3\n        /* \"#utility.yul\":2989:2990   */\n      dup3\n        /* \"#utility.yul\":2985:2994   */\n      sub\n        /* \"#utility.yul\":2977:2994   */\n      swap1\n      pop\n        /* \"#utility.yul\":3016:3017   */\n      dup2\n        /* \"#utility.yul\":3010:3014   */\n      dup2\n        /* \"#utility.yul\":3007:3018   */\n      gt\n        /* \"#utility.yul\":3004:3041   */\n      iszero\n      tag_87\n      jumpi\n        /* \"#utility.yul\":3021:3039   */\n      tag_88\n      tag_55\n      jump\t// in\n    tag_88:\n        /* \"#utility.yul\":3004:3041   */\n    tag_87:\n        /* \"#utility.yul\":2854:3048   */\n      swap3\n      swap2\n      pop\n      pop\n      jump\t// out\n        /* \"#utility.yul\":3054:3234   */\n    tag_56:\n        /* \"#utility.yul\":3102:3179   */\n      0x4e487b7100000000000000000000000000000000000000000000000000000000\n        /* \"#utility.yul\":3099:3100   */\n      0x00\n        /* \"#utility.yul\":3092:3180   */\n      mstore\n        /* \"#utility.yul\":3199:3203   */\n      0x12\n        /* \"#utility.yul\":3196:3197   */\n      0x04\n        /* \"#utility.yul\":3189:3204   */\n      mstore\n        /* \"#utility.yul\":3223:3227   */\n      0x24\n        /* \"#utility.yul\":3220:3221   */\n      0x00\n        /* \"#utility.yul\":3213:3228   */\n      revert\n        /* \"#utility.yul\":3240:3425   */\n    tag_34:\n        /* \"#utility.yul\":3280:3281   */\n      0x00\n        /* \"#utility.yul\":3297:3317   */\n      tag_91\n        /* \"#utility.yul\":3315:3316   */\n      dup3\n        /* \"#utility.yul\":3297:3317   */\n      tag_48\n      jump\t// in\n    tag_91:\n        /* \"#utility.yul\":3292:3317   */\n      swap2\n      pop\n        /* \"#utility.yul\":3331:3351   */\n      tag_92\n        /* \"#utility.yul\":3349:3350   */\n      dup4\n        /* \"#utility.yul\":3331:3351   */\n      tag_48\n      jump\t// in\n    tag_92:\n        /* \"#utility.yul\":3326:3351   */\n      swap3\n      pop\n        /* \"#utility.yul\":3370:3371   */\n      dup3\n        /* \"#utility.yul\":3360:3395   */\n      tag_93\n      jumpi\n        /* \"#utility.yul\":3375:3393   */\n      tag_94\n      tag_56\n      jump\t// in\n    tag_94:\n        /* \"#utility.yul\":3360:3395   */\n    tag_93:\n        /* \"#utility.yul\":3417:3418   */\n      dup3\n        /* \"#utility.yul\":3414:3415   */\n      dup3\n        /* \"#utility.yul\":3410:3419   */\n      div\n        /* \"#utility.yul\":3405:3419   */\n      swap1\n      pop\n        /* \"#utility.yul\":3240:3425   */\n      swap3\n      swap2\n      pop\n      pop\n      jump\t// out\n        /* \"#utility.yul\":3431:3841   */\n    tag_37:\n        /* \"#utility.yul\":3471:3478   */\n      0x00\n        /* \"#utility.yul\":3494:3514   */\n      tag_96\n        /* \"#utility.yul\":3512:3513   */\n      dup3\n        /* \"#utility.yul\":3494:3514   */\n      tag_48\n      jump\t// in\n    tag_96:\n        /* \"#utility.yul\":3489:3514   */\n      swap2\n      pop\n        /* \"#utility.yul\":3528:3548   */\n      tag_97\n        /* \"#utility.yul\":3546:3547   */\n      dup4\n        /* \"#utility.yul\":3528:3548   */\n      tag_48\n      jump\t// in\n    tag_97:\n        /* \"#utility.yul\":3523:3548   */\n      swap3\n      pop\n        /* \"#utility.yul\":3583:3584   */\n      dup3\n        /* \"#utility.yul\":3580:3581   */\n      dup3\n        /* \"#utility.yul\":3576:3585   */\n      mul\n        /* \"#utility.yul\":3605:3635   */\n      tag_98\n        /* \"#utility.yul\":3623:3634   */\n      dup2\n        /* \"#utility.yul\":3605:3635   */\n      tag_48\n      jump\t// in\n    tag_98:\n        /* \"#utility.yul\":3594:3635   */\n      swap2\n      pop\n        /* \"#utility.yul\":3784:3785   */\n      dup3\n        /* \"#utility.yul\":3775:3782   */\n      dup3\n        /* \"#utility.yul\":3771:3786   */\n      div\n        /* \"#utility.yul\":3768:3769   */\n      dup5\n        /* \"#utility.yul\":3765:3787   */\n      eq\n        /* \"#utility.yul\":3745:3746   */\n      dup4\n        /* \"#utility.yul\":3738:3747   */\n      iszero\n        /* \"#utility.yul\":3718:3801   */\n      or\n        /* \"#utility.yul\":3695:3834   */\n      tag_99\n      jumpi\n        /* \"#utility.yul\":3814:3832   */\n      tag_100\n      tag_55\n      jump\t// in\n    tag_100:\n        /* \"#utility.yul\":3695:3834   */\n    tag_99:\n        /* \"#utility.yul\":3479:3841   */\n      pop\n        /* \"#utility.yul\":3431:3841   */\n      swap3\n      swap2\n      pop\n      pop\n      jump\t// out\n        /* \"#utility.yul\":3847:4038   */\n    tag_43:\n        /* \"#utility.yul\":3887:3890   */\n      0x00\n        /* \"#utility.yul\":3906:3926   */\n      tag_102\n        /* \"#utility.yul\":3924:3925   */\n      dup3\n        /* \"#utility.yul\":3906:3926   */\n      tag_48\n      jump\t// in\n    tag_102:\n        /* \"#utility.yul\":3901:3926   */\n      swap2\n      pop\n        /* \"#utility.yul\":3940:3960   */\n      tag_103\n        /* \"#utility.yul\":3958:3959   */\n      dup4\n        /* \"#utility.yul\":3940:3960   */\n      tag_48\n      jump\t// in\n    tag_103:\n        /* \"#utility.yul\":3935:3960   */\n      swap3\n      pop\n        /* \"#utility.yul\":3983:3984   */\n      dup3\n        /* \"#utility.yul\":3980:3981   */\n      dup3\n        /* \"#utility.yul\":3976:3985   */\n      add\n        /* \"#utility.yul\":3969:3985   */\n      swap1\n      pop\n        /* \"#utility.yul\":4004:4007   */\n      dup1\n        /* \"#utility.yul\":4001:4002   */\n      dup3\n        /* \"#utility.yul\":3998:4008   */\n      gt\n        /* \"#utility.yul\":3995:4031   */\n      iszero\n      tag_104\n      jumpi\n        /* \"#utility.yul\":4011:4029   */\n      tag_105\n      tag_55\n      jump\t// in\n    tag_105:\n        /* \"#utility.yul\":3995:4031   */\n    tag_104:\n        /* \"#utility.yul\":3847:4038   */\n      swap3\n      swap2\n      pop\n      pop\n      jump\t// out\n\n    auxdata: 0xa264697066735822122091ec6bdce9652c9290bc2dc687bb1ecdfc28fc080e24e4ee48e88117b1e477b964736f6c63430008120033\n}\n",
				"bytecode": {
					"linkReferences": {},
					"object": "608060405234801561001057600080fd5b50610478806100206000396000f3fe608060405234801561001057600080fd5b506004361061004c5760003560e01c8063a293d1e814610051578063b5931f7c14610081578063d05c78da146100b1578063e6cb9013146100e1575b600080fd5b61006b60048036038101906100669190610222565b610111565b6040516100789190610271565b60405180910390f35b61009b60048036038101906100969190610222565b61016a565b6040516100a89190610271565b60405180910390f35b6100cb60048036038101906100c69190610222565b61018c565b6040516100d89190610271565b60405180910390f35b6100fb60048036038101906100f69190610222565b6101c4565b6040516101089190610271565b60405180910390f35b600082821115610156576040517f08c379a000000000000000000000000000000000000000000000000000000000815260040161014d906102e9565b60405180910390fd5b81836101629190610338565b905092915050565b600080821161017857600080fd5b8183610184919061039b565b905092915050565b6000818361019a91906103cc565b905060008314806101b557508183826101b3919061039b565b145b6101be57600080fd5b92915050565b600081836101d2919061040e565b9050828110156101e157600080fd5b92915050565b600080fd5b6000819050919050565b6101ff816101ec565b811461020a57600080fd5b50565b60008135905061021c816101f6565b92915050565b60008060408385031215610239576102386101e7565b5b60006102478582860161020d565b92505060206102588582860161020d565b9150509250929050565b61026b816101ec565b82525050565b60006020820190506102866000830184610262565b92915050565b600082825260208201905092915050565b7f496e76616c6964206f7065726174696f6e210000000000000000000000000000600082015250565b60006102d360128361028c565b91506102de8261029d565b602082019050919050565b60006020820190508181036000830152610302816102c6565b9050919050565b7f4e487b7100000000000000000000000000000000000000000000000000000000600052601160045260246000fd5b6000610343826101ec565b915061034e836101ec565b925082820390508181111561036657610365610309565b5b92915050565b7f4e487b7100000000000000000000000000000000000000000000000000000000600052601260045260246000fd5b60006103a6826101ec565b91506103b1836101ec565b9250826103c1576103c061036c565b5b828204905092915050565b60006103d7826101ec565b91506103e2836101ec565b92508282026103f0816101ec565b9150828204841483151761040757610406610309565b5b5092915050565b6000610419826101ec565b9150610424836101ec565b925082820190508082111561043c5761043b610309565b5b9291505056fea264697066735822122091ec6bdce9652c9290bc2dc687bb1ecdfc28fc080e24e4ee48e88117b1e477b964736f6c63430008120033",
					"opcodes": "PUSH1 0x80 PUSH1 0x40 MSTORE CALLVALUE DUP1 ISZERO PUSH2 0x10 JUMPI PUSH1 0x0 DUP1 REVERT JUMPDEST POP PUSH2 0x478 DUP1 PUSH2 0x20 PUSH1 0x0 CODECOPY PUSH1 0x0 RETURN INVALID PUSH1 0x80 PUSH1 0x40 MSTORE CALLVALUE DUP1 ISZERO PUSH2 0x10 JUMPI PUSH1 0x0 DUP1 REVERT JUMPDEST POP PUSH1 0x4 CALLDATASIZE LT PUSH2 0x4C JUMPI PUSH1 0x0 CALLDATALOAD PUSH1 0xE0 SHR DUP1 PUSH4 0xA293D1E8 EQ PUSH2 0x51 JUMPI DUP1 PUSH4 0xB5931F7C EQ PUSH2 0x81 JUMPI DUP1 PUSH4 0xD05C78DA EQ PUSH2 0xB1 JUMPI DUP1 PUSH4 0xE6CB9013 EQ PUSH2 0xE1 JUMPI JUMPDEST PUSH1 0x0 DUP1 REVERT JUMPDEST PUSH2 0x6B PUSH1 0x4 DUP1 CALLDATASIZE SUB DUP2 ADD SWAP1 PUSH2 0x66 SWAP2 SWAP1 PUSH2 0x222 JUMP JUMPDEST PUSH2 0x111 JUMP JUMPDEST PUSH1 0x40 MLOAD PUSH2 0x78 SWAP2 SWAP1 PUSH2 0x271 JUMP JUMPDEST PUSH1 0x40 MLOAD DUP1 SWAP2 SUB SWAP1 RETURN JUMPDEST PUSH2 0x9B PUSH1 0x4 DUP1 CALLDATASIZE SUB DUP2 ADD SWAP1 PUSH2 0x96 SWAP2 SWAP1 PUSH2 0x222 JUMP JUMPDEST PUSH2 0x16A JUMP JUMPDEST PUSH1 0x40 MLOAD PUSH2 0xA8 SWAP2 SWAP1 PUSH2 0x271 JUMP JUMPDEST PUSH1 0x40 MLOAD DUP1 SWAP2 SUB SWAP1 RETURN JUMPDEST PUSH2 0xCB PUSH1 0x4 DUP1 CALLDATASIZE SUB DUP2 ADD SWAP1 PUSH2 0xC6 SWAP2 SWAP1 PUSH2 0x222 JUMP JUMPDEST PUSH2 0x18C JUMP JUMPDEST PUSH1 0x40 MLOAD PUSH2 0xD8 SWAP2 SWAP1 PUSH2 0x271 JUMP JUMPDEST PUSH1 0x40 MLOAD DUP1 SWAP2 SUB SWAP1 RETURN JUMPDEST PUSH2 0xFB PUSH1 0x4 DUP1 CALLDATASIZE SUB DUP2 ADD SWAP1 PUSH2 0xF6 SWAP2 SWAP1 PUSH2 0x222 JUMP JUMPDEST PUSH2 0x1C4 JUMP JUMPDEST PUSH1 0x40 MLOAD PUSH2 0x108 SWAP2 SWAP1 PUSH2 0x271 JUMP JUMPDEST PUSH1 0x40 MLOAD DUP1 SWAP2 SUB SWAP1 RETURN JUMPDEST PUSH1 0x0 DUP3 DUP3 GT ISZERO PUSH2 0x156 JUMPI PUSH1 0x40 MLOAD PUSH32 0x8C379A000000000000000000000000000000000000000000000000000000000 DUP2 MSTORE PUSH1 0x4 ADD PUSH2 0x14D SWAP1 PUSH2 0x2E9 JUMP JUMPDEST PUSH1 0x40 MLOAD DUP1 SWAP2 SUB SWAP1 REVERT JUMPDEST DUP2 DUP4 PUSH2 0x162 SWAP2 SWAP1 PUSH2 0x338 JUMP JUMPDEST SWAP1 POP SWAP3 SWAP2 POP POP JUMP JUMPDEST PUSH1 0x0 DUP1 DUP3 GT PUSH2 0x178 JUMPI PUSH1 0x0 DUP1 REVERT JUMPDEST DUP2 DUP4 PUSH2 0x184 SWAP2 SWAP1 PUSH2 0x39B JUMP JUMPDEST SWAP1 POP SWAP3 SWAP2 POP POP JUMP JUMPDEST PUSH1 0x0 DUP2 DUP4 PUSH2 0x19A SWAP2 SWAP1 PUSH2 0x3CC JUMP JUMPDEST SWAP1 POP PUSH1 0x0 DUP4 EQ DUP1 PUSH2 0x1B5 JUMPI POP DUP2 DUP4 DUP3 PUSH2 0x1B3 SWAP2 SWAP1 PUSH2 0x39B JUMP JUMPDEST EQ JUMPDEST PUSH2 0x1BE JUMPI PUSH1 0x0 DUP1 REVERT JUMPDEST SWAP3 SWAP2 POP POP JUMP JUMPDEST PUSH1 0x0 DUP2 DUP4 PUSH2 0x1D2 SWAP2 SWAP1 PUSH2 0x40E JUMP JUMPDEST SWAP1 POP DUP3 DUP2 LT ISZERO PUSH2 0x1E1 JUMPI PUSH1 0x0 DUP1 REVERT JUMPDEST SWAP3 SWAP2 POP POP JUMP JUMPDEST PUSH1 0x0 DUP1 REVERT JUMPDEST PUSH1 0x0 DUP2 SWAP1 POP SWAP2 SWAP1 POP JUMP JUMPDEST PUSH2 0x1FF DUP2 PUSH2 0x1EC JUMP JUMPDEST DUP2 EQ PUSH2 0x20A JUMPI PUSH1 0x0 DUP1 REVERT JUMPDEST POP JUMP JUMPDEST PUSH1 0x0 DUP2 CALLDATALOAD SWAP1 POP PUSH2 0x21C DUP2 PUSH2 0x1F6 JUMP JUMPDEST SWAP3 SWAP2 POP POP JUMP JUMPDEST PUSH1 0x0 DUP1 PUSH1 0x40 DUP4 DUP6 SUB SLT ISZERO PUSH2 0x239 JUMPI PUSH2 0x238 PUSH2 0x1E7 JUMP JUMPDEST JUMPDEST PUSH1 0x0 PUSH2 0x247 DUP6 DUP3 DUP7 ADD PUSH2 0x20D JUMP JUMPDEST SWAP3 POP POP PUSH1 0x20 PUSH2 0x258 DUP6 DUP3 DUP7 ADD PUSH2 0x20D JUMP JUMPDEST SWAP2 POP POP SWAP3 POP SWAP3 SWAP1 POP JUMP JUMPDEST PUSH2 0x26B DUP2 PUSH2 0x1EC JUMP JUMPDEST DUP3 MSTORE POP POP JUMP JUMPDEST PUSH1 0x0 PUSH1 0x20 DUP3 ADD SWAP1 POP PUSH2 0x286 PUSH1 0x0 DUP4 ADD DUP5 PUSH2 0x262 JUMP JUMPDEST SWAP3 SWAP2 POP POP JUMP JUMPDEST PUSH1 0x0 DUP3 DUP3 MSTORE PUSH1 0x20 DUP3 ADD SWAP1 POP SWAP3 SWAP2 POP POP JUMP JUMPDEST PUSH32 0x496E76616C6964206F7065726174696F6E210000000000000000000000000000 PUSH1 0x0 DUP3 ADD MSTORE POP JUMP JUMPDEST PUSH1 0x0 PUSH2 0x2D3 PUSH1 0x12 DUP4 PUSH2 0x28C JUMP JUMPDEST SWAP2 POP PUSH2 0x2DE DUP3 PUSH2 0x29D JUMP JUMPDEST PUSH1 0x20 DUP3 ADD SWAP1 POP SWAP2 SWAP1 POP JUMP JUMPDEST PUSH1 0x0 PUSH1 0x20 DUP3 ADD SWAP1 POP DUP2 DUP2 SUB PUSH1 0x0 DUP4 ADD MSTORE PUSH2 0x302 DUP2 PUSH2 0x2C6 JUMP JUMPDEST SWAP1 POP SWAP2 SWAP1 POP JUMP JUMPDEST PUSH32 0x4E487B7100000000000000000000000000000000000000000000000000000000 PUSH1 0x0 MSTORE PUSH1 0x11 PUSH1 0x4 MSTORE PUSH1 0x24 PUSH1 0x0 REVERT JUMPDEST PUSH1 0x0 PUSH2 0x343 DUP3 PUSH2 0x1EC JUMP JUMPDEST SWAP2 POP PUSH2 0x34E DUP4 PUSH2 0x1EC JUMP JUMPDEST SWAP3 POP DUP3 DUP3 SUB SWAP1 POP DUP2 DUP2 GT ISZERO PUSH2 0x366 JUMPI PUSH2 0x365 PUSH2 0x309 JUMP JUMPDEST JUMPDEST SWAP3 SWAP2 POP POP JUMP JUMPDEST PUSH32 0x4E487B7100000000000000000000000000000000000000000000000000000000 PUSH1 0x0 MSTORE PUSH1 0x12 PUSH1 0x4 MSTORE PUSH1 0x24 PUSH1 0x0 REVERT JUMPDEST PUSH1 0x0 PUSH2 0x3A6 DUP3 PUSH2 0x1EC JUMP JUMPDEST SWAP2 POP PUSH2 0x3B1 DUP4 PUSH2 0x1EC JUMP JUMPDEST SWAP3 POP DUP3 PUSH2 0x3C1 JUMPI PUSH2 0x3C0 PUSH2 0x36C JUMP JUMPDEST JUMPDEST DUP3 DUP3 DIV SWAP1 POP SWAP3 SWAP2 POP POP JUMP JUMPDEST PUSH1 0x0 PUSH2 0x3D7 DUP3 PUSH2 0x1EC JUMP JUMPDEST SWAP2 POP PUSH2 0x3E2 DUP4 PUSH2 0x1EC JUMP JUMPDEST SWAP3 POP DUP3 DUP3 MUL PUSH2 0x3F0 DUP2 PUSH2 0x1EC JUMP JUMPDEST SWAP2 POP DUP3 DUP3 DIV DUP5 EQ DUP4 ISZERO OR PUSH2 0x407 JUMPI PUSH2 0x406 PUSH2 0x309 JUMP JUMPDEST JUMPDEST POP SWAP3 SWAP2 POP POP JUMP JUMPDEST PUSH1 0x0 PUSH2 0x419 DUP3 PUSH2 0x1EC JUMP JUMPDEST SWAP2 POP PUSH2 0x424 DUP4 PUSH2 0x1EC JUMP JUMPDEST SWAP3 POP DUP3 DUP3 ADD SWAP1 POP DUP1 DUP3 GT ISZERO PUSH2 0x43C JUMPI PUSH2 0x43B PUSH2 0x309 JUMP JUMPDEST JUMPDEST SWAP3 SWAP2 POP POP JUMP INVALID LOG2 PUSH5 0x6970667358 0x22 SLT KECCAK256 SWAP2 0xEC PUSH12 0xDCE9652C9290BC2DC687BB1E 0xCD 0xFC 0x28 0xFC ADDMOD 0xE 0x24 0xE4 0xEE BASEFEE 0xE8 DUP2 OR 0xB1 0xE4 PUSH24 0xB964736F6C63430008120033000000000000000000000000 "
				},
				"gasEstimates": {
					"creation": {
						"codeDepositCost": "228800",
						"executionCost": "269",
						"totalCost": "229069"
					},
					"external": {
						"safeAdd(uint256,uint256)": "infinite",
						"safeDiv(uint256,uint256)": "infinite",
						"safeMul(uint256,uint256)": "infinite",
						"safeSub(uint256,uint256)": "infinite"
					}
				},
				"methodIdentifiers": {
					"safeAdd(uint256,uint256)": "e6cb9013",
					"safeDiv(uint256,uint256)": "b5931f7c",
					"safeMul(uint256,uint256)": "d05c78da",
					"safeSub(uint256,uint256)": "a293d1e8"
				}
			},
			"storageLayout": {
				"storage": [],
				"types": null
			},
			"userdoc": {
				"kind": "user",
				"methods": {},
				"version": 1
			}
		}
	}
}