{
	"example_code.sol": {
		"myToken": {
			"abi": [
				{
					"inputs": [],
					"stateMutability": "nonpayable",
					"type": "constructor"
				},
				{
					"anonymous": false,
					"inputs": [
						{
							"indexed": true,
							"internalType": "address",
							"name": "tokenOwner",
							"type": "address"
						},
						{
							"indexed": true,
							"internalType": "address",
							"name": "spender",
							"type": "address"
						},
						{
							"indexed": false,
							"internalType": "uint256",
							"name": "tokens",
							"type": "uint256"
						}
					],
					"name": "Approval",
					"type": "event"
				},
				{
					"anonymous": false,
					"inputs": [
						{
							"indexed": true,
							"internalType": "address",
							"name": "winner",
							"type": "address"
						},
						{
							"indexed": false,
							"internalType": "uint256",
							"name": "bonus",
							"type": "uint256"
						}
					],
					"name": "LotteryDrawn",
					"type": "event"
				},
				{
					"anonymous": false,
					"inputs": [
						{
							"indexed": true,
							"internalType": "address",
							"name": "from",
							"type": "address"
						},
						{
							"indexed": true,
							"internalType": "address",
							"name": "to",
							"type": "address"
						},
						{
							"indexed": false,
							"internalType": "uint256",
							"name": "tokens",
							"type": "uint256"
						}
					],
					"name": "Transfer",
					"type": "event"
				},
				{
					"inputs": [],
					"name": "_totalSupply",
					"outputs": [
						{
							"internalType": "uint256",
							"name": "",
							"type": "uint256"
						}
					],
					"stateMutability": "view",
					"type": "function"
				},
				{
					"inputs": [
						{
							"internalType": "address",
							"name": "tokenOwner",
							"type": "address"
						},
						{
							"internalType": "address",
							"name": "spender",
							"type": "address"
						}
					],
					"name": "allowance",
					"outputs": [
						{
							"internalType": "uint256",
							"name": "remaining",
							"type": "uint256"
						}
					],
					"stateMutability": "view",
					"type": "function"
				},
				{
					"inputs": [
						{
							"internalType": "address",
							"name": "spender",
							"type": "address"
						},
						{
							"internalType": "uint256",
							"name": "tokens",
							"type": "uint256"
						}
					],
					"name": "approve",
					"outputs": [
						{
							"internalType": "bool",
							"name": "success",
							"type": "bool"
						}
					],
					"stateMutability": "nonpayable",
					"type": "function"
				},
				{
					"inputs": [
						{
							"internalType": "address",
							"name": "tokenOwner",
							"type": "address"
						}
					],
					"name": "balanceOf",
					"outputs": [
						{
							"internalType": "uint256",
							"name": "balance",
							"type": "uint256"
						}
					],
					"stateMutability": "view",
					"type": "function"
				},
				{
					"inputs": [],
					"name": "betLottery",
					"outputs": [],
					"stateMutability": "payable",
					"type": "function"
				},
				{
					"inputs": [],
					"name": "decimals",
					"outputs": [
						{
							"internalType": "uint8",
							"name": "",
							"type": "uint8"
						}
					],
					"stateMutability": "view",
					"type": "function"
				},
				{
					"inputs": [],
					"name": "draw",
					"outputs": [],
					"stateMutability": "nonpayable",
					"type": "function"
				},
				{
					"inputs": [],
					"name": "faucet",
					"outputs": [],
					"stateMutability": "nonpayable",
					"type": "function"
				},
				{
					"inputs": [],
					"name": "generateRandomNumber",
					"outputs": [
						{
							"internalType": "uint256",
							"name": "",
							"type": "uint256"
						}
					],
					"stateMutability": "view",
					"type": "function"
				},
				{
					"inputs": [],
					"name": "getAllPlayers",
					"outputs": [
						{
							"internalType": "address payable[]",
							"name": "",
							"type": "address[]"
						}
					],
					"stateMutability": "view",
					"type": "function"
				},
				{
					"inputs": [],
					"name": "lastDrawTime",
					"outputs": [
						{
							"internalType": "uint256",
							"name": "",
							"type": "uint256"
						}
					],
					"stateMutability": "view",
					"type": "function"
				},
				{
					"inputs": [],
					"name": "name",
					"outputs": [
						{
							"internalType": "string",
							"name": "",
							"type": "string"
						}
					],
					"stateMutability": "view",
					"type": "function"
				},
				{
					"inputs": [],
					"name": "owner",
					"outputs": [
						{
							"internalType": "address",
							"name": "",
							"type": "address"
						}
					],
					"stateMutability": "view",
					"type": "function"
				},
				{
					"inputs": [
						{
							"internalType": "uint256",
							"name": "a",
							"type": "uint256"
						},
						{
							"internalType": "uint256",
							"name": "b",
							"type": "uint256"
						}
					],
					"name": "safeAdd",
					"outputs": [
						{
							"internalType": "uint256",
							"name": "c",
							"type": "uint256"
						}
					],
					"stateMutability": "pure",
					"type": "function"
				},
				{
					"inputs": [
						{
							"internalType": "uint256",
							"name": "a",
							"type": "uint256"
						},
						{
							"internalType": "uint256",
							"name": "b",
							"type": "uint256"
						}
					],
					"name": "safeDiv",
					"outputs": [
						{
							"internalType": "uint256",
							"name": "c",
							"type": "uint256"
						}
					],
					"stateMutability": "pure",
					"type": "function"
				},
				{
					"inputs": [
						{
							"internalType": "uint256",
							"name": "a",
							"type": "uint256"
						},
						{
							"internalType": "uint256",
							"name": "b",
							"type": "uint256"
						}
					],
					"name": "safeMul",
					"outputs": [
						{
							"internalType": "uint256",
							"name": "c",
							"type": "uint256"
						}
					],
					"stateMutability": "pure",
					"type": "function"
				},
				{
					"inputs": [
						{
							"internalType": "uint256",
							"name": "a",
							"type": "uint256"
						},
						{
							"internalType": "uint256",
							"name": "b",
							"type": "uint256"
						}
					],
					"name": "safeSub",
					"outputs": [
						{
							"internalType": "uint256",
							"name": "c",
							"type": "uint256"
						}
					],
					"stateMutability": "pure",
					"type": "function"
				},
				{
					"inputs": [],
					"name": "symbol",
					"outputs": [
						{
							"internalType": "string",
							"name": "",
							"type": "string"
						}
					],
					"stateMutability": "view",
					"type": "function"
				},
				{
					"inputs": [],
					"name": "totalPot",
					"outputs": [
						{
							"internalType": "uint256",
							"name": "",
							"type": "uint256"
						}
					],
					"stateMutability": "view",
					"type": "function"
				},
				{
					"inputs": [],
					"name": "totalSupply",
					"outputs": [
						{
							"internalType": "uint256",
							"name": "",
							"type": "uint256"
						}
					],
					"stateMutability": "view",
					"type": "function"
				},
				{
					"inputs": [
						{
							"internalType": "address",
							"name": "to",
							"type": "address"
						},
						{
							"internalType": "uint256",
							"name": "tokens",
							"type": "uint256"
						}
					],
					"name": "transfer",
					"outputs": [
						{
							"internalType": "bool",
							"name": "success",
							"type": "bool"
						}
					],
					"stateMutability": "nonpayable",
					"type": "function"
				},
				{
					"inputs": [
						{
							"internalType": "address",
							"name": "from",
							"type": "address"
						},
						{
							"internalType": "address",
							"name": "to",
							"type": "address"
						},
						{
							"internalType": "uint256",
							"name": "tokens",
							"type": "uint256"
						}
					],
					"name": "transferFrom",
					"outputs": [
						{
							"internalType": "bool",
							"name": "success",
							"type": "bool"
						}
					],
					"stateMutability": "nonpayable",
					"type": "function"
				},
				{
					"inputs": [],
					"name": "winner",
					"outputs": [
						{
							"internalType": "address payable",
							"name": "",
							"type": "address"
						}
					],
					"stateMutability": "view",
					"type": "function"
				}
			],
			"devdoc": {
				"kind": "dev",
				"methods": {},
				"version": 1
			},
			"evm": {
				"assembly": "    /* \"example_code.sol\":1864:7461  contract myToken is ERC20Interface, SafeMath{... */\n  mstore(0x40, 0x80)\n    /* \"example_code.sol\":2251:2565  constructor()... */\n  callvalue\n  dup1\n  iszero\n  tag_1\n  jumpi\n  0x00\n  dup1\n  revert\ntag_1:\n  pop\n    /* \"example_code.sol\":2308:2326  name = \"HOMEWORK2\" */\n  mload(0x40)\n  dup1\n  0x40\n  add\n  0x40\n  mstore\n  dup1\n  0x09\n  dup2\n  mstore\n  0x20\n  add\n  0x484f4d45574f524b320000000000000000000000000000000000000000000000\n  dup2\n  mstore\n  pop\n    /* \"example_code.sol\":2308:2312  name */\n  0x00\n    /* \"example_code.sol\":2308:2326  name = \"HOMEWORK2\" */\n  swap1\n  dup2\n  tag_4\n  swap2\n  swap1\n  tag_5\n  jump\t// in\ntag_4:\n  pop\n    /* \"example_code.sol\":2337:2351  symbol = \"HW2\" */\n  mload(0x40)\n  dup1\n  0x40\n  add\n  0x40\n  mstore\n  dup1\n  0x03\n  dup2\n  mstore\n  0x20\n  add\n  0x4857320000000000000000000000000000000000000000000000000000000000\n  dup2\n  mstore\n  pop\n    /* \"example_code.sol\":2337:2343  symbol */\n  0x01\n    /* \"example_code.sol\":2337:2351  symbol = \"HW2\" */\n  swap1\n  dup2\n  tag_6\n  swap2\n  swap1\n  tag_5\n  jump\t// in\ntag_6:\n  pop\n    /* \"example_code.sol\":2373:2375  18 */\n  0x12\n    /* \"example_code.sol\":2362:2370  decimals */\n  0x02\n  0x00\n    /* \"example_code.sol\":2362:2375  decimals = 18 */\n  0x0100\n  exp\n  dup2\n  sload\n  dup2\n  0xff\n  mul\n  not\n  and\n  swap1\n  dup4\n  0xff\n  and\n  mul\n  or\n  swap1\n  sstore\n  pop\n    /* \"example_code.sol\":2403:2410  1000000 */\n  0x0f4240\n    /* \"example_code.sol\":2388:2400  _totalSupply */\n  0x03\n    /* \"example_code.sol\":2388:2410  _totalSupply = 1000000 */\n  dup2\n  swap1\n  sstore\n  pop\n    /* \"example_code.sol\":2444:2456  _totalSupply */\n  sload(0x03)\n    /* \"example_code.sol\":2421:2429  balances */\n  0x04\n    /* \"example_code.sol\":2421:2441  balances[msg.sender] */\n  0x00\n    /* \"example_code.sol\":2430:2440  msg.sender */\n  caller\n    /* \"example_code.sol\":2421:2441  balances[msg.sender] */\n  0xffffffffffffffffffffffffffffffffffffffff\n  and\n  0xffffffffffffffffffffffffffffffffffffffff\n  and\n  dup2\n  mstore\n  0x20\n  add\n  swap1\n  dup2\n  mstore\n  0x20\n  add\n  0x00\n  keccak256\n    /* \"example_code.sol\":2421:2456  balances[msg.sender] = _totalSupply */\n  dup2\n  swap1\n  sstore\n  pop\n    /* \"example_code.sol\":2475:2485  msg.sender */\n  caller\n    /* \"example_code.sol\":2467:2472  owner */\n  0x07\n  0x00\n    /* \"example_code.sol\":2467:2485  owner = msg.sender */\n  0x0100\n  exp\n  dup2\n  sload\n  dup2\n  0xffffffffffffffffffffffffffffffffffffffff\n  mul\n  not\n  and\n  swap1\n  dup4\n  0xffffffffffffffffffffffffffffffffffffffff\n  and\n  mul\n  or\n  swap1\n  sstore\n  pop\n    /* \"example_code.sol\":2532:2542  msg.sender */\n  caller\n    /* \"example_code.sol\":2511:2557  Transfer(address(0), msg.sender, _totalSupply) */\n  0xffffffffffffffffffffffffffffffffffffffff\n  and\n    /* \"example_code.sol\":2528:2529  0 */\n  0x00\n    /* \"example_code.sol\":2511:2557  Transfer(address(0), msg.sender, _totalSupply) */\n  0xffffffffffffffffffffffffffffffffffffffff\n  and\n  0xddf252ad1be2c89b69c2b068fc378daa952ba7f163c4a11628f55a4df523b3ef\n    /* \"example_code.sol\":2544:2556  _totalSupply */\n  sload(0x03)\n    /* \"example_code.sol\":2511:2557  Transfer(address(0), msg.sender, _totalSupply) */\n  mload(0x40)\n  tag_7\n  swap2\n  swap1\n  tag_8\n  jump\t// in\ntag_7:\n  mload(0x40)\n  dup1\n  swap2\n  sub\n  swap1\n  log3\n    /* \"example_code.sol\":1864:7461  contract myToken is ERC20Interface, SafeMath{... */\n  jump(tag_9)\n    /* \"#utility.yul\":7:106   */\ntag_10:\n    /* \"#utility.yul\":59:65   */\n  0x00\n    /* \"#utility.yul\":93:98   */\n  dup2\n    /* \"#utility.yul\":87:99   */\n  mload\n    /* \"#utility.yul\":77:99   */\n  swap1\n  pop\n    /* \"#utility.yul\":7:106   */\n  swap2\n  swap1\n  pop\n  jump\t// out\n    /* \"#utility.yul\":112:292   */\ntag_11:\n    /* \"#utility.yul\":160:237   */\n  0x4e487b7100000000000000000000000000000000000000000000000000000000\n    /* \"#utility.yul\":157:158   */\n  0x00\n    /* \"#utility.yul\":150:238   */\n  mstore\n    /* \"#utility.yul\":257:261   */\n  0x41\n    /* \"#utility.yul\":254:255   */\n  0x04\n    /* \"#utility.yul\":247:262   */\n  mstore\n    /* \"#utility.yul\":281:285   */\n  0x24\n    /* \"#utility.yul\":278:279   */\n  0x00\n    /* \"#utility.yul\":271:286   */\n  revert\n    /* \"#utility.yul\":298:478   */\ntag_12:\n    /* \"#utility.yul\":346:423   */\n  0x4e487b7100000000000000000000000000000000000000000000000000000000\n    /* \"#utility.yul\":343:344   */\n  0x00\n    /* \"#utility.yul\":336:424   */\n  mstore\n    /* \"#utility.yul\":443:447   */\n  0x22\n    /* \"#utility.yul\":440:441   */\n  0x04\n    /* \"#utility.yul\":433:448   */\n  mstore\n    /* \"#utility.yul\":467:471   */\n  0x24\n    /* \"#utility.yul\":464:465   */\n  0x00\n    /* \"#utility.yul\":457:472   */\n  revert\n    /* \"#utility.yul\":484:804   */\ntag_13:\n    /* \"#utility.yul\":528:534   */\n  0x00\n    /* \"#utility.yul\":565:566   */\n  0x02\n    /* \"#utility.yul\":559:563   */\n  dup3\n    /* \"#utility.yul\":555:567   */\n  div\n    /* \"#utility.yul\":545:567   */\n  swap1\n  pop\n    /* \"#utility.yul\":612:613   */\n  0x01\n    /* \"#utility.yul\":606:610   */\n  dup3\n    /* \"#utility.yul\":602:614   */\n  and\n    /* \"#utility.yul\":633:651   */\n  dup1\n    /* \"#utility.yul\":623:704   */\n  tag_36\n  jumpi\n    /* \"#utility.yul\":689:693   */\n  0x7f\n    /* \"#utility.yul\":681:687   */\n  dup3\n    /* \"#utility.yul\":677:694   */\n  and\n    /* \"#utility.yul\":667:694   */\n  swap2\n  pop\n    /* \"#utility.yul\":623:704   */\ntag_36:\n    /* \"#utility.yul\":751:753   */\n  0x20\n    /* \"#utility.yul\":743:749   */\n  dup3\n    /* \"#utility.yul\":740:754   */\n  lt\n    /* \"#utility.yul\":720:738   */\n  dup2\n    /* \"#utility.yul\":717:755   */\n  sub\n    /* \"#utility.yul\":714:798   */\n  tag_37\n  jumpi\n    /* \"#utility.yul\":770:788   */\n  tag_38\n  tag_12\n  jump\t// in\ntag_38:\n    /* \"#utility.yul\":714:798   */\ntag_37:\n    /* \"#utility.yul\":535:804   */\n  pop\n    /* \"#utility.yul\":484:804   */\n  swap2\n  swap1\n  pop\n  jump\t// out\n    /* \"#utility.yul\":810:951   */\ntag_14:\n    /* \"#utility.yul\":859:863   */\n  0x00\n    /* \"#utility.yul\":882:885   */\n  dup2\n    /* \"#utility.yul\":874:885   */\n  swap1\n  pop\n    /* \"#utility.yul\":905:908   */\n  dup2\n    /* \"#utility.yul\":902:903   */\n  0x00\n    /* \"#utility.yul\":895:909   */\n  mstore\n    /* \"#utility.yul\":939:943   */\n  0x20\n    /* \"#utility.yul\":936:937   */\n  0x00\n    /* \"#utility.yul\":926:944   */\n  keccak256\n    /* \"#utility.yul\":918:944   */\n  swap1\n  pop\n    /* \"#utility.yul\":810:951   */\n  swap2\n  swap1\n  pop\n  jump\t// out\n    /* \"#utility.yul\":957:1050   */\ntag_15:\n    /* \"#utility.yul\":994:1000   */\n  0x00\n    /* \"#utility.yul\":1041:1043   */\n  0x20\n    /* \"#utility.yul\":1036:1038   */\n  0x1f\n    /* \"#utility.yul\":1029:1034   */\n  dup4\n    /* \"#utility.yul\":1025:1039   */\n  add\n    /* \"#utility.yul\":1021:1044   */\n  div\n    /* \"#utility.yul\":1011:1044   */\n  swap1\n  pop\n    /* \"#utility.yul\":957:1050   */\n  swap2\n  swap1\n  pop\n  jump\t// out\n    /* \"#utility.yul\":1056:1163   */\ntag_16:\n    /* \"#utility.yul\":1100:1108   */\n  0x00\n    /* \"#utility.yul\":1150:1155   */\n  dup3\n    /* \"#utility.yul\":1144:1148   */\n  dup3\n    /* \"#utility.yul\":1140:1156   */\n  shl\n    /* \"#utility.yul\":1119:1156   */\n  swap1\n  pop\n    /* \"#utility.yul\":1056:1163   */\n  swap3\n  swap2\n  pop\n  pop\n  jump\t// out\n    /* \"#utility.yul\":1169:1562   */\ntag_17:\n    /* \"#utility.yul\":1238:1244   */\n  0x00\n    /* \"#utility.yul\":1288:1289   */\n  0x08\n    /* \"#utility.yul\":1276:1286   */\n  dup4\n    /* \"#utility.yul\":1272:1290   */\n  mul\n    /* \"#utility.yul\":1311:1408   */\n  tag_43\n    /* \"#utility.yul\":1341:1407   */\n  0xffffffffffffffffffffffffffffffffffffffffffffffffffffffffffffffff\n    /* \"#utility.yul\":1330:1339   */\n  dup3\n    /* \"#utility.yul\":1311:1408   */\n  tag_16\n  jump\t// in\ntag_43:\n    /* \"#utility.yul\":1429:1468   */\n  tag_44\n    /* \"#utility.yul\":1459:1467   */\n  dup7\n    /* \"#utility.yul\":1448:1457   */\n  dup4\n    /* \"#utility.yul\":1429:1468   */\n  tag_16\n  jump\t// in\ntag_44:\n    /* \"#utility.yul\":1417:1468   */\n  swap6\n  pop\n    /* \"#utility.yul\":1501:1505   */\n  dup1\n    /* \"#utility.yul\":1497:1506   */\n  not\n    /* \"#utility.yul\":1490:1495   */\n  dup5\n    /* \"#utility.yul\":1486:1507   */\n  and\n    /* \"#utility.yul\":1477:1507   */\n  swap4\n  pop\n    /* \"#utility.yul\":1550:1554   */\n  dup1\n    /* \"#utility.yul\":1540:1548   */\n  dup7\n    /* \"#utility.yul\":1536:1555   */\n  and\n    /* \"#utility.yul\":1529:1534   */\n  dup5\n    /* \"#utility.yul\":1526:1556   */\n  or\n    /* \"#utility.yul\":1516:1556   */\n  swap3\n  pop\n    /* \"#utility.yul\":1245:1562   */\n  pop\n  pop\n    /* \"#utility.yul\":1169:1562   */\n  swap4\n  swap3\n  pop\n  pop\n  pop\n  jump\t// out\n    /* \"#utility.yul\":1568:1645   */\ntag_18:\n    /* \"#utility.yul\":1605:1612   */\n  0x00\n    /* \"#utility.yul\":1634:1639   */\n  dup2\n    /* \"#utility.yul\":1623:1639   */\n  swap1\n  pop\n    /* \"#utility.yul\":1568:1645   */\n  swap2\n  swap1\n  pop\n  jump\t// out\n    /* \"#utility.yul\":1651:1711   */\ntag_19:\n    /* \"#utility.yul\":1679:1682   */\n  0x00\n    /* \"#utility.yul\":1700:1705   */\n  dup2\n    /* \"#utility.yul\":1693:1705   */\n  swap1\n  pop\n    /* \"#utility.yul\":1651:1711   */\n  swap2\n  swap1\n  pop\n  jump\t// out\n    /* \"#utility.yul\":1717:1859   */\ntag_20:\n    /* \"#utility.yul\":1767:1776   */\n  0x00\n    /* \"#utility.yul\":1800:1853   */\n  tag_48\n    /* \"#utility.yul\":1818:1852   */\n  tag_49\n    /* \"#utility.yul\":1827:1851   */\n  tag_50\n    /* \"#utility.yul\":1845:1850   */\n  dup5\n    /* \"#utility.yul\":1827:1851   */\n  tag_18\n  jump\t// in\ntag_50:\n    /* \"#utility.yul\":1818:1852   */\n  tag_19\n  jump\t// in\ntag_49:\n    /* \"#utility.yul\":1800:1853   */\n  tag_18\n  jump\t// in\ntag_48:\n    /* \"#utility.yul\":1787:1853   */\n  swap1\n  pop\n    /* \"#utility.yul\":1717:1859   */\n  swap2\n  swap1\n  pop\n  jump\t// out\n    /* \"#utility.yul\":1865:1940   */\ntag_21:\n    /* \"#utility.yul\":1908:1911   */\n  0x00\n    /* \"#utility.yul\":1929:1934   */\n  dup2\n    /* \"#utility.yul\":1922:1934   */\n  swap1\n  pop\n    /* \"#utility.yul\":1865:1940   */\n  swap2\n  swap1\n  pop\n  jump\t// out\n    /* \"#utility.yul\":1946:2215   */\ntag_22:\n    /* \"#utility.yul\":2056:2095   */\n  tag_53\n    /* \"#utility.yul\":2087:2094   */\n  dup4\n    /* \"#utility.yul\":2056:2095   */\n  tag_20\n  jump\t// in\ntag_53:\n    /* \"#utility.yul\":2117:2208   */\n  tag_54\n    /* \"#utility.yul\":2166:2207   */\n  tag_55\n    /* \"#utility.yul\":2190:2206   */\n  dup3\n    /* \"#utility.yul\":2166:2207   */\n  tag_21\n  jump\t// in\ntag_55:\n    /* \"#utility.yul\":2158:2164   */\n  dup5\n    /* \"#utility.yul\":2151:2155   */\n  dup5\n    /* \"#utility.yul\":2145:2156   */\n  sload\n    /* \"#utility.yul\":2117:2208   */\n  tag_17\n  jump\t// in\ntag_54:\n    /* \"#utility.yul\":2111:2115   */\n  dup3\n    /* \"#utility.yul\":2104:2209   */\n  sstore\n    /* \"#utility.yul\":2022:2215   */\n  pop\n    /* \"#utility.yul\":1946:2215   */\n  pop\n  pop\n  pop\n  jump\t// out\n    /* \"#utility.yul\":2221:2294   */\ntag_23:\n    /* \"#utility.yul\":2266:2269   */\n  0x00\n    /* \"#utility.yul\":2221:2294   */\n  swap1\n  jump\t// out\n    /* \"#utility.yul\":2300:2489   */\ntag_24:\n    /* \"#utility.yul\":2377:2409   */\n  tag_58\n  tag_23\n  jump\t// in\ntag_58:\n    /* \"#utility.yul\":2418:2483   */\n  tag_59\n    /* \"#utility.yul\":2476:2482   */\n  dup2\n    /* \"#utility.yul\":2468:2474   */\n  dup5\n    /* \"#utility.yul\":2462:2466   */\n  dup5\n    /* \"#utility.yul\":2418:2483   */\n  tag_22\n  jump\t// in\ntag_59:\n    /* \"#utility.yul\":2353:2489   */\n  pop\n    /* \"#utility.yul\":2300:2489   */\n  pop\n  pop\n  jump\t// out\n    /* \"#utility.yul\":2495:2681   */\ntag_25:\n    /* \"#utility.yul\":2555:2675   */\ntag_61:\n    /* \"#utility.yul\":2572:2575   */\n  dup2\n    /* \"#utility.yul\":2565:2570   */\n  dup2\n    /* \"#utility.yul\":2562:2576   */\n  lt\n    /* \"#utility.yul\":2555:2675   */\n  iszero\n  tag_63\n  jumpi\n    /* \"#utility.yul\":2626:2665   */\n  tag_64\n    /* \"#utility.yul\":2663:2664   */\n  0x00\n    /* \"#utility.yul\":2656:2661   */\n  dup3\n    /* \"#utility.yul\":2626:2665   */\n  tag_24\n  jump\t// in\ntag_64:\n    /* \"#utility.yul\":2599:2600   */\n  0x01\n    /* \"#utility.yul\":2592:2597   */\n  dup2\n    /* \"#utility.yul\":2588:2601   */\n  add\n    /* \"#utility.yul\":2579:2601   */\n  swap1\n  pop\n    /* \"#utility.yul\":2555:2675   */\n  jump(tag_61)\ntag_63:\n    /* \"#utility.yul\":2495:2681   */\n  pop\n  pop\n  jump\t// out\n    /* \"#utility.yul\":2687:3230   */\ntag_26:\n    /* \"#utility.yul\":2788:2790   */\n  0x1f\n    /* \"#utility.yul\":2783:2786   */\n  dup3\n    /* \"#utility.yul\":2780:2791   */\n  gt\n    /* \"#utility.yul\":2777:3223   */\n  iszero\n  tag_66\n  jumpi\n    /* \"#utility.yul\":2822:2860   */\n  tag_67\n    /* \"#utility.yul\":2854:2859   */\n  dup2\n    /* \"#utility.yul\":2822:2860   */\n  tag_14\n  jump\t// in\ntag_67:\n    /* \"#utility.yul\":2906:2935   */\n  tag_68\n    /* \"#utility.yul\":2924:2934   */\n  dup5\n    /* \"#utility.yul\":2906:2935   */\n  tag_15\n  jump\t// in\ntag_68:\n    /* \"#utility.yul\":2896:2904   */\n  dup2\n    /* \"#utility.yul\":2892:2936   */\n  add\n    /* \"#utility.yul\":3089:3091   */\n  0x20\n    /* \"#utility.yul\":3077:3087   */\n  dup6\n    /* \"#utility.yul\":3074:3092   */\n  lt\n    /* \"#utility.yul\":3071:3120   */\n  iszero\n  tag_69\n  jumpi\n    /* \"#utility.yul\":3110:3118   */\n  dup2\n    /* \"#utility.yul\":3095:3118   */\n  swap1\n  pop\n    /* \"#utility.yul\":3071:3120   */\ntag_69:\n    /* \"#utility.yul\":3133:3213   */\n  tag_70\n    /* \"#utility.yul\":3189:3211   */\n  tag_71\n    /* \"#utility.yul\":3207:3210   */\n  dup6\n    /* \"#utility.yul\":3189:3211   */\n  tag_15\n  jump\t// in\ntag_71:\n    /* \"#utility.yul\":3179:3187   */\n  dup4\n    /* \"#utility.yul\":3175:3212   */\n  add\n    /* \"#utility.yul\":3162:3173   */\n  dup3\n    /* \"#utility.yul\":3133:3213   */\n  tag_25\n  jump\t// in\ntag_70:\n    /* \"#utility.yul\":2792:3223   */\n  pop\n  pop\n    /* \"#utility.yul\":2777:3223   */\ntag_66:\n    /* \"#utility.yul\":2687:3230   */\n  pop\n  pop\n  pop\n  jump\t// out\n    /* \"#utility.yul\":3236:3353   */\ntag_27:\n    /* \"#utility.yul\":3290:3298   */\n  0x00\n    /* \"#utility.yul\":3340:3345   */\n  dup3\n    /* \"#utility.yul\":3334:3338   */\n  dup3\n    /* \"#utility.yul\":3330:3346   */\n  shr\n    /* \"#utility.yul\":3309:3346   */\n  swap1\n  pop\n    /* \"#utility.yul\":3236:3353   */\n  swap3\n  swap2\n  pop\n  pop\n  jump\t// out\n    /* \"#utility.yul\":3359:3528   */\ntag_28:\n    /* \"#utility.yul\":3403:3409   */\n  0x00\n    /* \"#utility.yul\":3436:3487   */\n  tag_74\n    /* \"#utility.yul\":3484:3485   */\n  0x00\n    /* \"#utility.yul\":3480:3486   */\n  not\n    /* \"#utility.yul\":3472:3477   */\n  dup5\n    /* \"#utility.yul\":3469:3470   */\n  0x08\n    /* \"#utility.yul\":3465:3478   */\n  mul\n    /* \"#utility.yul\":3436:3487   */\n  tag_27\n  jump\t// in\ntag_74:\n    /* \"#utility.yul\":3432:3488   */\n  not\n    /* \"#utility.yul\":3517:3521   */\n  dup1\n    /* \"#utility.yul\":3511:3515   */\n  dup4\n    /* \"#utility.yul\":3507:3522   */\n  and\n    /* \"#utility.yul\":3497:3522   */\n  swap2\n  pop\n    /* \"#utility.yul\":3410:3528   */\n  pop\n    /* \"#utility.yul\":3359:3528   */\n  swap3\n  swap2\n  pop\n  pop\n  jump\t// out\n    /* \"#utility.yul\":3533:3828   */\ntag_29:\n    /* \"#utility.yul\":3609:3613   */\n  0x00\n    /* \"#utility.yul\":3755:3784   */\n  tag_76\n    /* \"#utility.yul\":3780:3783   */\n  dup4\n    /* \"#utility.yul\":3774:3778   */\n  dup4\n    /* \"#utility.yul\":3755:3784   */\n  tag_28\n  jump\t// in\ntag_76:\n    /* \"#utility.yul\":3747:3784   */\n  swap2\n  pop\n    /* \"#utility.yul\":3817:3820   */\n  dup3\n    /* \"#utility.yul\":3814:3815   */\n  0x02\n    /* \"#utility.yul\":3810:3821   */\n  mul\n    /* \"#utility.yul\":3804:3808   */\n  dup3\n    /* \"#utility.yul\":3801:3822   */\n  or\n    /* \"#utility.yul\":3793:3822   */\n  swap1\n  pop\n    /* \"#utility.yul\":3533:3828   */\n  swap3\n  swap2\n  pop\n  pop\n  jump\t// out\n    /* \"#utility.yul\":3833:5228   */\ntag_5:\n    /* \"#utility.yul\":3950:3987   */\n  tag_78\n    /* \"#utility.yul\":3983:3986   */\n  dup3\n    /* \"#utility.yul\":3950:3987   */\n  tag_10\n  jump\t// in\ntag_78:\n    /* \"#utility.yul\":4052:4070   */\n  0xffffffffffffffff\n    /* \"#utility.yul\":4044:4050   */\n  dup2\n    /* \"#utility.yul\":4041:4071   */\n  gt\n    /* \"#utility.yul\":4038:4094   */\n  iszero\n  tag_79\n  jumpi\n    /* \"#utility.yul\":4074:4092   */\n  tag_80\n  tag_11\n  jump\t// in\ntag_80:\n    /* \"#utility.yul\":4038:4094   */\ntag_79:\n    /* \"#utility.yul\":4118:4156   */\n  tag_81\n    /* \"#utility.yul\":4150:4154   */\n  dup3\n    /* \"#utility.yul\":4144:4155   */\n  sload\n    /* \"#utility.yul\":4118:4156   */\n  tag_13\n  jump\t// in\ntag_81:\n    /* \"#utility.yul\":4203:4270   */\n  tag_82\n    /* \"#utility.yul\":4263:4269   */\n  dup3\n    /* \"#utility.yul\":4255:4261   */\n  dup3\n    /* \"#utility.yul\":4249:4253   */\n  dup6\n    /* \"#utility.yul\":4203:4270   */\n  tag_26\n  jump\t// in\ntag_82:\n    /* \"#utility.yul\":4297:4298   */\n  0x00\n    /* \"#utility.yul\":4321:4325   */\n  0x20\n    /* \"#utility.yul\":4308:4325   */\n  swap1\n  pop\n    /* \"#utility.yul\":4353:4355   */\n  0x1f\n    /* \"#utility.yul\":4345:4351   */\n  dup4\n    /* \"#utility.yul\":4342:4356   */\n  gt\n    /* \"#utility.yul\":4370:4371   */\n  0x01\n    /* \"#utility.yul\":4365:4983   */\n  dup2\n  eq\n  tag_84\n  jumpi\n    /* \"#utility.yul\":5027:5028   */\n  0x00\n    /* \"#utility.yul\":5044:5050   */\n  dup5\n    /* \"#utility.yul\":5041:5118   */\n  iszero\n  tag_85\n  jumpi\n    /* \"#utility.yul\":5093:5102   */\n  dup3\n    /* \"#utility.yul\":5088:5091   */\n  dup8\n    /* \"#utility.yul\":5084:5103   */\n  add\n    /* \"#utility.yul\":5078:5104   */\n  mload\n    /* \"#utility.yul\":5069:5104   */\n  swap1\n  pop\n    /* \"#utility.yul\":5041:5118   */\ntag_85:\n    /* \"#utility.yul\":5144:5211   */\n  tag_86\n    /* \"#utility.yul\":5204:5210   */\n  dup6\n    /* \"#utility.yul\":5197:5202   */\n  dup3\n    /* \"#utility.yul\":5144:5211   */\n  tag_29\n  jump\t// in\ntag_86:\n    /* \"#utility.yul\":5138:5142   */\n  dup7\n    /* \"#utility.yul\":5131:5212   */\n  sstore\n    /* \"#utility.yul\":5000:5222   */\n  pop\n    /* \"#utility.yul\":4335:5222   */\n  jump(tag_83)\n    /* \"#utility.yul\":4365:4983   */\ntag_84:\n    /* \"#utility.yul\":4417:4421   */\n  0x1f\n    /* \"#utility.yul\":4413:4422   */\n  not\n    /* \"#utility.yul\":4405:4411   */\n  dup5\n    /* \"#utility.yul\":4401:4423   */\n  and\n    /* \"#utility.yul\":4451:4488   */\n  tag_87\n    /* \"#utility.yul\":4483:4487   */\n  dup7\n    /* \"#utility.yul\":4451:4488   */\n  tag_14\n  jump\t// in\ntag_87:\n    /* \"#utility.yul\":4510:4511   */\n  0x00\n    /* \"#utility.yul\":4524:4732   */\ntag_88:\n    /* \"#utility.yul\":4538:4545   */\n  dup3\n    /* \"#utility.yul\":4535:4536   */\n  dup2\n    /* \"#utility.yul\":4532:4546   */\n  lt\n    /* \"#utility.yul\":4524:4732   */\n  iszero\n  tag_90\n  jumpi\n    /* \"#utility.yul\":4617:4626   */\n  dup5\n    /* \"#utility.yul\":4612:4615   */\n  dup10\n    /* \"#utility.yul\":4608:4627   */\n  add\n    /* \"#utility.yul\":4602:4628   */\n  mload\n    /* \"#utility.yul\":4594:4600   */\n  dup3\n    /* \"#utility.yul\":4587:4629   */\n  sstore\n    /* \"#utility.yul\":4668:4669   */\n  0x01\n    /* \"#utility.yul\":4660:4666   */\n  dup3\n    /* \"#utility.yul\":4656:4670   */\n  add\n    /* \"#utility.yul\":4646:4670   */\n  swap2\n  pop\n    /* \"#utility.yul\":4715:4717   */\n  0x20\n    /* \"#utility.yul\":4704:4713   */\n  dup6\n    /* \"#utility.yul\":4700:4718   */\n  add\n    /* \"#utility.yul\":4687:4718   */\n  swap5\n  pop\n    /* \"#utility.yul\":4561:4565   */\n  0x20\n    /* \"#utility.yul\":4558:4559   */\n  dup2\n    /* \"#utility.yul\":4554:4566   */\n  add\n    /* \"#utility.yul\":4549:4566   */\n  swap1\n  pop\n    /* \"#utility.yul\":4524:4732   */\n  jump(tag_88)\ntag_90:\n    /* \"#utility.yul\":4760:4766   */\n  dup7\n    /* \"#utility.yul\":4751:4758   */\n  dup4\n    /* \"#utility.yul\":4748:4767   */\n  lt\n    /* \"#utility.yul\":4745:4924   */\n  iszero\n  tag_91\n  jumpi\n    /* \"#utility.yul\":4818:4827   */\n  dup5\n    /* \"#utility.yul\":4813:4816   */\n  dup10\n    /* \"#utility.yul\":4809:4828   */\n  add\n    /* \"#utility.yul\":4803:4829   */\n  mload\n    /* \"#utility.yul\":4861:4909   */\n  tag_92\n    /* \"#utility.yul\":4903:4907   */\n  0x1f\n    /* \"#utility.yul\":4895:4901   */\n  dup10\n    /* \"#utility.yul\":4891:4908   */\n  and\n    /* \"#utility.yul\":4880:4889   */\n  dup3\n    /* \"#utility.yul\":4861:4909   */\n  tag_28\n  jump\t// in\ntag_92:\n    /* \"#utility.yul\":4853:4859   */\n  dup4\n    /* \"#utility.yul\":4846:4910   */\n  sstore\n    /* \"#utility.yul\":4768:4924   */\n  pop\n    /* \"#utility.yul\":4745:4924   */\ntag_91:\n    /* \"#utility.yul\":4970:4971   */\n  0x01\n    /* \"#utility.yul\":4966:4967   */\n  0x02\n    /* \"#utility.yul\":4958:4964   */\n  dup9\n    /* \"#utility.yul\":4954:4968   */\n  mul\n    /* \"#utility.yul\":4950:4972   */\n  add\n    /* \"#utility.yul\":4944:4948   */\n  dup9\n    /* \"#utility.yul\":4937:4973   */\n  sstore\n    /* \"#utility.yul\":4372:4983   */\n  pop\n  pop\n  pop\n    /* \"#utility.yul\":4335:5222   */\ntag_83:\n  pop\n    /* \"#utility.yul\":3925:5228   */\n  pop\n  pop\n  pop\n    /* \"#utility.yul\":3833:5228   */\n  pop\n  pop\n  jump\t// out\n    /* \"#utility.yul\":5234:5352   */\ntag_30:\n    /* \"#utility.yul\":5321:5345   */\n  tag_94\n    /* \"#utility.yul\":5339:5344   */\n  dup2\n    /* \"#utility.yul\":5321:5345   */\n  tag_18\n  jump\t// in\ntag_94:\n    /* \"#utility.yul\":5316:5319   */\n  dup3\n    /* \"#utility.yul\":5309:5346   */\n  mstore\n    /* \"#utility.yul\":5234:5352   */\n  pop\n  pop\n  jump\t// out\n    /* \"#utility.yul\":5358:5580   */\ntag_8:\n    /* \"#utility.yul\":5451:5455   */\n  0x00\n    /* \"#utility.yul\":5489:5491   */\n  0x20\n    /* \"#utility.yul\":5478:5487   */\n  dup3\n    /* \"#utility.yul\":5474:5492   */\n  add\n    /* \"#utility.yul\":5466:5492   */\n  swap1\n  pop\n    /* \"#utility.yul\":5502:5573   */\n  tag_96\n    /* \"#utility.yul\":5570:5571   */\n  0x00\n    /* \"#utility.yul\":5559:5568   */\n  dup4\n    /* \"#utility.yul\":5555:5572   */\n  add\n    /* \"#utility.yul\":5546:5552   */\n  dup5\n    /* \"#utility.yul\":5502:5573   */\n  tag_30\n  jump\t// in\ntag_96:\n    /* \"#utility.yul\":5358:5580   */\n  swap3\n  swap2\n  pop\n  pop\n  jump\t// out\n    /* \"example_code.sol\":1864:7461  contract myToken is ERC20Interface, SafeMath{... */\ntag_9:\n  dataSize(sub_0)\n  dup1\n  dataOffset(sub_0)\n  0x00\n  codecopy\n  0x00\n  return\nstop\n\nsub_0: assembly {\n        /* \"example_code.sol\":1864:7461  contract myToken is ERC20Interface, SafeMath{... */\n      mstore(0x40, 0x80)\n      jumpi(tag_1, lt(calldatasize, 0x04))\n      shr(0xe0, calldataload(0x00))\n      dup1\n      0x773a1154\n      gt\n      tag_25\n      jumpi\n      dup1\n      0xd05c78da\n      gt\n      tag_26\n      jumpi\n      dup1\n      0xd05c78da\n      eq\n      tag_19\n      jumpi\n      dup1\n      0xdd62ed3e\n      eq\n      tag_20\n      jumpi\n      dup1\n      0xde5f72fd\n      eq\n      tag_21\n      jumpi\n      dup1\n      0xdfbf53ae\n      eq\n      tag_22\n      jumpi\n      dup1\n      0xe6cb9013\n      eq\n      tag_23\n      jumpi\n      dup1\n      0xefa1c482\n      eq\n      tag_24\n      jumpi\n      jump(tag_1)\n    tag_26:\n      dup1\n      0x773a1154\n      eq\n      tag_13\n      jumpi\n      dup1\n      0x8da5cb5b\n      eq\n      tag_14\n      jumpi\n      dup1\n      0x95d89b41\n      eq\n      tag_15\n      jumpi\n      dup1\n      0xa293d1e8\n      eq\n      tag_16\n      jumpi\n      dup1\n      0xa9059cbb\n      eq\n      tag_17\n      jumpi\n      dup1\n      0xb5931f7c\n      eq\n      tag_18\n      jumpi\n      jump(tag_1)\n    tag_25:\n      dup1\n      0x24b570a9\n      gt\n      tag_27\n      jumpi\n      dup1\n      0x24b570a9\n      eq\n      tag_7\n      jumpi\n      dup1\n      0x313ce567\n      eq\n      tag_8\n      jumpi\n      dup1\n      0x3eaaf86b\n      eq\n      tag_9\n      jumpi\n      dup1\n      0x5cbbd635\n      eq\n      tag_10\n      jumpi\n      dup1\n      0x6a11d04e\n      eq\n      tag_11\n      jumpi\n      dup1\n      0x70a08231\n      eq\n      tag_12\n      jumpi\n      jump(tag_1)\n    tag_27:\n      dup1\n      0x06fdde03\n      eq\n      tag_2\n      jumpi\n      dup1\n      0x095ea7b3\n      eq\n      tag_3\n      jumpi\n      dup1\n      0x0eecae21\n      eq\n      tag_4\n      jumpi\n      dup1\n      0x18160ddd\n      eq\n      tag_5\n      jumpi\n      dup1\n      0x23b872dd\n      eq\n      tag_6\n      jumpi\n    tag_1:\n      0x00\n      dup1\n      revert\n        /* \"example_code.sol\":1942:1960  string public name */\n    tag_2:\n      callvalue\n      dup1\n      iszero\n      tag_28\n      jumpi\n      0x00\n      dup1\n      revert\n    tag_28:\n      pop\n      tag_29\n      tag_30\n      jump\t// in\n    tag_29:\n      mload(0x40)\n      tag_31\n      swap2\n      swap1\n      tag_32\n      jump\t// in\n    tag_31:\n      mload(0x40)\n      dup1\n      swap2\n      sub\n      swap1\n      return\n        /* \"example_code.sol\":3405:3627  function approve(address spender, uint tokens) public override returns (bool success)... */\n    tag_3:\n      callvalue\n      dup1\n      iszero\n      tag_33\n      jumpi\n      0x00\n      dup1\n      revert\n    tag_33:\n      pop\n      tag_34\n      0x04\n      dup1\n      calldatasize\n      sub\n      dup2\n      add\n      swap1\n      tag_35\n      swap2\n      swap1\n      tag_36\n      jump\t// in\n    tag_35:\n      tag_37\n      jump\t// in\n    tag_34:\n      mload(0x40)\n      tag_38\n      swap2\n      swap1\n      tag_39\n      jump\t// in\n    tag_38:\n      mload(0x40)\n      dup1\n      swap2\n      sub\n      swap1\n      return\n        /* \"example_code.sol\":6074:7054  function draw() public onlyOwner {... */\n    tag_4:\n      callvalue\n      dup1\n      iszero\n      tag_40\n      jumpi\n      0x00\n      dup1\n      revert\n    tag_40:\n      pop\n      tag_41\n      tag_42\n      jump\t// in\n    tag_41:\n      stop\n        /* \"example_code.sol\":2607:2732  function totalSupply() public view override returns (uint)... */\n    tag_5:\n      callvalue\n      dup1\n      iszero\n      tag_43\n      jumpi\n      0x00\n      dup1\n      revert\n    tag_43:\n      pop\n      tag_44\n      tag_45\n      jump\t// in\n    tag_44:\n      mload(0x40)\n      tag_46\n      swap2\n      swap1\n      tag_47\n      jump\t// in\n    tag_46:\n      mload(0x40)\n      dup1\n      swap2\n      sub\n      swap1\n      return\n        /* \"example_code.sol\":3635:4007  function transferFrom(address from, address to, uint tokens) public override returns (bool success)... */\n    tag_6:\n      callvalue\n      dup1\n      iszero\n      tag_48\n      jumpi\n      0x00\n      dup1\n      revert\n    tag_48:\n      pop\n      tag_49\n      0x04\n      dup1\n      calldatasize\n      sub\n      dup2\n      add\n      swap1\n      tag_50\n      swap2\n      swap1\n      tag_51\n      jump\t// in\n    tag_50:\n      tag_52\n      jump\t// in\n    tag_49:\n      mload(0x40)\n      tag_53\n      swap2\n      swap1\n      tag_39\n      jump\t// in\n    tag_53:\n      mload(0x40)\n      dup1\n      swap2\n      sub\n      swap1\n      return\n        /* \"example_code.sol\":4823:4846  uint256 public totalPot */\n    tag_7:\n      callvalue\n      dup1\n      iszero\n      tag_54\n      jumpi\n      0x00\n      dup1\n      revert\n    tag_54:\n      pop\n      tag_55\n      tag_56\n      jump\t// in\n    tag_55:\n      mload(0x40)\n      tag_57\n      swap2\n      swap1\n      tag_47\n      jump\t// in\n    tag_57:\n      mload(0x40)\n      dup1\n      swap2\n      sub\n      swap1\n      return\n        /* \"example_code.sol\":1994:2015  uint8 public decimals */\n    tag_8:\n      callvalue\n      dup1\n      iszero\n      tag_58\n      jumpi\n      0x00\n      dup1\n      revert\n    tag_58:\n      pop\n      tag_59\n      tag_60\n      jump\t// in\n    tag_59:\n      mload(0x40)\n      tag_61\n      swap2\n      swap1\n      tag_62\n      jump\t// in\n    tag_61:\n      mload(0x40)\n      dup1\n      swap2\n      sub\n      swap1\n      return\n        /* \"example_code.sol\":2022:2049  uint256 public _totalSupply */\n    tag_9:\n      callvalue\n      dup1\n      iszero\n      tag_63\n      jumpi\n      0x00\n      dup1\n      revert\n    tag_63:\n      pop\n      tag_64\n      tag_65\n      jump\t// in\n    tag_64:\n      mload(0x40)\n      tag_66\n      swap2\n      swap1\n      tag_47\n      jump\t// in\n    tag_66:\n      mload(0x40)\n      dup1\n      swap2\n      sub\n      swap1\n      return\n        /* \"example_code.sol\":4910:4937  uint256 public lastDrawTime */\n    tag_10:\n      callvalue\n      dup1\n      iszero\n      tag_67\n      jumpi\n      0x00\n      dup1\n      revert\n    tag_67:\n      pop\n      tag_68\n      tag_69\n      jump\t// in\n    tag_68:\n      mload(0x40)\n      tag_70\n      swap2\n      swap1\n      tag_47\n      jump\t// in\n    tag_70:\n      mload(0x40)\n      dup1\n      swap2\n      sub\n      swap1\n      return\n        /* \"example_code.sol\":5488:6002  function betLottery() public payable {... */\n    tag_11:\n      tag_71\n      tag_72\n      jump\t// in\n    tag_71:\n      stop\n        /* \"example_code.sol\":2740:2874  function balanceOf(address tokenOwner) public view override returns (uint balance)... */\n    tag_12:\n      callvalue\n      dup1\n      iszero\n      tag_73\n      jumpi\n      0x00\n      dup1\n      revert\n    tag_73:\n      pop\n      tag_74\n      0x04\n      dup1\n      calldatasize\n      sub\n      dup2\n      add\n      swap1\n      tag_75\n      swap2\n      swap1\n      tag_76\n      jump\t// in\n    tag_75:\n      tag_77\n      jump\t// in\n    tag_74:\n      mload(0x40)\n      tag_78\n      swap2\n      swap1\n      tag_47\n      jump\t// in\n    tag_78:\n      mload(0x40)\n      dup1\n      swap2\n      sub\n      swap1\n      return\n        /* \"example_code.sol\":5208:5425  function generateRandomNumber() public view returns (uint256) {... */\n    tag_13:\n      callvalue\n      dup1\n      iszero\n      tag_79\n      jumpi\n      0x00\n      dup1\n      revert\n    tag_79:\n      pop\n      tag_80\n      tag_81\n      jump\t// in\n    tag_80:\n      mload(0x40)\n      tag_82\n      swap2\n      swap1\n      tag_47\n      jump\t// in\n    tag_82:\n      mload(0x40)\n      dup1\n      swap2\n      sub\n      swap1\n      return\n        /* \"example_code.sol\":2214:2234  address public owner */\n    tag_14:\n      callvalue\n      dup1\n      iszero\n      tag_83\n      jumpi\n      0x00\n      dup1\n      revert\n    tag_83:\n      pop\n      tag_84\n      tag_85\n      jump\t// in\n    tag_84:\n      mload(0x40)\n      tag_86\n      swap2\n      swap1\n      tag_87\n      jump\t// in\n    tag_86:\n      mload(0x40)\n      dup1\n      swap2\n      sub\n      swap1\n      return\n        /* \"example_code.sol\":1967:1987  string public symbol */\n    tag_15:\n      callvalue\n      dup1\n      iszero\n      tag_88\n      jumpi\n      0x00\n      dup1\n      revert\n    tag_88:\n      pop\n      tag_89\n      tag_90\n      jump\t// in\n    tag_89:\n      mload(0x40)\n      tag_91\n      swap2\n      swap1\n      tag_32\n      jump\t// in\n    tag_91:\n      mload(0x40)\n      dup1\n      swap2\n      sub\n      swap1\n      return\n        /* \"example_code.sol\":1300:1438  function safeSub(uint a, uint b) public pure returns (uint c) {... */\n    tag_16:\n      callvalue\n      dup1\n      iszero\n      tag_92\n      jumpi\n      0x00\n      dup1\n      revert\n    tag_92:\n      pop\n      tag_93\n      0x04\n      dup1\n      calldatasize\n      sub\n      dup2\n      add\n      swap1\n      tag_94\n      swap2\n      swap1\n      tag_95\n      jump\t// in\n    tag_94:\n      tag_96\n      jump\t// in\n    tag_93:\n      mload(0x40)\n      tag_97\n      swap2\n      swap1\n      tag_47\n      jump\t// in\n    tag_97:\n      mload(0x40)\n      dup1\n      swap2\n      sub\n      swap1\n      return\n        /* \"example_code.sol\":2882:3228  function transfer(address to, uint tokens) public override returns (bool success)... */\n    tag_17:\n      callvalue\n      dup1\n      iszero\n      tag_98\n      jumpi\n      0x00\n      dup1\n      revert\n    tag_98:\n      pop\n      tag_99\n      0x04\n      dup1\n      calldatasize\n      sub\n      dup2\n      add\n      swap1\n      tag_100\n      swap2\n      swap1\n      tag_36\n      jump\t// in\n    tag_100:\n      tag_101\n      jump\t// in\n    tag_99:\n      mload(0x40)\n      tag_102\n      swap2\n      swap1\n      tag_39\n      jump\t// in\n    tag_102:\n      mload(0x40)\n      dup1\n      swap2\n      sub\n      swap1\n      return\n        /* \"example_code.sol\":1578:1693  function safeDiv(uint a, uint b) public pure returns (uint c) {... */\n    tag_18:\n      callvalue\n      dup1\n      iszero\n      tag_103\n      jumpi\n      0x00\n      dup1\n      revert\n    tag_103:\n      pop\n      tag_104\n      0x04\n      dup1\n      calldatasize\n      sub\n      dup2\n      add\n      swap1\n      tag_105\n      swap2\n      swap1\n      tag_95\n      jump\t// in\n    tag_105:\n      tag_106\n      jump\t// in\n    tag_104:\n      mload(0x40)\n      tag_107\n      swap2\n      swap1\n      tag_47\n      jump\t// in\n    tag_107:\n      mload(0x40)\n      dup1\n      swap2\n      sub\n      swap1\n      return\n        /* \"example_code.sol\":1446:1570  function safeMul(uint a, uint b) public pure returns (uint c) {... */\n    tag_19:\n      callvalue\n      dup1\n      iszero\n      tag_108\n      jumpi\n      0x00\n      dup1\n      revert\n    tag_108:\n      pop\n      tag_109\n      0x04\n      dup1\n      calldatasize\n      sub\n      dup2\n      add\n      swap1\n      tag_110\n      swap2\n      swap1\n      tag_95\n      jump\t// in\n    tag_110:\n      tag_111\n      jump\t// in\n    tag_109:\n      mload(0x40)\n      tag_112\n      swap2\n      swap1\n      tag_47\n      jump\t// in\n    tag_112:\n      mload(0x40)\n      dup1\n      swap2\n      sub\n      swap1\n      return\n        /* \"example_code.sol\":3236:3397  function allowance(address tokenOwner, address spender) public view override returns (uint remaining)... */\n    tag_20:\n      callvalue\n      dup1\n      iszero\n      tag_113\n      jumpi\n      0x00\n      dup1\n      revert\n    tag_113:\n      pop\n      tag_114\n      0x04\n      dup1\n      calldatasize\n      sub\n      dup2\n      add\n      swap1\n      tag_115\n      swap2\n      swap1\n      tag_116\n      jump\t// in\n    tag_115:\n      tag_117\n      jump\t// in\n    tag_114:\n      mload(0x40)\n      tag_118\n      swap2\n      swap1\n      tag_47\n      jump\t// in\n    tag_118:\n      mload(0x40)\n      dup1\n      swap2\n      sub\n      swap1\n      return\n        /* \"example_code.sol\":4015:4615  function faucet() public {... */\n    tag_21:\n      callvalue\n      dup1\n      iszero\n      tag_119\n      jumpi\n      0x00\n      dup1\n      revert\n    tag_119:\n      pop\n      tag_120\n      tag_121\n      jump\t// in\n    tag_120:\n      stop\n        /* \"example_code.sol\":4678:4707  address payable public winner */\n    tag_22:\n      callvalue\n      dup1\n      iszero\n      tag_122\n      jumpi\n      0x00\n      dup1\n      revert\n    tag_122:\n      pop\n      tag_123\n      tag_124\n      jump\t// in\n    tag_123:\n      mload(0x40)\n      tag_125\n      swap2\n      swap1\n      tag_126\n      jump\t// in\n    tag_125:\n      mload(0x40)\n      dup1\n      swap2\n      sub\n      swap1\n      return\n        /* \"example_code.sol\":1175:1292  function safeAdd (uint a, uint b) public pure returns (uint c) {... */\n    tag_23:\n      callvalue\n      dup1\n      iszero\n      tag_127\n      jumpi\n      0x00\n      dup1\n      revert\n    tag_127:\n      pop\n      tag_128\n      0x04\n      dup1\n      calldatasize\n      sub\n      dup2\n      add\n      swap1\n      tag_129\n      swap2\n      swap1\n      tag_95\n      jump\t// in\n    tag_129:\n      tag_130\n      jump\t// in\n    tag_128:\n      mload(0x40)\n      tag_131\n      swap2\n      swap1\n      tag_47\n      jump\t// in\n    tag_131:\n      mload(0x40)\n      dup1\n      swap2\n      sub\n      swap1\n      return\n        /* \"example_code.sol\":7146:7454  function getAllPlayers() public view returns (address payable[] memory) {... */\n    tag_24:\n      callvalue\n      dup1\n      iszero\n      tag_132\n      jumpi\n      0x00\n      dup1\n      revert\n    tag_132:\n      pop\n      tag_133\n      tag_134\n      jump\t// in\n    tag_133:\n      mload(0x40)\n      tag_135\n      swap2\n      swap1\n      tag_136\n      jump\t// in\n    tag_135:\n      mload(0x40)\n      dup1\n      swap2\n      sub\n      swap1\n      return\n        /* \"example_code.sol\":1942:1960  string public name */\n    tag_30:\n      0x00\n      dup1\n      sload\n      tag_137\n      swap1\n      tag_138\n      jump\t// in\n    tag_137:\n      dup1\n      0x1f\n      add\n      0x20\n      dup1\n      swap2\n      div\n      mul\n      0x20\n      add\n      mload(0x40)\n      swap1\n      dup2\n      add\n      0x40\n      mstore\n      dup1\n      swap3\n      swap2\n      swap1\n      dup2\n      dup2\n      mstore\n      0x20\n      add\n      dup3\n      dup1\n      sload\n      tag_139\n      swap1\n      tag_138\n      jump\t// in\n    tag_139:\n      dup1\n      iszero\n      tag_140\n      jumpi\n      dup1\n      0x1f\n      lt\n      tag_141\n      jumpi\n      0x0100\n      dup1\n      dup4\n      sload\n      div\n      mul\n      dup4\n      mstore\n      swap2\n      0x20\n      add\n      swap2\n      jump(tag_140)\n    tag_141:\n      dup3\n      add\n      swap2\n      swap1\n      0x00\n      mstore\n      keccak256(0x00, 0x20)\n      swap1\n    tag_142:\n      dup2\n      sload\n      dup2\n      mstore\n      swap1\n      0x01\n      add\n      swap1\n      0x20\n      add\n      dup1\n      dup4\n      gt\n      tag_142\n      jumpi\n      dup3\n      swap1\n      sub\n      0x1f\n      and\n      dup3\n      add\n      swap2\n    tag_140:\n      pop\n      pop\n      pop\n      pop\n      pop\n      dup2\n      jump\t// out\n        /* \"example_code.sol\":3405:3627  function approve(address spender, uint tokens) public override returns (bool success)... */\n    tag_37:\n        /* \"example_code.sol\":3477:3489  bool success */\n      0x00\n        /* \"example_code.sol\":3538:3544  tokens */\n      dup2\n        /* \"example_code.sol\":3507:3514  allowed */\n      0x05\n        /* \"example_code.sol\":3507:3526  allowed[msg.sender] */\n      0x00\n        /* \"example_code.sol\":3515:3525  msg.sender */\n      caller\n        /* \"example_code.sol\":3507:3526  allowed[msg.sender] */\n      0xffffffffffffffffffffffffffffffffffffffff\n      and\n      0xffffffffffffffffffffffffffffffffffffffff\n      and\n      dup2\n      mstore\n      0x20\n      add\n      swap1\n      dup2\n      mstore\n      0x20\n      add\n      0x00\n      keccak256\n        /* \"example_code.sol\":3507:3535  allowed[msg.sender][spender] */\n      0x00\n        /* \"example_code.sol\":3527:3534  spender */\n      dup6\n        /* \"example_code.sol\":3507:3535  allowed[msg.sender][spender] */\n      0xffffffffffffffffffffffffffffffffffffffff\n      and\n      0xffffffffffffffffffffffffffffffffffffffff\n      and\n      dup2\n      mstore\n      0x20\n      add\n      swap1\n      dup2\n      mstore\n      0x20\n      add\n      0x00\n      keccak256\n        /* \"example_code.sol\":3507:3544  allowed[msg.sender][spender] = tokens */\n      dup2\n      swap1\n      sstore\n      pop\n        /* \"example_code.sol\":3581:3588  spender */\n      dup3\n        /* \"example_code.sol\":3560:3597  Approval(msg.sender, spender, tokens) */\n      0xffffffffffffffffffffffffffffffffffffffff\n      and\n        /* \"example_code.sol\":3569:3579  msg.sender */\n      caller\n        /* \"example_code.sol\":3560:3597  Approval(msg.sender, spender, tokens) */\n      0xffffffffffffffffffffffffffffffffffffffff\n      and\n      0x8c5be1e5ebec7d5bd14f71427d1e84f3dd0314c0f7b2291e5b200ac8c7c3b925\n        /* \"example_code.sol\":3590:3596  tokens */\n      dup5\n        /* \"example_code.sol\":3560:3597  Approval(msg.sender, spender, tokens) */\n      mload(0x40)\n      tag_144\n      swap2\n      swap1\n      tag_47\n      jump\t// in\n    tag_144:\n      mload(0x40)\n      dup1\n      swap2\n      sub\n      swap1\n      log3\n        /* \"example_code.sol\":3615:3619  true */\n      0x01\n        /* \"example_code.sol\":3608:3619  return true */\n      swap1\n      pop\n        /* \"example_code.sol\":3405:3627  function approve(address spender, uint tokens) public override returns (bool success)... */\n      swap3\n      swap2\n      pop\n      pop\n      jump\t// out\n        /* \"example_code.sol\":6074:7054  function draw() public onlyOwner {... */\n    tag_42:\n        /* \"example_code.sol\":5063:5068  owner */\n      0x07\n      0x00\n      swap1\n      sload\n      swap1\n      0x0100\n      exp\n      swap1\n      div\n      0xffffffffffffffffffffffffffffffffffffffff\n      and\n        /* \"example_code.sol\":5049:5068  msg.sender == owner */\n      0xffffffffffffffffffffffffffffffffffffffff\n      and\n        /* \"example_code.sol\":5049:5059  msg.sender */\n      caller\n        /* \"example_code.sol\":5049:5068  msg.sender == owner */\n      0xffffffffffffffffffffffffffffffffffffffff\n      and\n      eq\n        /* \"example_code.sol\":5041:5069  require(msg.sender == owner) */\n      tag_146\n      jumpi\n      0x00\n      dup1\n      revert\n    tag_146:\n        /* \"example_code.sol\":6143:6144  0 */\n      0x00\n        /* \"example_code.sol\":6126:6133  players */\n      0x09\n        /* \"example_code.sol\":6126:6140  players.length */\n      dup1\n      sload\n      swap1\n      pop\n        /* \"example_code.sol\":6126:6144  players.length > 0 */\n      gt\n        /* \"example_code.sol\":6118:6190  require(players.length > 0, \"At least one lottery ticket must be sold.\") */\n      tag_148\n      jumpi\n      mload(0x40)\n      0x08c379a000000000000000000000000000000000000000000000000000000000\n      dup2\n      mstore\n      0x04\n      add\n      tag_149\n      swap1\n      tag_150\n      jump\t// in\n    tag_149:\n      mload(0x40)\n      dup1\n      swap2\n      sub\n      swap1\n      revert\n    tag_148:\n        /* \"example_code.sol\":6242:6245  180 */\n      0xb4\n        /* \"example_code.sol\":6227:6239  lastDrawTime */\n      sload(0x0b)\n        /* \"example_code.sol\":6227:6245  lastDrawTime + 180 */\n      tag_151\n      swap2\n      swap1\n      tag_152\n      jump\t// in\n    tag_151:\n        /* \"example_code.sol\":6209:6224  block.timestamp */\n      timestamp\n        /* \"example_code.sol\":6209:6245  block.timestamp > lastDrawTime + 180 */\n      gt\n        /* \"example_code.sol\":6201:6329  require(block.timestamp > lastDrawTime + 180, \"The banker cannot call the draw function within 3 minutes of the previous draw.\") */\n      tag_153\n      jumpi\n      mload(0x40)\n      0x08c379a000000000000000000000000000000000000000000000000000000000\n      dup2\n      mstore\n      0x04\n      add\n      tag_154\n      swap1\n      tag_155\n      jump\t// in\n    tag_154:\n      mload(0x40)\n      dup1\n      swap2\n      sub\n      swap1\n      revert\n    tag_153:\n        /* \"example_code.sol\":6340:6360  uint256 randomNumber */\n      0x00\n        /* \"example_code.sol\":6363:6385  generateRandomNumber() */\n      tag_156\n        /* \"example_code.sol\":6363:6383  generateRandomNumber */\n      tag_81\n        /* \"example_code.sol\":6363:6385  generateRandomNumber() */\n      jump\t// in\n    tag_156:\n        /* \"example_code.sol\":6340:6385  uint256 randomNumber = generateRandomNumber() */\n      swap1\n      pop\n        /* \"example_code.sol\":6396:6409  uint256 index */\n      0x00\n        /* \"example_code.sol\":6427:6434  players */\n      0x09\n        /* \"example_code.sol\":6427:6441  players.length */\n      dup1\n      sload\n      swap1\n      pop\n        /* \"example_code.sol\":6412:6424  randomNumber */\n      dup3\n        /* \"example_code.sol\":6412:6441  randomNumber % players.length */\n      tag_157\n      swap2\n      swap1\n      tag_158\n      jump\t// in\n    tag_157:\n        /* \"example_code.sol\":6396:6441  uint256 index = randomNumber % players.length */\n      swap1\n      pop\n        /* \"example_code.sol\":6461:6468  players */\n      0x09\n        /* \"example_code.sol\":6469:6474  index */\n      dup2\n        /* \"example_code.sol\":6461:6475  players[index] */\n      dup2\n      sload\n      dup2\n      lt\n      tag_159\n      jumpi\n      tag_160\n      tag_161\n      jump\t// in\n    tag_160:\n    tag_159:\n      swap1\n      0x00\n      mstore\n      keccak256(0x00, 0x20)\n      add\n      0x00\n      swap1\n      sload\n      swap1\n      0x0100\n      exp\n      swap1\n      div\n      0xffffffffffffffffffffffffffffffffffffffff\n      and\n        /* \"example_code.sol\":6452:6458  winner */\n      0x08\n      0x00\n        /* \"example_code.sol\":6452:6475  winner = players[index] */\n      0x0100\n      exp\n      dup2\n      sload\n      dup2\n      0xffffffffffffffffffffffffffffffffffffffff\n      mul\n      not\n      and\n      swap1\n      dup4\n      0xffffffffffffffffffffffffffffffffffffffff\n      and\n      mul\n      or\n      swap1\n      sstore\n      pop\n        /* \"example_code.sol\":6486:6499  uint256 bonus */\n      0x00\n        /* \"example_code.sol\":6519:6521  10 */\n      0x0a\n        /* \"example_code.sol\":6514:6515  9 */\n      0x09\n        /* \"example_code.sol\":6503:6511  totalPot */\n      sload(0x0a)\n        /* \"example_code.sol\":6503:6515  totalPot * 9 */\n      tag_163\n      swap2\n      swap1\n      tag_164\n      jump\t// in\n    tag_163:\n        /* \"example_code.sol\":6502:6521  (totalPot * 9) / 10 */\n      tag_165\n      swap2\n      swap1\n      tag_166\n      jump\t// in\n    tag_165:\n        /* \"example_code.sol\":6486:6521  uint256 bonus = (totalPot * 9) / 10 */\n      swap1\n      pop\n        /* \"example_code.sol\":6550:6584  safeAdd(balances[owner], totalPot) */\n      tag_167\n        /* \"example_code.sol\":6558:6566  balances */\n      0x04\n        /* \"example_code.sol\":6558:6573  balances[owner] */\n      0x00\n        /* \"example_code.sol\":6567:6572  owner */\n      0x07\n      0x00\n      swap1\n      sload\n      swap1\n      0x0100\n      exp\n      swap1\n      div\n      0xffffffffffffffffffffffffffffffffffffffff\n      and\n        /* \"example_code.sol\":6558:6573  balances[owner] */\n      0xffffffffffffffffffffffffffffffffffffffff\n      and\n      0xffffffffffffffffffffffffffffffffffffffff\n      and\n      dup2\n      mstore\n      0x20\n      add\n      swap1\n      dup2\n      mstore\n      0x20\n      add\n      0x00\n      keccak256\n      sload\n        /* \"example_code.sol\":6575:6583  totalPot */\n      sload(0x0a)\n        /* \"example_code.sol\":6550:6557  safeAdd */\n      tag_130\n        /* \"example_code.sol\":6550:6584  safeAdd(balances[owner], totalPot) */\n      jump\t// in\n    tag_167:\n        /* \"example_code.sol\":6532:6540  balances */\n      0x04\n        /* \"example_code.sol\":6532:6547  balances[owner] */\n      0x00\n        /* \"example_code.sol\":6541:6546  owner */\n      0x07\n      0x00\n      swap1\n      sload\n      swap1\n      0x0100\n      exp\n      swap1\n      div\n      0xffffffffffffffffffffffffffffffffffffffff\n      and\n        /* \"example_code.sol\":6532:6547  balances[owner] */\n      0xffffffffffffffffffffffffffffffffffffffff\n      and\n      0xffffffffffffffffffffffffffffffffffffffff\n      and\n      dup2\n      mstore\n      0x20\n      add\n      swap1\n      dup2\n      mstore\n      0x20\n      add\n      0x00\n      keccak256\n        /* \"example_code.sol\":6532:6584  balances[owner] = safeAdd(balances[owner], totalPot) */\n      dup2\n      swap1\n      sstore\n      pop\n        /* \"example_code.sol\":6848:6849  0 */\n      0x00\n        /* \"example_code.sol\":6837:6845  totalPot */\n      0x0a\n        /* \"example_code.sol\":6837:6849  totalPot = 0 */\n      dup2\n      swap1\n      sstore\n      pop\n        /* \"example_code.sol\":6860:6894  transferFrom(owner, winner, bonus) */\n      tag_168\n        /* \"example_code.sol\":6873:6878  owner */\n      0x07\n      0x00\n      swap1\n      sload\n      swap1\n      0x0100\n      exp\n      swap1\n      div\n      0xffffffffffffffffffffffffffffffffffffffff\n      and\n        /* \"example_code.sol\":6880:6886  winner */\n      0x08\n      0x00\n      swap1\n      sload\n      swap1\n      0x0100\n      exp\n      swap1\n      div\n      0xffffffffffffffffffffffffffffffffffffffff\n      and\n        /* \"example_code.sol\":6888:6893  bonus */\n      dup4\n        /* \"example_code.sol\":6860:6872  transferFrom */\n      tag_52\n        /* \"example_code.sol\":6860:6894  transferFrom(owner, winner, bonus) */\n      jump\t// in\n    tag_168:\n      pop\n        /* \"example_code.sol\":6991:6997  winner */\n      0x08\n      0x00\n      swap1\n      sload\n      swap1\n      0x0100\n      exp\n      swap1\n      div\n      0xffffffffffffffffffffffffffffffffffffffff\n      and\n        /* \"example_code.sol\":6978:7005  LotteryDrawn(winner, bonus) */\n      0xffffffffffffffffffffffffffffffffffffffff\n      and\n      0xe270ee2f324e081c14957e0abdb70aa14e5aacd0466ac05a9a1e89982cdb5326\n        /* \"example_code.sol\":6999:7004  bonus */\n      dup3\n        /* \"example_code.sol\":6978:7005  LotteryDrawn(winner, bonus) */\n      mload(0x40)\n      tag_169\n      swap2\n      swap1\n      tag_47\n      jump\t// in\n    tag_169:\n      mload(0x40)\n      dup1\n      swap2\n      sub\n      swap1\n      log2\n        /* \"example_code.sol\":7031:7046  block.timestamp */\n      timestamp\n        /* \"example_code.sol\":7016:7028  lastDrawTime */\n      0x0b\n        /* \"example_code.sol\":7016:7046  lastDrawTime = block.timestamp */\n      dup2\n      swap1\n      sstore\n      pop\n        /* \"example_code.sol\":6107:7054  {... */\n      pop\n      pop\n      pop\n        /* \"example_code.sol\":6074:7054  function draw() public onlyOwner {... */\n      jump\t// out\n        /* \"example_code.sol\":2607:2732  function totalSupply() public view override returns (uint)... */\n    tag_45:\n        /* \"example_code.sol\":2660:2664  uint */\n      0x00\n        /* \"example_code.sol\":2704:2712  balances */\n      0x04\n        /* \"example_code.sol\":2704:2724  balances[address(0)] */\n      0x00\n        /* \"example_code.sol\":2721:2722  0 */\n      dup1\n        /* \"example_code.sol\":2704:2724  balances[address(0)] */\n      0xffffffffffffffffffffffffffffffffffffffff\n      and\n      0xffffffffffffffffffffffffffffffffffffffff\n      and\n      dup2\n      mstore\n      0x20\n      add\n      swap1\n      dup2\n      mstore\n      0x20\n      add\n      0x00\n      keccak256\n      sload\n        /* \"example_code.sol\":2689:2701  _totalSupply */\n      sload(0x03)\n        /* \"example_code.sol\":2689:2724  _totalSupply - balances[address(0)] */\n      tag_171\n      swap2\n      swap1\n      tag_172\n      jump\t// in\n    tag_171:\n        /* \"example_code.sol\":2682:2724  return _totalSupply - balances[address(0)] */\n      swap1\n      pop\n        /* \"example_code.sol\":2607:2732  function totalSupply() public view override returns (uint)... */\n      swap1\n      jump\t// out\n        /* \"example_code.sol\":3635:4007  function transferFrom(address from, address to, uint tokens) public override returns (bool success)... */\n    tag_52:\n        /* \"example_code.sol\":3721:3733  bool success */\n      0x00\n        /* \"example_code.sol\":3768:3799  safeSub(balances[from], tokens) */\n      tag_174\n        /* \"example_code.sol\":3776:3784  balances */\n      0x04\n        /* \"example_code.sol\":3776:3790  balances[from] */\n      0x00\n        /* \"example_code.sol\":3785:3789  from */\n      dup7\n        /* \"example_code.sol\":3776:3790  balances[from] */\n      0xffffffffffffffffffffffffffffffffffffffff\n      and\n      0xffffffffffffffffffffffffffffffffffffffff\n      and\n      dup2\n      mstore\n      0x20\n      add\n      swap1\n      dup2\n      mstore\n      0x20\n      add\n      0x00\n      keccak256\n      sload\n        /* \"example_code.sol\":3792:3798  tokens */\n      dup4\n        /* \"example_code.sol\":3768:3775  safeSub */\n      tag_96\n        /* \"example_code.sol\":3768:3799  safeSub(balances[from], tokens) */\n      jump\t// in\n    tag_174:\n        /* \"example_code.sol\":3751:3759  balances */\n      0x04\n        /* \"example_code.sol\":3751:3765  balances[from] */\n      0x00\n        /* \"example_code.sol\":3760:3764  from */\n      dup7\n        /* \"example_code.sol\":3751:3765  balances[from] */\n      0xffffffffffffffffffffffffffffffffffffffff\n      and\n      0xffffffffffffffffffffffffffffffffffffffff\n      and\n      dup2\n      mstore\n      0x20\n      add\n      swap1\n      dup2\n      mstore\n      0x20\n      add\n      0x00\n      keccak256\n        /* \"example_code.sol\":3751:3799  balances[from] = safeSub(balances[from], tokens) */\n      dup2\n      swap1\n      sstore\n      pop\n        /* \"example_code.sol\":3838:3880  safeSub(allowed[from][msg.sender], tokens) */\n      tag_175\n        /* \"example_code.sol\":3846:3853  allowed */\n      0x05\n        /* \"example_code.sol\":3846:3859  allowed[from] */\n      0x00\n        /* \"example_code.sol\":3854:3858  from */\n      dup7\n        /* \"example_code.sol\":3846:3859  allowed[from] */\n      0xffffffffffffffffffffffffffffffffffffffff\n      and\n      0xffffffffffffffffffffffffffffffffffffffff\n      and\n      dup2\n      mstore\n      0x20\n      add\n      swap1\n      dup2\n      mstore\n      0x20\n      add\n      0x00\n      keccak256\n        /* \"example_code.sol\":3846:3871  allowed[from][msg.sender] */\n      0x00\n        /* \"example_code.sol\":3860:3870  msg.sender */\n      caller\n        /* \"example_code.sol\":3846:3871  allowed[from][msg.sender] */\n      0xffffffffffffffffffffffffffffffffffffffff\n      and\n      0xffffffffffffffffffffffffffffffffffffffff\n      and\n      dup2\n      mstore\n      0x20\n      add\n      swap1\n      dup2\n      mstore\n      0x20\n      add\n      0x00\n      keccak256\n      sload\n        /* \"example_code.sol\":3873:3879  tokens */\n      dup4\n        /* \"example_code.sol\":3838:3845  safeSub */\n      tag_96\n        /* \"example_code.sol\":3838:3880  safeSub(allowed[from][msg.sender], tokens) */\n      jump\t// in\n    tag_175:\n        /* \"example_code.sol\":3810:3817  allowed */\n      0x05\n        /* \"example_code.sol\":3810:3823  allowed[from] */\n      0x00\n        /* \"example_code.sol\":3818:3822  from */\n      dup7\n        /* \"example_code.sol\":3810:3823  allowed[from] */\n      0xffffffffffffffffffffffffffffffffffffffff\n      and\n      0xffffffffffffffffffffffffffffffffffffffff\n      and\n      dup2\n      mstore\n      0x20\n      add\n      swap1\n      dup2\n      mstore\n      0x20\n      add\n      0x00\n      keccak256\n        /* \"example_code.sol\":3810:3835  allowed[from][msg.sender] */\n      0x00\n        /* \"example_code.sol\":3824:3834  msg.sender */\n      caller\n        /* \"example_code.sol\":3810:3835  allowed[from][msg.sender] */\n      0xffffffffffffffffffffffffffffffffffffffff\n      and\n      0xffffffffffffffffffffffffffffffffffffffff\n      and\n      dup2\n      mstore\n      0x20\n      add\n      swap1\n      dup2\n      mstore\n      0x20\n      add\n      0x00\n      keccak256\n        /* \"example_code.sol\":3810:3880  allowed[from][msg.sender] = safeSub(allowed[from][msg.sender], tokens) */\n      dup2\n      swap1\n      sstore\n      pop\n        /* \"example_code.sol\":3906:3935  safeAdd(balances[to], tokens) */\n      tag_176\n        /* \"example_code.sol\":3914:3922  balances */\n      0x04\n        /* \"example_code.sol\":3914:3926  balances[to] */\n      0x00\n        /* \"example_code.sol\":3923:3925  to */\n      dup6\n        /* \"example_code.sol\":3914:3926  balances[to] */\n      0xffffffffffffffffffffffffffffffffffffffff\n      and\n      0xffffffffffffffffffffffffffffffffffffffff\n      and\n      dup2\n      mstore\n      0x20\n      add\n      swap1\n      dup2\n      mstore\n      0x20\n      add\n      0x00\n      keccak256\n      sload\n        /* \"example_code.sol\":3928:3934  tokens */\n      dup4\n        /* \"example_code.sol\":3906:3913  safeAdd */\n      tag_130\n        /* \"example_code.sol\":3906:3935  safeAdd(balances[to], tokens) */\n      jump\t// in\n    tag_176:\n        /* \"example_code.sol\":3891:3899  balances */\n      0x04\n        /* \"example_code.sol\":3891:3903  balances[to] */\n      0x00\n        /* \"example_code.sol\":3900:3902  to */\n      dup6\n        /* \"example_code.sol\":3891:3903  balances[to] */\n      0xffffffffffffffffffffffffffffffffffffffff\n      and\n      0xffffffffffffffffffffffffffffffffffffffff\n      and\n      dup2\n      mstore\n      0x20\n      add\n      swap1\n      dup2\n      mstore\n      0x20\n      add\n      0x00\n      keccak256\n        /* \"example_code.sol\":3891:3935  balances[to] = safeAdd(balances[to], tokens) */\n      dup2\n      swap1\n      sstore\n      pop\n        /* \"example_code.sol\":3966:3968  to */\n      dup3\n        /* \"example_code.sol\":3951:3977  Transfer(from, to, tokens) */\n      0xffffffffffffffffffffffffffffffffffffffff\n      and\n        /* \"example_code.sol\":3960:3964  from */\n      dup5\n        /* \"example_code.sol\":3951:3977  Transfer(from, to, tokens) */\n      0xffffffffffffffffffffffffffffffffffffffff\n      and\n      0xddf252ad1be2c89b69c2b068fc378daa952ba7f163c4a11628f55a4df523b3ef\n        /* \"example_code.sol\":3970:3976  tokens */\n      dup5\n        /* \"example_code.sol\":3951:3977  Transfer(from, to, tokens) */\n      mload(0x40)\n      tag_177\n      swap2\n      swap1\n      tag_47\n      jump\t// in\n    tag_177:\n      mload(0x40)\n      dup1\n      swap2\n      sub\n      swap1\n      log3\n        /* \"example_code.sol\":3995:3999  true */\n      0x01\n        /* \"example_code.sol\":3988:3999  return true */\n      swap1\n      pop\n        /* \"example_code.sol\":3635:4007  function transferFrom(address from, address to, uint tokens) public override returns (bool success)... */\n      swap4\n      swap3\n      pop\n      pop\n      pop\n      jump\t// out\n        /* \"example_code.sol\":4823:4846  uint256 public totalPot */\n    tag_56:\n      sload(0x0a)\n      dup2\n      jump\t// out\n        /* \"example_code.sol\":1994:2015  uint8 public decimals */\n    tag_60:\n      0x02\n      0x00\n      swap1\n      sload\n      swap1\n      0x0100\n      exp\n      swap1\n      div\n      0xff\n      and\n      dup2\n      jump\t// out\n        /* \"example_code.sol\":2022:2049  uint256 public _totalSupply */\n    tag_65:\n      sload(0x03)\n      dup2\n      jump\t// out\n        /* \"example_code.sol\":4910:4937  uint256 public lastDrawTime */\n    tag_69:\n      sload(0x0b)\n      dup2\n      jump\t// out\n        /* \"example_code.sol\":5488:6002  function betLottery() public payable {... */\n    tag_72:\n        /* \"example_code.sol\":5558:5563  owner */\n      0x07\n      0x00\n      swap1\n      sload\n      swap1\n      0x0100\n      exp\n      swap1\n      div\n      0xffffffffffffffffffffffffffffffffffffffff\n      and\n        /* \"example_code.sol\":5544:5563  msg.sender != owner */\n      0xffffffffffffffffffffffffffffffffffffffff\n      and\n        /* \"example_code.sol\":5544:5554  msg.sender */\n      caller\n        /* \"example_code.sol\":5544:5563  msg.sender != owner */\n      0xffffffffffffffffffffffffffffffffffffffff\n      and\n      sub\n        /* \"example_code.sol\":5536:5612  require(msg.sender != owner, \"The owner cannot participate in the lottery.\") */\n      tag_179\n      jumpi\n      mload(0x40)\n      0x08c379a000000000000000000000000000000000000000000000000000000000\n      dup2\n      mstore\n      0x04\n      add\n      tag_180\n      swap1\n      tag_181\n      jump\t// in\n    tag_180:\n      mload(0x40)\n      dup1\n      swap2\n      sub\n      swap1\n      revert\n    tag_179:\n        /* \"example_code.sol\":5655:5658  100 */\n      0x64\n        /* \"example_code.sol\":5631:5639  balances */\n      0x04\n        /* \"example_code.sol\":5631:5651  balances[msg.sender] */\n      0x00\n        /* \"example_code.sol\":5640:5650  msg.sender */\n      caller\n        /* \"example_code.sol\":5631:5651  balances[msg.sender] */\n      0xffffffffffffffffffffffffffffffffffffffff\n      and\n      0xffffffffffffffffffffffffffffffffffffffff\n      and\n      dup2\n      mstore\n      0x20\n      add\n      swap1\n      dup2\n      mstore\n      0x20\n      add\n      0x00\n      keccak256\n      sload\n        /* \"example_code.sol\":5631:5658  balances[msg.sender] >= 100 */\n      lt\n      iszero\n        /* \"example_code.sol\":5623:5699  require(balances[msg.sender] >= 100, \"The bet amount should be 100 tokens.\") */\n      tag_182\n      jumpi\n      mload(0x40)\n      0x08c379a000000000000000000000000000000000000000000000000000000000\n      dup2\n      mstore\n      0x04\n      add\n      tag_183\n      swap1\n      tag_184\n      jump\t// in\n    tag_183:\n      mload(0x40)\n      dup1\n      swap2\n      sub\n      swap1\n      revert\n    tag_182:\n        /* \"example_code.sol\":5734:5737  500 */\n      0x01f4\n        /* \"example_code.sol\":5718:5730  _totalSupply */\n      sload(0x03)\n        /* \"example_code.sol\":5718:5737  _totalSupply >= 500 */\n      lt\n      iszero\n        /* \"example_code.sol\":5710:5771  require(_totalSupply >= 500, \"Not enough token for lottery.\") */\n      tag_185\n      jumpi\n      mload(0x40)\n      0x08c379a000000000000000000000000000000000000000000000000000000000\n      dup2\n      mstore\n      0x04\n      add\n      tag_186\n      swap1\n      tag_187\n      jump\t// in\n    tag_186:\n      mload(0x40)\n      dup1\n      swap2\n      sub\n      swap1\n      revert\n    tag_185:\n        /* \"example_code.sol\":5808:5820  _totalSupply */\n      sload(0x03)\n        /* \"example_code.sol\":5801:5804  100 */\n      0x64\n        /* \"example_code.sol\":5790:5798  totalPot */\n      sload(0x0a)\n        /* \"example_code.sol\":5790:5804  totalPot + 100 */\n      tag_188\n      swap2\n      swap1\n      tag_152\n      jump\t// in\n    tag_188:\n        /* \"example_code.sol\":5790:5820  totalPot + 100 <= _totalSupply */\n      gt\n      iszero\n        /* \"example_code.sol\":5782:5856  require(totalPot + 100 <= _totalSupply, \"Total pot exceeds token supply.\") */\n      tag_189\n      jumpi\n      mload(0x40)\n      0x08c379a000000000000000000000000000000000000000000000000000000000\n      dup2\n      mstore\n      0x04\n      add\n      tag_190\n      swap1\n      tag_191\n      jump\t// in\n    tag_190:\n      mload(0x40)\n      dup1\n      swap2\n      sub\n      swap1\n      revert\n    tag_189:\n        /* \"example_code.sol\":5890:5924  safeSub(balances[msg.sender], 100) */\n      tag_192\n        /* \"example_code.sol\":5898:5906  balances */\n      0x04\n        /* \"example_code.sol\":5898:5918  balances[msg.sender] */\n      0x00\n        /* \"example_code.sol\":5907:5917  msg.sender */\n      caller\n        /* \"example_code.sol\":5898:5918  balances[msg.sender] */\n      0xffffffffffffffffffffffffffffffffffffffff\n      and\n      0xffffffffffffffffffffffffffffffffffffffff\n      and\n      dup2\n      mstore\n      0x20\n      add\n      swap1\n      dup2\n      mstore\n      0x20\n      add\n      0x00\n      keccak256\n      sload\n        /* \"example_code.sol\":5920:5923  100 */\n      0x64\n        /* \"example_code.sol\":5890:5897  safeSub */\n      tag_96\n        /* \"example_code.sol\":5890:5924  safeSub(balances[msg.sender], 100) */\n      jump\t// in\n    tag_192:\n        /* \"example_code.sol\":5867:5875  balances */\n      0x04\n        /* \"example_code.sol\":5867:5887  balances[msg.sender] */\n      0x00\n        /* \"example_code.sol\":5876:5886  msg.sender */\n      caller\n        /* \"example_code.sol\":5867:5887  balances[msg.sender] */\n      0xffffffffffffffffffffffffffffffffffffffff\n      and\n      0xffffffffffffffffffffffffffffffffffffffff\n      and\n      dup2\n      mstore\n      0x20\n      add\n      swap1\n      dup2\n      mstore\n      0x20\n      add\n      0x00\n      keccak256\n        /* \"example_code.sol\":5867:5924  balances[msg.sender] = safeSub(balances[msg.sender], 100) */\n      dup2\n      swap1\n      sstore\n      pop\n        /* \"example_code.sol\":5935:5942  players */\n      0x09\n        /* \"example_code.sol\":5956:5966  msg.sender */\n      caller\n        /* \"example_code.sol\":5935:5968  players.push(payable(msg.sender)) */\n      swap1\n      dup1\n      0x01\n      dup2\n      sload\n      add\n      dup1\n      dup3\n      sstore\n      dup1\n      swap2\n      pop\n      pop\n      0x01\n      swap1\n      sub\n      swap1\n      0x00\n      mstore\n      keccak256(0x00, 0x20)\n      add\n      0x00\n      swap1\n      swap2\n      swap1\n      swap2\n      swap1\n      swap2\n      0x0100\n      exp\n      dup2\n      sload\n      dup2\n      0xffffffffffffffffffffffffffffffffffffffff\n      mul\n      not\n      and\n      swap1\n      dup4\n      0xffffffffffffffffffffffffffffffffffffffff\n      and\n      mul\n      or\n      swap1\n      sstore\n      pop\n        /* \"example_code.sol\":5991:5994  100 */\n      0x64\n        /* \"example_code.sol\":5979:5987  totalPot */\n      0x0a\n      0x00\n        /* \"example_code.sol\":5979:5994  totalPot += 100 */\n      dup3\n      dup3\n      sload\n      tag_194\n      swap2\n      swap1\n      tag_152\n      jump\t// in\n    tag_194:\n      swap3\n      pop\n      pop\n      dup2\n      swap1\n      sstore\n      pop\n        /* \"example_code.sol\":5488:6002  function betLottery() public payable {... */\n      jump\t// out\n        /* \"example_code.sol\":2740:2874  function balanceOf(address tokenOwner) public view override returns (uint balance)... */\n    tag_77:\n        /* \"example_code.sol\":2809:2821  uint balance */\n      0x00\n        /* \"example_code.sol\":2846:2854  balances */\n      0x04\n        /* \"example_code.sol\":2846:2866  balances[tokenOwner] */\n      0x00\n        /* \"example_code.sol\":2855:2865  tokenOwner */\n      dup4\n        /* \"example_code.sol\":2846:2866  balances[tokenOwner] */\n      0xffffffffffffffffffffffffffffffffffffffff\n      and\n      0xffffffffffffffffffffffffffffffffffffffff\n      and\n      dup2\n      mstore\n      0x20\n      add\n      swap1\n      dup2\n      mstore\n      0x20\n      add\n      0x00\n      keccak256\n      sload\n        /* \"example_code.sol\":2839:2866  return balances[tokenOwner] */\n      swap1\n      pop\n        /* \"example_code.sol\":2740:2874  function balanceOf(address tokenOwner) public view override returns (uint balance)... */\n      swap2\n      swap1\n      pop\n      jump\t// out\n        /* \"example_code.sol\":5208:5425  function generateRandomNumber() public view returns (uint256) {... */\n    tag_81:\n        /* \"example_code.sol\":5261:5268  uint256 */\n      0x00\n        /* \"example_code.sol\":5281:5301  uint256 randomNumber */\n      dup1\n        /* \"example_code.sol\":5339:5354  block.timestamp */\n      timestamp\n        /* \"example_code.sol\":5356:5372  block.difficulty */\n      prevrandao\n        /* \"example_code.sol\":5374:5384  msg.sender */\n      caller\n        /* \"example_code.sol\":5322:5385  abi.encodePacked(block.timestamp, block.difficulty, msg.sender) */\n      add(0x20, mload(0x40))\n      tag_197\n      swap4\n      swap3\n      swap2\n      swap1\n      tag_198\n      jump\t// in\n    tag_197:\n      mload(0x40)\n      0x20\n      dup2\n      dup4\n      sub\n      sub\n      dup2\n      mstore\n      swap1\n      0x40\n      mstore\n        /* \"example_code.sol\":5312:5386  keccak256(abi.encodePacked(block.timestamp, block.difficulty, msg.sender)) */\n      dup1\n      mload\n      swap1\n      0x20\n      add\n      keccak256\n        /* \"example_code.sol\":5304:5387  uint256(keccak256(abi.encodePacked(block.timestamp, block.difficulty, msg.sender))) */\n      0x00\n      shr\n        /* \"example_code.sol\":5281:5387  uint256 randomNumber = uint256(keccak256(abi.encodePacked(block.timestamp, block.difficulty, msg.sender))) */\n      swap1\n      pop\n        /* \"example_code.sol\":5405:5417  randomNumber */\n      dup1\n        /* \"example_code.sol\":5398:5417  return randomNumber */\n      swap2\n      pop\n      pop\n        /* \"example_code.sol\":5208:5425  function generateRandomNumber() public view returns (uint256) {... */\n      swap1\n      jump\t// out\n        /* \"example_code.sol\":2214:2234  address public owner */\n    tag_85:\n      0x07\n      0x00\n      swap1\n      sload\n      swap1\n      0x0100\n      exp\n      swap1\n      div\n      0xffffffffffffffffffffffffffffffffffffffff\n      and\n      dup2\n      jump\t// out\n        /* \"example_code.sol\":1967:1987  string public symbol */\n    tag_90:\n      0x01\n      dup1\n      sload\n      tag_199\n      swap1\n      tag_138\n      jump\t// in\n    tag_199:\n      dup1\n      0x1f\n      add\n      0x20\n      dup1\n      swap2\n      div\n      mul\n      0x20\n      add\n      mload(0x40)\n      swap1\n      dup2\n      add\n      0x40\n      mstore\n      dup1\n      swap3\n      swap2\n      swap1\n      dup2\n      dup2\n      mstore\n      0x20\n      add\n      dup3\n      dup1\n      sload\n      tag_200\n      swap1\n      tag_138\n      jump\t// in\n    tag_200:\n      dup1\n      iszero\n      tag_201\n      jumpi\n      dup1\n      0x1f\n      lt\n      tag_202\n      jumpi\n      0x0100\n      dup1\n      dup4\n      sload\n      div\n      mul\n      dup4\n      mstore\n      swap2\n      0x20\n      add\n      swap2\n      jump(tag_201)\n    tag_202:\n      dup3\n      add\n      swap2\n      swap1\n      0x00\n      mstore\n      keccak256(0x00, 0x20)\n      swap1\n    tag_203:\n      dup2\n      sload\n      dup2\n      mstore\n      swap1\n      0x01\n      add\n      swap1\n      0x20\n      add\n      dup1\n      dup4\n      gt\n      tag_203\n      jumpi\n      dup3\n      swap1\n      sub\n      0x1f\n      and\n      dup3\n      add\n      swap2\n    tag_201:\n      pop\n      pop\n      pop\n      pop\n      pop\n      dup2\n      jump\t// out\n        /* \"example_code.sol\":1300:1438  function safeSub(uint a, uint b) public pure returns (uint c) {... */\n    tag_96:\n        /* \"example_code.sol\":1354:1360  uint c */\n      0x00\n        /* \"example_code.sol\":1386:1387  a */\n      dup3\n        /* \"example_code.sol\":1381:1382  b */\n      dup3\n        /* \"example_code.sol\":1381:1387  b <= a */\n      gt\n      iszero\n        /* \"example_code.sol\":1373:1410  require(b <= a, \"Invalid operation!\") */\n      tag_205\n      jumpi\n      mload(0x40)\n      0x08c379a000000000000000000000000000000000000000000000000000000000\n      dup2\n      mstore\n      0x04\n      add\n      tag_206\n      swap1\n      tag_207\n      jump\t// in\n    tag_206:\n      mload(0x40)\n      dup1\n      swap2\n      sub\n      swap1\n      revert\n    tag_205:\n        /* \"example_code.sol\":1429:1430  b */\n      dup2\n        /* \"example_code.sol\":1425:1426  a */\n      dup4\n        /* \"example_code.sol\":1425:1430  a - b */\n      tag_208\n      swap2\n      swap1\n      tag_172\n      jump\t// in\n    tag_208:\n        /* \"example_code.sol\":1421:1430  c = a - b */\n      swap1\n      pop\n        /* \"example_code.sol\":1300:1438  function safeSub(uint a, uint b) public pure returns (uint c) {... */\n      swap3\n      swap2\n      pop\n      pop\n      jump\t// out\n        /* \"example_code.sol\":2882:3228  function transfer(address to, uint tokens) public override returns (bool success)... */\n    tag_101:\n        /* \"example_code.sol\":2950:2962  bool success */\n      0x00\n        /* \"example_code.sol\":3003:3040  safeSub(balances[msg.sender], tokens) */\n      tag_210\n        /* \"example_code.sol\":3011:3019  balances */\n      0x04\n        /* \"example_code.sol\":3011:3031  balances[msg.sender] */\n      0x00\n        /* \"example_code.sol\":3020:3030  msg.sender */\n      caller\n        /* \"example_code.sol\":3011:3031  balances[msg.sender] */\n      0xffffffffffffffffffffffffffffffffffffffff\n      and\n      0xffffffffffffffffffffffffffffffffffffffff\n      and\n      dup2\n      mstore\n      0x20\n      add\n      swap1\n      dup2\n      mstore\n      0x20\n      add\n      0x00\n      keccak256\n      sload\n        /* \"example_code.sol\":3033:3039  tokens */\n      dup4\n        /* \"example_code.sol\":3003:3010  safeSub */\n      tag_96\n        /* \"example_code.sol\":3003:3040  safeSub(balances[msg.sender], tokens) */\n      jump\t// in\n    tag_210:\n        /* \"example_code.sol\":2980:2988  balances */\n      0x04\n        /* \"example_code.sol\":2980:3000  balances[msg.sender] */\n      0x00\n        /* \"example_code.sol\":2989:2999  msg.sender */\n      caller\n        /* \"example_code.sol\":2980:3000  balances[msg.sender] */\n      0xffffffffffffffffffffffffffffffffffffffff\n      and\n      0xffffffffffffffffffffffffffffffffffffffff\n      and\n      dup2\n      mstore\n      0x20\n      add\n      swap1\n      dup2\n      mstore\n      0x20\n      add\n      0x00\n      keccak256\n        /* \"example_code.sol\":2980:3040  balances[msg.sender] = safeSub(balances[msg.sender], tokens) */\n      dup2\n      swap1\n      sstore\n      pop\n        /* \"example_code.sol\":3066:3095  safeAdd(balances[to], tokens) */\n      tag_211\n        /* \"example_code.sol\":3074:3082  balances */\n      0x04\n        /* \"example_code.sol\":3074:3086  balances[to] */\n      0x00\n        /* \"example_code.sol\":3083:3085  to */\n      dup6\n        /* \"example_code.sol\":3074:3086  balances[to] */\n      0xffffffffffffffffffffffffffffffffffffffff\n      and\n      0xffffffffffffffffffffffffffffffffffffffff\n      and\n      dup2\n      mstore\n      0x20\n      add\n      swap1\n      dup2\n      mstore\n      0x20\n      add\n      0x00\n      keccak256\n      sload\n        /* \"example_code.sol\":3088:3094  tokens */\n      dup4\n        /* \"example_code.sol\":3066:3073  safeAdd */\n      tag_130\n        /* \"example_code.sol\":3066:3095  safeAdd(balances[to], tokens) */\n      jump\t// in\n    tag_211:\n        /* \"example_code.sol\":3051:3059  balances */\n      0x04\n        /* \"example_code.sol\":3051:3063  balances[to] */\n      0x00\n        /* \"example_code.sol\":3060:3062  to */\n      dup6\n        /* \"example_code.sol\":3051:3063  balances[to] */\n      0xffffffffffffffffffffffffffffffffffffffff\n      and\n      0xffffffffffffffffffffffffffffffffffffffff\n      and\n      dup2\n      mstore\n      0x20\n      add\n      swap1\n      dup2\n      mstore\n      0x20\n      add\n      0x00\n      keccak256\n        /* \"example_code.sol\":3051:3095  balances[to] = safeAdd(balances[to], tokens) */\n      dup2\n      swap1\n      sstore\n      pop\n        /* \"example_code.sol\":3121:3150  safeSub(_totalSupply, tokens) */\n      tag_212\n        /* \"example_code.sol\":3129:3141  _totalSupply */\n      sload(0x03)\n        /* \"example_code.sol\":3143:3149  tokens */\n      dup4\n        /* \"example_code.sol\":3121:3128  safeSub */\n      tag_96\n        /* \"example_code.sol\":3121:3150  safeSub(_totalSupply, tokens) */\n      jump\t// in\n    tag_212:\n        /* \"example_code.sol\":3106:3118  _totalSupply */\n      0x03\n        /* \"example_code.sol\":3106:3150  _totalSupply = safeSub(_totalSupply, tokens) */\n      dup2\n      swap1\n      sstore\n      pop\n        /* \"example_code.sol\":3187:3189  to */\n      dup3\n        /* \"example_code.sol\":3166:3198  Transfer(msg.sender, to, tokens) */\n      0xffffffffffffffffffffffffffffffffffffffff\n      and\n        /* \"example_code.sol\":3175:3185  msg.sender */\n      caller\n        /* \"example_code.sol\":3166:3198  Transfer(msg.sender, to, tokens) */\n      0xffffffffffffffffffffffffffffffffffffffff\n      and\n      0xddf252ad1be2c89b69c2b068fc378daa952ba7f163c4a11628f55a4df523b3ef\n        /* \"example_code.sol\":3191:3197  tokens */\n      dup5\n        /* \"example_code.sol\":3166:3198  Transfer(msg.sender, to, tokens) */\n      mload(0x40)\n      tag_213\n      swap2\n      swap1\n      tag_47\n      jump\t// in\n    tag_213:\n      mload(0x40)\n      dup1\n      swap2\n      sub\n      swap1\n      log3\n        /* \"example_code.sol\":3216:3220  true */\n      0x01\n        /* \"example_code.sol\":3209:3220  return true */\n      swap1\n      pop\n        /* \"example_code.sol\":2882:3228  function transfer(address to, uint tokens) public override returns (bool success)... */\n      swap3\n      swap2\n      pop\n      pop\n      jump\t// out\n        /* \"example_code.sol\":1578:1693  function safeDiv(uint a, uint b) public pure returns (uint c) {... */\n    tag_106:\n        /* \"example_code.sol\":1632:1638  uint c */\n      0x00\n        /* \"example_code.sol\":1663:1664  0 */\n      dup1\n        /* \"example_code.sol\":1659:1660  b */\n      dup3\n        /* \"example_code.sol\":1659:1664  b > 0 */\n      gt\n        /* \"example_code.sol\":1651:1665  require(b > 0) */\n      tag_215\n      jumpi\n      0x00\n      dup1\n      revert\n    tag_215:\n        /* \"example_code.sol\":1684:1685  b */\n      dup2\n        /* \"example_code.sol\":1680:1681  a */\n      dup4\n        /* \"example_code.sol\":1680:1685  a / b */\n      tag_216\n      swap2\n      swap1\n      tag_166\n      jump\t// in\n    tag_216:\n        /* \"example_code.sol\":1676:1685  c = a / b */\n      swap1\n      pop\n        /* \"example_code.sol\":1578:1693  function safeDiv(uint a, uint b) public pure returns (uint c) {... */\n      swap3\n      swap2\n      pop\n      pop\n      jump\t// out\n        /* \"example_code.sol\":1446:1570  function safeMul(uint a, uint b) public pure returns (uint c) {... */\n    tag_111:\n        /* \"example_code.sol\":1500:1506  uint c */\n      0x00\n        /* \"example_code.sol\":1527:1528  b */\n      dup2\n        /* \"example_code.sol\":1523:1524  a */\n      dup4\n        /* \"example_code.sol\":1523:1528  a * b */\n      tag_218\n      swap2\n      swap1\n      tag_164\n      jump\t// in\n    tag_218:\n        /* \"example_code.sol\":1519:1528  c = a * b */\n      swap1\n      pop\n        /* \"example_code.sol\":1550:1551  0 */\n      0x00\n        /* \"example_code.sol\":1547:1548  a */\n      dup4\n        /* \"example_code.sol\":1547:1551  a==0 */\n      eq\n        /* \"example_code.sol\":1547:1561  a==0 || c/a==b */\n      dup1\n      tag_219\n      jumpi\n      pop\n        /* \"example_code.sol\":1560:1561  b */\n      dup2\n        /* \"example_code.sol\":1557:1558  a */\n      dup4\n        /* \"example_code.sol\":1555:1556  c */\n      dup3\n        /* \"example_code.sol\":1555:1558  c/a */\n      tag_220\n      swap2\n      swap1\n      tag_166\n      jump\t// in\n    tag_220:\n        /* \"example_code.sol\":1555:1561  c/a==b */\n      eq\n        /* \"example_code.sol\":1547:1561  a==0 || c/a==b */\n    tag_219:\n        /* \"example_code.sol\":1539:1562  require(a==0 || c/a==b) */\n      tag_221\n      jumpi\n      0x00\n      dup1\n      revert\n    tag_221:\n        /* \"example_code.sol\":1446:1570  function safeMul(uint a, uint b) public pure returns (uint c) {... */\n      swap3\n      swap2\n      pop\n      pop\n      jump\t// out\n        /* \"example_code.sol\":3236:3397  function allowance(address tokenOwner, address spender) public view override returns (uint remaining)... */\n    tag_117:\n        /* \"example_code.sol\":3322:3336  uint remaining */\n      0x00\n        /* \"example_code.sol\":3361:3368  allowed */\n      0x05\n        /* \"example_code.sol\":3361:3380  allowed[tokenOwner] */\n      0x00\n        /* \"example_code.sol\":3369:3379  tokenOwner */\n      dup5\n        /* \"example_code.sol\":3361:3380  allowed[tokenOwner] */\n      0xffffffffffffffffffffffffffffffffffffffff\n      and\n      0xffffffffffffffffffffffffffffffffffffffff\n      and\n      dup2\n      mstore\n      0x20\n      add\n      swap1\n      dup2\n      mstore\n      0x20\n      add\n      0x00\n      keccak256\n        /* \"example_code.sol\":3361:3389  allowed[tokenOwner][spender] */\n      0x00\n        /* \"example_code.sol\":3381:3388  spender */\n      dup4\n        /* \"example_code.sol\":3361:3389  allowed[tokenOwner][spender] */\n      0xffffffffffffffffffffffffffffffffffffffff\n      and\n      0xffffffffffffffffffffffffffffffffffffffff\n      and\n      dup2\n      mstore\n      0x20\n      add\n      swap1\n      dup2\n      mstore\n      0x20\n      add\n      0x00\n      keccak256\n      sload\n        /* \"example_code.sol\":3354:3389  return allowed[tokenOwner][spender] */\n      swap1\n      pop\n        /* \"example_code.sol\":3236:3397  function allowance(address tokenOwner, address spender) public view override returns (uint remaining)... */\n      swap3\n      swap2\n      pop\n      pop\n      jump\t// out\n        /* \"example_code.sol\":4015:4615  function faucet() public {... */\n    tag_121:\n        /* \"example_code.sol\":4073:4078  owner */\n      0x07\n      0x00\n      swap1\n      sload\n      swap1\n      0x0100\n      exp\n      swap1\n      div\n      0xffffffffffffffffffffffffffffffffffffffff\n      and\n        /* \"example_code.sol\":4059:4078  msg.sender != owner */\n      0xffffffffffffffffffffffffffffffffffffffff\n      and\n        /* \"example_code.sol\":4059:4069  msg.sender */\n      caller\n        /* \"example_code.sol\":4059:4078  msg.sender != owner */\n      0xffffffffffffffffffffffffffffffffffffffff\n      and\n      sub\n        /* \"example_code.sol\":4051:4123  require(msg.sender != owner, \"Contract owner cannot claim from faucet.\") */\n      tag_224\n      jumpi\n      mload(0x40)\n      0x08c379a000000000000000000000000000000000000000000000000000000000\n      dup2\n      mstore\n      0x04\n      add\n      tag_225\n      swap1\n      tag_226\n      jump\t// in\n    tag_225:\n      mload(0x40)\n      dup1\n      swap2\n      sub\n      swap1\n      revert\n    tag_224:\n        /* \"example_code.sol\":4184:4199  block.timestamp */\n      timestamp\n        /* \"example_code.sol\":4171:4181  30 seconds */\n      0x1e\n        /* \"example_code.sol\":4142:4156  lastFaucetTime */\n      0x06\n        /* \"example_code.sol\":4142:4168  lastFaucetTime[msg.sender] */\n      0x00\n        /* \"example_code.sol\":4157:4167  msg.sender */\n      caller\n        /* \"example_code.sol\":4142:4168  lastFaucetTime[msg.sender] */\n      0xffffffffffffffffffffffffffffffffffffffff\n      and\n      0xffffffffffffffffffffffffffffffffffffffff\n      and\n      dup2\n      mstore\n      0x20\n      add\n      swap1\n      dup2\n      mstore\n      0x20\n      add\n      0x00\n      keccak256\n      sload\n        /* \"example_code.sol\":4142:4181  lastFaucetTime[msg.sender] + 30 seconds */\n      tag_227\n      swap2\n      swap1\n      tag_152\n      jump\t// in\n    tag_227:\n        /* \"example_code.sol\":4142:4199  lastFaucetTime[msg.sender] + 30 seconds < block.timestamp */\n      lt\n        /* \"example_code.sol\":4134:4246  require(lastFaucetTime[msg.sender] + 30 seconds < block.timestamp, \"Please wait for 30 seconds to claim again.\") */\n      tag_228\n      jumpi\n      mload(0x40)\n      0x08c379a000000000000000000000000000000000000000000000000000000000\n      dup2\n      mstore\n      0x04\n      add\n      tag_229\n      swap1\n      tag_230\n      jump\t// in\n    tag_229:\n      mload(0x40)\n      dup1\n      swap2\n      sub\n      swap1\n      revert\n    tag_228:\n        /* \"example_code.sol\":4281:4284  500 */\n      0x01f4\n        /* \"example_code.sol\":4265:4277  _totalSupply */\n      sload(0x03)\n        /* \"example_code.sol\":4265:4284  _totalSupply >= 500 */\n      lt\n      iszero\n        /* \"example_code.sol\":4257:4317  require(_totalSupply >= 500, \"Not enough token for faucet.\") */\n      tag_231\n      jumpi\n      mload(0x40)\n      0x08c379a000000000000000000000000000000000000000000000000000000000\n      dup2\n      mstore\n      0x04\n      add\n      tag_232\n      swap1\n      tag_233\n      jump\t// in\n    tag_232:\n      mload(0x40)\n      dup1\n      swap2\n      sub\n      swap1\n      revert\n    tag_231:\n        /* \"example_code.sol\":4359:4374  block.timestamp */\n      timestamp\n        /* \"example_code.sol\":4330:4344  lastFaucetTime */\n      0x06\n        /* \"example_code.sol\":4330:4356  lastFaucetTime[msg.sender] */\n      0x00\n        /* \"example_code.sol\":4345:4355  msg.sender */\n      caller\n        /* \"example_code.sol\":4330:4356  lastFaucetTime[msg.sender] */\n      0xffffffffffffffffffffffffffffffffffffffff\n      and\n      0xffffffffffffffffffffffffffffffffffffffff\n      and\n      dup2\n      mstore\n      0x20\n      add\n      swap1\n      dup2\n      mstore\n      0x20\n      add\n      0x00\n      keccak256\n        /* \"example_code.sol\":4330:4374  lastFaucetTime[msg.sender] = block.timestamp */\n      dup2\n      swap1\n      sstore\n      pop\n        /* \"example_code.sol\":4400:4426  safeSub(_totalSupply, 500) */\n      tag_234\n        /* \"example_code.sol\":4408:4420  _totalSupply */\n      sload(0x03)\n        /* \"example_code.sol\":4422:4425  500 */\n      0x01f4\n        /* \"example_code.sol\":4400:4407  safeSub */\n      tag_96\n        /* \"example_code.sol\":4400:4426  safeSub(_totalSupply, 500) */\n      jump\t// in\n    tag_234:\n        /* \"example_code.sol\":4385:4397  _totalSupply */\n      0x03\n        /* \"example_code.sol\":4385:4426  _totalSupply = safeSub(_totalSupply, 500) */\n      dup2\n      swap1\n      sstore\n      pop\n        /* \"example_code.sol\":4455:4484  safeSub(balances[owner], 500) */\n      tag_235\n        /* \"example_code.sol\":4463:4471  balances */\n      0x04\n        /* \"example_code.sol\":4463:4478  balances[owner] */\n      0x00\n        /* \"example_code.sol\":4472:4477  owner */\n      0x07\n      0x00\n      swap1\n      sload\n      swap1\n      0x0100\n      exp\n      swap1\n      div\n      0xffffffffffffffffffffffffffffffffffffffff\n      and\n        /* \"example_code.sol\":4463:4478  balances[owner] */\n      0xffffffffffffffffffffffffffffffffffffffff\n      and\n      0xffffffffffffffffffffffffffffffffffffffff\n      and\n      dup2\n      mstore\n      0x20\n      add\n      swap1\n      dup2\n      mstore\n      0x20\n      add\n      0x00\n      keccak256\n      sload\n        /* \"example_code.sol\":4480:4483  500 */\n      0x01f4\n        /* \"example_code.sol\":4455:4462  safeSub */\n      tag_96\n        /* \"example_code.sol\":4455:4484  safeSub(balances[owner], 500) */\n      jump\t// in\n    tag_235:\n        /* \"example_code.sol\":4437:4445  balances */\n      0x04\n        /* \"example_code.sol\":4437:4452  balances[owner] */\n      0x00\n        /* \"example_code.sol\":4446:4451  owner */\n      0x07\n      0x00\n      swap1\n      sload\n      swap1\n      0x0100\n      exp\n      swap1\n      div\n      0xffffffffffffffffffffffffffffffffffffffff\n      and\n        /* \"example_code.sol\":4437:4452  balances[owner] */\n      0xffffffffffffffffffffffffffffffffffffffff\n      and\n      0xffffffffffffffffffffffffffffffffffffffff\n      and\n      dup2\n      mstore\n      0x20\n      add\n      swap1\n      dup2\n      mstore\n      0x20\n      add\n      0x00\n      keccak256\n        /* \"example_code.sol\":4437:4484  balances[owner] = safeSub(balances[owner], 500) */\n      dup2\n      swap1\n      sstore\n      pop\n        /* \"example_code.sol\":4518:4552  safeAdd(balances[msg.sender], 500) */\n      tag_236\n        /* \"example_code.sol\":4526:4534  balances */\n      0x04\n        /* \"example_code.sol\":4526:4546  balances[msg.sender] */\n      0x00\n        /* \"example_code.sol\":4535:4545  msg.sender */\n      caller\n        /* \"example_code.sol\":4526:4546  balances[msg.sender] */\n      0xffffffffffffffffffffffffffffffffffffffff\n      and\n      0xffffffffffffffffffffffffffffffffffffffff\n      and\n      dup2\n      mstore\n      0x20\n      add\n      swap1\n      dup2\n      mstore\n      0x20\n      add\n      0x00\n      keccak256\n      sload\n        /* \"example_code.sol\":4548:4551  500 */\n      0x01f4\n        /* \"example_code.sol\":4518:4525  safeAdd */\n      tag_130\n        /* \"example_code.sol\":4518:4552  safeAdd(balances[msg.sender], 500) */\n      jump\t// in\n    tag_236:\n        /* \"example_code.sol\":4495:4503  balances */\n      0x04\n        /* \"example_code.sol\":4495:4515  balances[msg.sender] */\n      0x00\n        /* \"example_code.sol\":4504:4514  msg.sender */\n      caller\n        /* \"example_code.sol\":4495:4515  balances[msg.sender] */\n      0xffffffffffffffffffffffffffffffffffffffff\n      and\n      0xffffffffffffffffffffffffffffffffffffffff\n      and\n      dup2\n      mstore\n      0x20\n      add\n      swap1\n      dup2\n      mstore\n      0x20\n      add\n      0x00\n      keccak256\n        /* \"example_code.sol\":4495:4552  balances[msg.sender] = safeAdd(balances[msg.sender], 500) */\n      dup2\n      swap1\n      sstore\n      pop\n        /* \"example_code.sol\":4591:4601  msg.sender */\n      caller\n        /* \"example_code.sol\":4570:4607  Transfer(address(0), msg.sender, 500) */\n      0xffffffffffffffffffffffffffffffffffffffff\n      and\n        /* \"example_code.sol\":4587:4588  0 */\n      0x00\n        /* \"example_code.sol\":4570:4607  Transfer(address(0), msg.sender, 500) */\n      0xffffffffffffffffffffffffffffffffffffffff\n      and\n      0xddf252ad1be2c89b69c2b068fc378daa952ba7f163c4a11628f55a4df523b3ef\n        /* \"example_code.sol\":4603:4606  500 */\n      0x01f4\n        /* \"example_code.sol\":4570:4607  Transfer(address(0), msg.sender, 500) */\n      mload(0x40)\n      tag_237\n      swap2\n      swap1\n      tag_238\n      jump\t// in\n    tag_237:\n      mload(0x40)\n      dup1\n      swap2\n      sub\n      swap1\n      log3\n        /* \"example_code.sol\":4015:4615  function faucet() public {... */\n      jump\t// out\n        /* \"example_code.sol\":4678:4707  address payable public winner */\n    tag_124:\n      0x08\n      0x00\n      swap1\n      sload\n      swap1\n      0x0100\n      exp\n      swap1\n      div\n      0xffffffffffffffffffffffffffffffffffffffff\n      and\n      dup2\n      jump\t// out\n        /* \"example_code.sol\":1175:1292  function safeAdd (uint a, uint b) public pure returns (uint c) {... */\n    tag_130:\n        /* \"example_code.sol\":1230:1236  uint c */\n      0x00\n        /* \"example_code.sol\":1257:1258  b */\n      dup2\n        /* \"example_code.sol\":1253:1254  a */\n      dup4\n        /* \"example_code.sol\":1253:1258  a + b */\n      tag_240\n      swap2\n      swap1\n      tag_152\n      jump\t// in\n    tag_240:\n        /* \"example_code.sol\":1249:1258  c = a + b */\n      swap1\n      pop\n        /* \"example_code.sol\":1282:1283  a */\n      dup3\n        /* \"example_code.sol\":1277:1278  c */\n      dup2\n        /* \"example_code.sol\":1277:1283  c >= a */\n      lt\n      iszero\n        /* \"example_code.sol\":1269:1284  require(c >= a) */\n      tag_241\n      jumpi\n      0x00\n      dup1\n      revert\n    tag_241:\n        /* \"example_code.sol\":1175:1292  function safeAdd (uint a, uint b) public pure returns (uint c) {... */\n      swap3\n      swap2\n      pop\n      pop\n      jump\t// out\n        /* \"example_code.sol\":7146:7454  function getAllPlayers() public view returns (address payable[] memory) {... */\n    tag_134:\n        /* \"example_code.sol\":7192:7216  address payable[] memory */\n      0x60\n        /* \"example_code.sol\":7229:7264  address payable[] memory allPlayers */\n      0x00\n        /* \"example_code.sol\":7289:7296  players */\n      0x09\n        /* \"example_code.sol\":7289:7303  players.length */\n      dup1\n      sload\n      swap1\n      pop\n        /* \"example_code.sol\":7267:7304  new address payable[](players.length) */\n      0xffffffffffffffff\n      dup2\n      gt\n      iszero\n      tag_243\n      jumpi\n      tag_244\n      tag_245\n      jump\t// in\n    tag_244:\n    tag_243:\n      mload(0x40)\n      swap1\n      dup1\n      dup3\n      mstore\n      dup1\n      0x20\n      mul\n      0x20\n      add\n      dup3\n      add\n      0x40\n      mstore\n      dup1\n      iszero\n      tag_246\n      jumpi\n      dup2\n      0x20\n      add\n      0x20\n      dup3\n      mul\n      dup1\n      calldatasize\n      dup4\n      calldatacopy\n      dup1\n      dup3\n      add\n      swap2\n      pop\n      pop\n      swap1\n      pop\n    tag_246:\n      pop\n        /* \"example_code.sol\":7229:7304  address payable[] memory allPlayers = new address payable[](players.length) */\n      swap1\n      pop\n        /* \"example_code.sol\":7320:7326  uint i */\n      0x00\n        /* \"example_code.sol\":7315:7419  for (uint i = 0; i < players.length; i++) {... */\n    tag_247:\n        /* \"example_code.sol\":7336:7343  players */\n      0x09\n        /* \"example_code.sol\":7336:7350  players.length */\n      dup1\n      sload\n      swap1\n      pop\n        /* \"example_code.sol\":7332:7333  i */\n      dup2\n        /* \"example_code.sol\":7332:7350  i < players.length */\n      lt\n        /* \"example_code.sol\":7315:7419  for (uint i = 0; i < players.length; i++) {... */\n      iszero\n      tag_248\n      jumpi\n        /* \"example_code.sol\":7396:7403  players */\n      0x09\n        /* \"example_code.sol\":7404:7405  i */\n      dup2\n        /* \"example_code.sol\":7396:7406  players[i] */\n      dup2\n      sload\n      dup2\n      lt\n      tag_250\n      jumpi\n      tag_251\n      tag_161\n      jump\t// in\n    tag_251:\n    tag_250:\n      swap1\n      0x00\n      mstore\n      keccak256(0x00, 0x20)\n      add\n      0x00\n      swap1\n      sload\n      swap1\n      0x0100\n      exp\n      swap1\n      div\n      0xffffffffffffffffffffffffffffffffffffffff\n      and\n        /* \"example_code.sol\":7372:7382  allPlayers */\n      dup3\n        /* \"example_code.sol\":7383:7384  i */\n      dup3\n        /* \"example_code.sol\":7372:7385  allPlayers[i] */\n      dup2\n      mload\n      dup2\n      lt\n      tag_253\n      jumpi\n      tag_254\n      tag_161\n      jump\t// in\n    tag_254:\n    tag_253:\n      0x20\n      mul\n      0x20\n      add\n      add\n        /* \"example_code.sol\":7372:7407  allPlayers[i] = payable(players[i]) */\n      swap1\n      0xffffffffffffffffffffffffffffffffffffffff\n      and\n      swap1\n      dup2\n      0xffffffffffffffffffffffffffffffffffffffff\n      and\n      dup2\n      mstore\n      pop\n      pop\n        /* \"example_code.sol\":7352:7355  i++ */\n      dup1\n      dup1\n      tag_255\n      swap1\n      tag_256\n      jump\t// in\n    tag_255:\n      swap2\n      pop\n      pop\n        /* \"example_code.sol\":7315:7419  for (uint i = 0; i < players.length; i++) {... */\n      jump(tag_247)\n    tag_248:\n      pop\n        /* \"example_code.sol\":7436:7446  allPlayers */\n      dup1\n        /* \"example_code.sol\":7429:7446  return allPlayers */\n      swap2\n      pop\n      pop\n        /* \"example_code.sol\":7146:7454  function getAllPlayers() public view returns (address payable[] memory) {... */\n      swap1\n      jump\t// out\n        /* \"#utility.yul\":7:106   */\n    tag_257:\n        /* \"#utility.yul\":59:65   */\n      0x00\n        /* \"#utility.yul\":93:98   */\n      dup2\n        /* \"#utility.yul\":87:99   */\n      mload\n        /* \"#utility.yul\":77:99   */\n      swap1\n      pop\n        /* \"#utility.yul\":7:106   */\n      swap2\n      swap1\n      pop\n      jump\t// out\n        /* \"#utility.yul\":112:281   */\n    tag_258:\n        /* \"#utility.yul\":196:207   */\n      0x00\n        /* \"#utility.yul\":230:236   */\n      dup3\n        /* \"#utility.yul\":225:228   */\n      dup3\n        /* \"#utility.yul\":218:237   */\n      mstore\n        /* \"#utility.yul\":270:274   */\n      0x20\n        /* \"#utility.yul\":265:268   */\n      dup3\n        /* \"#utility.yul\":261:275   */\n      add\n        /* \"#utility.yul\":246:275   */\n      swap1\n      pop\n        /* \"#utility.yul\":112:281   */\n      swap3\n      swap2\n      pop\n      pop\n      jump\t// out\n        /* \"#utility.yul\":287:533   */\n    tag_259:\n        /* \"#utility.yul\":368:369   */\n      0x00\n        /* \"#utility.yul\":378:491   */\n    tag_324:\n        /* \"#utility.yul\":392:398   */\n      dup4\n        /* \"#utility.yul\":389:390   */\n      dup2\n        /* \"#utility.yul\":386:399   */\n      lt\n        /* \"#utility.yul\":378:491   */\n      iszero\n      tag_326\n      jumpi\n        /* \"#utility.yul\":477:478   */\n      dup1\n        /* \"#utility.yul\":472:475   */\n      dup3\n        /* \"#utility.yul\":468:479   */\n      add\n        /* \"#utility.yul\":462:480   */\n      mload\n        /* \"#utility.yul\":458:459   */\n      dup2\n        /* \"#utility.yul\":453:456   */\n      dup5\n        /* \"#utility.yul\":449:460   */\n      add\n        /* \"#utility.yul\":442:481   */\n      mstore\n        /* \"#utility.yul\":414:416   */\n      0x20\n        /* \"#utility.yul\":411:412   */\n      dup2\n        /* \"#utility.yul\":407:417   */\n      add\n        /* \"#utility.yul\":402:417   */\n      swap1\n      pop\n        /* \"#utility.yul\":378:491   */\n      jump(tag_324)\n    tag_326:\n        /* \"#utility.yul\":525:526   */\n      0x00\n        /* \"#utility.yul\":516:522   */\n      dup5\n        /* \"#utility.yul\":511:514   */\n      dup5\n        /* \"#utility.yul\":507:523   */\n      add\n        /* \"#utility.yul\":500:527   */\n      mstore\n        /* \"#utility.yul\":349:533   */\n      pop\n        /* \"#utility.yul\":287:533   */\n      pop\n      pop\n      pop\n      jump\t// out\n        /* \"#utility.yul\":539:641   */\n    tag_260:\n        /* \"#utility.yul\":580:586   */\n      0x00\n        /* \"#utility.yul\":631:633   */\n      0x1f\n        /* \"#utility.yul\":627:634   */\n      not\n        /* \"#utility.yul\":622:624   */\n      0x1f\n        /* \"#utility.yul\":615:620   */\n      dup4\n        /* \"#utility.yul\":611:625   */\n      add\n        /* \"#utility.yul\":607:635   */\n      and\n        /* \"#utility.yul\":597:635   */\n      swap1\n      pop\n        /* \"#utility.yul\":539:641   */\n      swap2\n      swap1\n      pop\n      jump\t// out\n        /* \"#utility.yul\":647:1024   */\n    tag_261:\n        /* \"#utility.yul\":735:738   */\n      0x00\n        /* \"#utility.yul\":763:802   */\n      tag_329\n        /* \"#utility.yul\":796:801   */\n      dup3\n        /* \"#utility.yul\":763:802   */\n      tag_257\n      jump\t// in\n    tag_329:\n        /* \"#utility.yul\":818:889   */\n      tag_330\n        /* \"#utility.yul\":882:888   */\n      dup2\n        /* \"#utility.yul\":877:880   */\n      dup6\n        /* \"#utility.yul\":818:889   */\n      tag_258\n      jump\t// in\n    tag_330:\n        /* \"#utility.yul\":811:889   */\n      swap4\n      pop\n        /* \"#utility.yul\":898:963   */\n      tag_331\n        /* \"#utility.yul\":956:962   */\n      dup2\n        /* \"#utility.yul\":951:954   */\n      dup6\n        /* \"#utility.yul\":944:948   */\n      0x20\n        /* \"#utility.yul\":937:942   */\n      dup7\n        /* \"#utility.yul\":933:949   */\n      add\n        /* \"#utility.yul\":898:963   */\n      tag_259\n      jump\t// in\n    tag_331:\n        /* \"#utility.yul\":988:1017   */\n      tag_332\n        /* \"#utility.yul\":1010:1016   */\n      dup2\n        /* \"#utility.yul\":988:1017   */\n      tag_260\n      jump\t// in\n    tag_332:\n        /* \"#utility.yul\":983:986   */\n      dup5\n        /* \"#utility.yul\":979:1018   */\n      add\n        /* \"#utility.yul\":972:1018   */\n      swap2\n      pop\n        /* \"#utility.yul\":739:1024   */\n      pop\n        /* \"#utility.yul\":647:1024   */\n      swap3\n      swap2\n      pop\n      pop\n      jump\t// out\n        /* \"#utility.yul\":1030:1343   */\n    tag_32:\n        /* \"#utility.yul\":1143:1147   */\n      0x00\n        /* \"#utility.yul\":1181:1183   */\n      0x20\n        /* \"#utility.yul\":1170:1179   */\n      dup3\n        /* \"#utility.yul\":1166:1184   */\n      add\n        /* \"#utility.yul\":1158:1184   */\n      swap1\n      pop\n        /* \"#utility.yul\":1230:1239   */\n      dup2\n        /* \"#utility.yul\":1224:1228   */\n      dup2\n        /* \"#utility.yul\":1220:1240   */\n      sub\n        /* \"#utility.yul\":1216:1217   */\n      0x00\n        /* \"#utility.yul\":1205:1214   */\n      dup4\n        /* \"#utility.yul\":1201:1218   */\n      add\n        /* \"#utility.yul\":1194:1241   */\n      mstore\n        /* \"#utility.yul\":1258:1336   */\n      tag_334\n        /* \"#utility.yul\":1331:1335   */\n      dup2\n        /* \"#utility.yul\":1322:1328   */\n      dup5\n        /* \"#utility.yul\":1258:1336   */\n      tag_261\n      jump\t// in\n    tag_334:\n        /* \"#utility.yul\":1250:1336   */\n      swap1\n      pop\n        /* \"#utility.yul\":1030:1343   */\n      swap3\n      swap2\n      pop\n      pop\n      jump\t// out\n        /* \"#utility.yul\":1430:1547   */\n    tag_263:\n        /* \"#utility.yul\":1539:1540   */\n      0x00\n        /* \"#utility.yul\":1536:1537   */\n      dup1\n        /* \"#utility.yul\":1529:1541   */\n      revert\n        /* \"#utility.yul\":1676:1802   */\n    tag_265:\n        /* \"#utility.yul\":1713:1720   */\n      0x00\n        /* \"#utility.yul\":1753:1795   */\n      0xffffffffffffffffffffffffffffffffffffffff\n        /* \"#utility.yul\":1746:1751   */\n      dup3\n        /* \"#utility.yul\":1742:1796   */\n      and\n        /* \"#utility.yul\":1731:1796   */\n      swap1\n      pop\n        /* \"#utility.yul\":1676:1802   */\n      swap2\n      swap1\n      pop\n      jump\t// out\n        /* \"#utility.yul\":1808:1904   */\n    tag_266:\n        /* \"#utility.yul\":1845:1852   */\n      0x00\n        /* \"#utility.yul\":1874:1898   */\n      tag_340\n        /* \"#utility.yul\":1892:1897   */\n      dup3\n        /* \"#utility.yul\":1874:1898   */\n      tag_265\n      jump\t// in\n    tag_340:\n        /* \"#utility.yul\":1863:1898   */\n      swap1\n      pop\n        /* \"#utility.yul\":1808:1904   */\n      swap2\n      swap1\n      pop\n      jump\t// out\n        /* \"#utility.yul\":1910:2032   */\n    tag_267:\n        /* \"#utility.yul\":1983:2007   */\n      tag_342\n        /* \"#utility.yul\":2001:2006   */\n      dup2\n        /* \"#utility.yul\":1983:2007   */\n      tag_266\n      jump\t// in\n    tag_342:\n        /* \"#utility.yul\":1976:1981   */\n      dup2\n        /* \"#utility.yul\":1973:2008   */\n      eq\n        /* \"#utility.yul\":1963:2026   */\n      tag_343\n      jumpi\n        /* \"#utility.yul\":2022:2023   */\n      0x00\n        /* \"#utility.yul\":2019:2020   */\n      dup1\n        /* \"#utility.yul\":2012:2024   */\n      revert\n        /* \"#utility.yul\":1963:2026   */\n    tag_343:\n        /* \"#utility.yul\":1910:2032   */\n      pop\n      jump\t// out\n        /* \"#utility.yul\":2038:2177   */\n    tag_268:\n        /* \"#utility.yul\":2084:2089   */\n      0x00\n        /* \"#utility.yul\":2122:2128   */\n      dup2\n        /* \"#utility.yul\":2109:2129   */\n      calldataload\n        /* \"#utility.yul\":2100:2129   */\n      swap1\n      pop\n        /* \"#utility.yul\":2138:2171   */\n      tag_345\n        /* \"#utility.yul\":2165:2170   */\n      dup2\n        /* \"#utility.yul\":2138:2171   */\n      tag_267\n      jump\t// in\n    tag_345:\n        /* \"#utility.yul\":2038:2177   */\n      swap3\n      swap2\n      pop\n      pop\n      jump\t// out\n        /* \"#utility.yul\":2183:2260   */\n    tag_269:\n        /* \"#utility.yul\":2220:2227   */\n      0x00\n        /* \"#utility.yul\":2249:2254   */\n      dup2\n        /* \"#utility.yul\":2238:2254   */\n      swap1\n      pop\n        /* \"#utility.yul\":2183:2260   */\n      swap2\n      swap1\n      pop\n      jump\t// out\n        /* \"#utility.yul\":2266:2388   */\n    tag_270:\n        /* \"#utility.yul\":2339:2363   */\n      tag_348\n        /* \"#utility.yul\":2357:2362   */\n      dup2\n        /* \"#utility.yul\":2339:2363   */\n      tag_269\n      jump\t// in\n    tag_348:\n        /* \"#utility.yul\":2332:2337   */\n      dup2\n        /* \"#utility.yul\":2329:2364   */\n      eq\n        /* \"#utility.yul\":2319:2382   */\n      tag_349\n      jumpi\n        /* \"#utility.yul\":2378:2379   */\n      0x00\n        /* \"#utility.yul\":2375:2376   */\n      dup1\n        /* \"#utility.yul\":2368:2380   */\n      revert\n        /* \"#utility.yul\":2319:2382   */\n    tag_349:\n        /* \"#utility.yul\":2266:2388   */\n      pop\n      jump\t// out\n        /* \"#utility.yul\":2394:2533   */\n    tag_271:\n        /* \"#utility.yul\":2440:2445   */\n      0x00\n        /* \"#utility.yul\":2478:2484   */\n      dup2\n        /* \"#utility.yul\":2465:2485   */\n      calldataload\n        /* \"#utility.yul\":2456:2485   */\n      swap1\n      pop\n        /* \"#utility.yul\":2494:2527   */\n      tag_351\n        /* \"#utility.yul\":2521:2526   */\n      dup2\n        /* \"#utility.yul\":2494:2527   */\n      tag_270\n      jump\t// in\n    tag_351:\n        /* \"#utility.yul\":2394:2533   */\n      swap3\n      swap2\n      pop\n      pop\n      jump\t// out\n        /* \"#utility.yul\":2539:3013   */\n    tag_36:\n        /* \"#utility.yul\":2607:2613   */\n      0x00\n        /* \"#utility.yul\":2615:2621   */\n      dup1\n        /* \"#utility.yul\":2664:2666   */\n      0x40\n        /* \"#utility.yul\":2652:2661   */\n      dup4\n        /* \"#utility.yul\":2643:2650   */\n      dup6\n        /* \"#utility.yul\":2639:2662   */\n      sub\n        /* \"#utility.yul\":2635:2667   */\n      slt\n        /* \"#utility.yul\":2632:2751   */\n      iszero\n      tag_353\n      jumpi\n        /* \"#utility.yul\":2670:2749   */\n      tag_354\n      tag_263\n      jump\t// in\n    tag_354:\n        /* \"#utility.yul\":2632:2751   */\n    tag_353:\n        /* \"#utility.yul\":2790:2791   */\n      0x00\n        /* \"#utility.yul\":2815:2868   */\n      tag_355\n        /* \"#utility.yul\":2860:2867   */\n      dup6\n        /* \"#utility.yul\":2851:2857   */\n      dup3\n        /* \"#utility.yul\":2840:2849   */\n      dup7\n        /* \"#utility.yul\":2836:2858   */\n      add\n        /* \"#utility.yul\":2815:2868   */\n      tag_268\n      jump\t// in\n    tag_355:\n        /* \"#utility.yul\":2805:2868   */\n      swap3\n      pop\n        /* \"#utility.yul\":2761:2878   */\n      pop\n        /* \"#utility.yul\":2917:2919   */\n      0x20\n        /* \"#utility.yul\":2943:2996   */\n      tag_356\n        /* \"#utility.yul\":2988:2995   */\n      dup6\n        /* \"#utility.yul\":2979:2985   */\n      dup3\n        /* \"#utility.yul\":2968:2977   */\n      dup7\n        /* \"#utility.yul\":2964:2986   */\n      add\n        /* \"#utility.yul\":2943:2996   */\n      tag_271\n      jump\t// in\n    tag_356:\n        /* \"#utility.yul\":2933:2996   */\n      swap2\n      pop\n        /* \"#utility.yul\":2888:3006   */\n      pop\n        /* \"#utility.yul\":2539:3013   */\n      swap3\n      pop\n      swap3\n      swap1\n      pop\n      jump\t// out\n        /* \"#utility.yul\":3019:3109   */\n    tag_272:\n        /* \"#utility.yul\":3053:3060   */\n      0x00\n        /* \"#utility.yul\":3096:3101   */\n      dup2\n        /* \"#utility.yul\":3089:3102   */\n      iszero\n        /* \"#utility.yul\":3082:3103   */\n      iszero\n        /* \"#utility.yul\":3071:3103   */\n      swap1\n      pop\n        /* \"#utility.yul\":3019:3109   */\n      swap2\n      swap1\n      pop\n      jump\t// out\n        /* \"#utility.yul\":3115:3224   */\n    tag_273:\n        /* \"#utility.yul\":3196:3217   */\n      tag_359\n        /* \"#utility.yul\":3211:3216   */\n      dup2\n        /* \"#utility.yul\":3196:3217   */\n      tag_272\n      jump\t// in\n    tag_359:\n        /* \"#utility.yul\":3191:3194   */\n      dup3\n        /* \"#utility.yul\":3184:3218   */\n      mstore\n        /* \"#utility.yul\":3115:3224   */\n      pop\n      pop\n      jump\t// out\n        /* \"#utility.yul\":3230:3440   */\n    tag_39:\n        /* \"#utility.yul\":3317:3321   */\n      0x00\n        /* \"#utility.yul\":3355:3357   */\n      0x20\n        /* \"#utility.yul\":3344:3353   */\n      dup3\n        /* \"#utility.yul\":3340:3358   */\n      add\n        /* \"#utility.yul\":3332:3358   */\n      swap1\n      pop\n        /* \"#utility.yul\":3368:3433   */\n      tag_361\n        /* \"#utility.yul\":3430:3431   */\n      0x00\n        /* \"#utility.yul\":3419:3428   */\n      dup4\n        /* \"#utility.yul\":3415:3432   */\n      add\n        /* \"#utility.yul\":3406:3412   */\n      dup5\n        /* \"#utility.yul\":3368:3433   */\n      tag_273\n      jump\t// in\n    tag_361:\n        /* \"#utility.yul\":3230:3440   */\n      swap3\n      swap2\n      pop\n      pop\n      jump\t// out\n        /* \"#utility.yul\":3446:3564   */\n    tag_274:\n        /* \"#utility.yul\":3533:3557   */\n      tag_363\n        /* \"#utility.yul\":3551:3556   */\n      dup2\n        /* \"#utility.yul\":3533:3557   */\n      tag_269\n      jump\t// in\n    tag_363:\n        /* \"#utility.yul\":3528:3531   */\n      dup3\n        /* \"#utility.yul\":3521:3558   */\n      mstore\n        /* \"#utility.yul\":3446:3564   */\n      pop\n      pop\n      jump\t// out\n        /* \"#utility.yul\":3570:3792   */\n    tag_47:\n        /* \"#utility.yul\":3663:3667   */\n      0x00\n        /* \"#utility.yul\":3701:3703   */\n      0x20\n        /* \"#utility.yul\":3690:3699   */\n      dup3\n        /* \"#utility.yul\":3686:3704   */\n      add\n        /* \"#utility.yul\":3678:3704   */\n      swap1\n      pop\n        /* \"#utility.yul\":3714:3785   */\n      tag_365\n        /* \"#utility.yul\":3782:3783   */\n      0x00\n        /* \"#utility.yul\":3771:3780   */\n      dup4\n        /* \"#utility.yul\":3767:3784   */\n      add\n        /* \"#utility.yul\":3758:3764   */\n      dup5\n        /* \"#utility.yul\":3714:3785   */\n      tag_274\n      jump\t// in\n    tag_365:\n        /* \"#utility.yul\":3570:3792   */\n      swap3\n      swap2\n      pop\n      pop\n      jump\t// out\n        /* \"#utility.yul\":3798:4417   */\n    tag_51:\n        /* \"#utility.yul\":3875:3881   */\n      0x00\n        /* \"#utility.yul\":3883:3889   */\n      dup1\n        /* \"#utility.yul\":3891:3897   */\n      0x00\n        /* \"#utility.yul\":3940:3942   */\n      0x60\n        /* \"#utility.yul\":3928:3937   */\n      dup5\n        /* \"#utility.yul\":3919:3926   */\n      dup7\n        /* \"#utility.yul\":3915:3938   */\n      sub\n        /* \"#utility.yul\":3911:3943   */\n      slt\n        /* \"#utility.yul\":3908:4027   */\n      iszero\n      tag_367\n      jumpi\n        /* \"#utility.yul\":3946:4025   */\n      tag_368\n      tag_263\n      jump\t// in\n    tag_368:\n        /* \"#utility.yul\":3908:4027   */\n    tag_367:\n        /* \"#utility.yul\":4066:4067   */\n      0x00\n        /* \"#utility.yul\":4091:4144   */\n      tag_369\n        /* \"#utility.yul\":4136:4143   */\n      dup7\n        /* \"#utility.yul\":4127:4133   */\n      dup3\n        /* \"#utility.yul\":4116:4125   */\n      dup8\n        /* \"#utility.yul\":4112:4134   */\n      add\n        /* \"#utility.yul\":4091:4144   */\n      tag_268\n      jump\t// in\n    tag_369:\n        /* \"#utility.yul\":4081:4144   */\n      swap4\n      pop\n        /* \"#utility.yul\":4037:4154   */\n      pop\n        /* \"#utility.yul\":4193:4195   */\n      0x20\n        /* \"#utility.yul\":4219:4272   */\n      tag_370\n        /* \"#utility.yul\":4264:4271   */\n      dup7\n        /* \"#utility.yul\":4255:4261   */\n      dup3\n        /* \"#utility.yul\":4244:4253   */\n      dup8\n        /* \"#utility.yul\":4240:4262   */\n      add\n        /* \"#utility.yul\":4219:4272   */\n      tag_268\n      jump\t// in\n    tag_370:\n        /* \"#utility.yul\":4209:4272   */\n      swap3\n      pop\n        /* \"#utility.yul\":4164:4282   */\n      pop\n        /* \"#utility.yul\":4321:4323   */\n      0x40\n        /* \"#utility.yul\":4347:4400   */\n      tag_371\n        /* \"#utility.yul\":4392:4399   */\n      dup7\n        /* \"#utility.yul\":4383:4389   */\n      dup3\n        /* \"#utility.yul\":4372:4381   */\n      dup8\n        /* \"#utility.yul\":4368:4390   */\n      add\n        /* \"#utility.yul\":4347:4400   */\n      tag_271\n      jump\t// in\n    tag_371:\n        /* \"#utility.yul\":4337:4400   */\n      swap2\n      pop\n        /* \"#utility.yul\":4292:4410   */\n      pop\n        /* \"#utility.yul\":3798:4417   */\n      swap3\n      pop\n      swap3\n      pop\n      swap3\n      jump\t// out\n        /* \"#utility.yul\":4423:4509   */\n    tag_275:\n        /* \"#utility.yul\":4458:4465   */\n      0x00\n        /* \"#utility.yul\":4498:4502   */\n      0xff\n        /* \"#utility.yul\":4491:4496   */\n      dup3\n        /* \"#utility.yul\":4487:4503   */\n      and\n        /* \"#utility.yul\":4476:4503   */\n      swap1\n      pop\n        /* \"#utility.yul\":4423:4509   */\n      swap2\n      swap1\n      pop\n      jump\t// out\n        /* \"#utility.yul\":4515:4627   */\n    tag_276:\n        /* \"#utility.yul\":4598:4620   */\n      tag_374\n        /* \"#utility.yul\":4614:4619   */\n      dup2\n        /* \"#utility.yul\":4598:4620   */\n      tag_275\n      jump\t// in\n    tag_374:\n        /* \"#utility.yul\":4593:4596   */\n      dup3\n        /* \"#utility.yul\":4586:4621   */\n      mstore\n        /* \"#utility.yul\":4515:4627   */\n      pop\n      pop\n      jump\t// out\n        /* \"#utility.yul\":4633:4847   */\n    tag_62:\n        /* \"#utility.yul\":4722:4726   */\n      0x00\n        /* \"#utility.yul\":4760:4762   */\n      0x20\n        /* \"#utility.yul\":4749:4758   */\n      dup3\n        /* \"#utility.yul\":4745:4763   */\n      add\n        /* \"#utility.yul\":4737:4763   */\n      swap1\n      pop\n        /* \"#utility.yul\":4773:4840   */\n      tag_376\n        /* \"#utility.yul\":4837:4838   */\n      0x00\n        /* \"#utility.yul\":4826:4835   */\n      dup4\n        /* \"#utility.yul\":4822:4839   */\n      add\n        /* \"#utility.yul\":4813:4819   */\n      dup5\n        /* \"#utility.yul\":4773:4840   */\n      tag_276\n      jump\t// in\n    tag_376:\n        /* \"#utility.yul\":4633:4847   */\n      swap3\n      swap2\n      pop\n      pop\n      jump\t// out\n        /* \"#utility.yul\":4853:5182   */\n    tag_76:\n        /* \"#utility.yul\":4912:4918   */\n      0x00\n        /* \"#utility.yul\":4961:4963   */\n      0x20\n        /* \"#utility.yul\":4949:4958   */\n      dup3\n        /* \"#utility.yul\":4940:4947   */\n      dup5\n        /* \"#utility.yul\":4936:4959   */\n      sub\n        /* \"#utility.yul\":4932:4964   */\n      slt\n        /* \"#utility.yul\":4929:5048   */\n      iszero\n      tag_378\n      jumpi\n        /* \"#utility.yul\":4967:5046   */\n      tag_379\n      tag_263\n      jump\t// in\n    tag_379:\n        /* \"#utility.yul\":4929:5048   */\n    tag_378:\n        /* \"#utility.yul\":5087:5088   */\n      0x00\n        /* \"#utility.yul\":5112:5165   */\n      tag_380\n        /* \"#utility.yul\":5157:5164   */\n      dup5\n        /* \"#utility.yul\":5148:5154   */\n      dup3\n        /* \"#utility.yul\":5137:5146   */\n      dup6\n        /* \"#utility.yul\":5133:5155   */\n      add\n        /* \"#utility.yul\":5112:5165   */\n      tag_268\n      jump\t// in\n    tag_380:\n        /* \"#utility.yul\":5102:5165   */\n      swap2\n      pop\n        /* \"#utility.yul\":5058:5175   */\n      pop\n        /* \"#utility.yul\":4853:5182   */\n      swap3\n      swap2\n      pop\n      pop\n      jump\t// out\n        /* \"#utility.yul\":5188:5306   */\n    tag_277:\n        /* \"#utility.yul\":5275:5299   */\n      tag_382\n        /* \"#utility.yul\":5293:5298   */\n      dup2\n        /* \"#utility.yul\":5275:5299   */\n      tag_266\n      jump\t// in\n    tag_382:\n        /* \"#utility.yul\":5270:5273   */\n      dup3\n        /* \"#utility.yul\":5263:5300   */\n      mstore\n        /* \"#utility.yul\":5188:5306   */\n      pop\n      pop\n      jump\t// out\n        /* \"#utility.yul\":5312:5534   */\n    tag_87:\n        /* \"#utility.yul\":5405:5409   */\n      0x00\n        /* \"#utility.yul\":5443:5445   */\n      0x20\n        /* \"#utility.yul\":5432:5441   */\n      dup3\n        /* \"#utility.yul\":5428:5446   */\n      add\n        /* \"#utility.yul\":5420:5446   */\n      swap1\n      pop\n        /* \"#utility.yul\":5456:5527   */\n      tag_384\n        /* \"#utility.yul\":5524:5525   */\n      0x00\n        /* \"#utility.yul\":5513:5522   */\n      dup4\n        /* \"#utility.yul\":5509:5526   */\n      add\n        /* \"#utility.yul\":5500:5506   */\n      dup5\n        /* \"#utility.yul\":5456:5527   */\n      tag_277\n      jump\t// in\n    tag_384:\n        /* \"#utility.yul\":5312:5534   */\n      swap3\n      swap2\n      pop\n      pop\n      jump\t// out\n        /* \"#utility.yul\":5540:6014   */\n    tag_95:\n        /* \"#utility.yul\":5608:5614   */\n      0x00\n        /* \"#utility.yul\":5616:5622   */\n      dup1\n        /* \"#utility.yul\":5665:5667   */\n      0x40\n        /* \"#utility.yul\":5653:5662   */\n      dup4\n        /* \"#utility.yul\":5644:5651   */\n      dup6\n        /* \"#utility.yul\":5640:5663   */\n      sub\n        /* \"#utility.yul\":5636:5668   */\n      slt\n        /* \"#utility.yul\":5633:5752   */\n      iszero\n      tag_386\n      jumpi\n        /* \"#utility.yul\":5671:5750   */\n      tag_387\n      tag_263\n      jump\t// in\n    tag_387:\n        /* \"#utility.yul\":5633:5752   */\n    tag_386:\n        /* \"#utility.yul\":5791:5792   */\n      0x00\n        /* \"#utility.yul\":5816:5869   */\n      tag_388\n        /* \"#utility.yul\":5861:5868   */\n      dup6\n        /* \"#utility.yul\":5852:5858   */\n      dup3\n        /* \"#utility.yul\":5841:5850   */\n      dup7\n        /* \"#utility.yul\":5837:5859   */\n      add\n        /* \"#utility.yul\":5816:5869   */\n      tag_271\n      jump\t// in\n    tag_388:\n        /* \"#utility.yul\":5806:5869   */\n      swap3\n      pop\n        /* \"#utility.yul\":5762:5879   */\n      pop\n        /* \"#utility.yul\":5918:5920   */\n      0x20\n        /* \"#utility.yul\":5944:5997   */\n      tag_389\n        /* \"#utility.yul\":5989:5996   */\n      dup6\n        /* \"#utility.yul\":5980:5986   */\n      dup3\n        /* \"#utility.yul\":5969:5978   */\n      dup7\n        /* \"#utility.yul\":5965:5987   */\n      add\n        /* \"#utility.yul\":5944:5997   */\n      tag_271\n      jump\t// in\n    tag_389:\n        /* \"#utility.yul\":5934:5997   */\n      swap2\n      pop\n        /* \"#utility.yul\":5889:6007   */\n      pop\n        /* \"#utility.yul\":5540:6014   */\n      swap3\n      pop\n      swap3\n      swap1\n      pop\n      jump\t// out\n        /* \"#utility.yul\":6020:6494   */\n    tag_116:\n        /* \"#utility.yul\":6088:6094   */\n      0x00\n        /* \"#utility.yul\":6096:6102   */\n      dup1\n        /* \"#utility.yul\":6145:6147   */\n      0x40\n        /* \"#utility.yul\":6133:6142   */\n      dup4\n        /* \"#utility.yul\":6124:6131   */\n      dup6\n        /* \"#utility.yul\":6120:6143   */\n      sub\n        /* \"#utility.yul\":6116:6148   */\n      slt\n        /* \"#utility.yul\":6113:6232   */\n      iszero\n      tag_391\n      jumpi\n        /* \"#utility.yul\":6151:6230   */\n      tag_392\n      tag_263\n      jump\t// in\n    tag_392:\n        /* \"#utility.yul\":6113:6232   */\n    tag_391:\n        /* \"#utility.yul\":6271:6272   */\n      0x00\n        /* \"#utility.yul\":6296:6349   */\n      tag_393\n        /* \"#utility.yul\":6341:6348   */\n      dup6\n        /* \"#utility.yul\":6332:6338   */\n      dup3\n        /* \"#utility.yul\":6321:6330   */\n      dup7\n        /* \"#utility.yul\":6317:6339   */\n      add\n        /* \"#utility.yul\":6296:6349   */\n      tag_268\n      jump\t// in\n    tag_393:\n        /* \"#utility.yul\":6286:6349   */\n      swap3\n      pop\n        /* \"#utility.yul\":6242:6359   */\n      pop\n        /* \"#utility.yul\":6398:6400   */\n      0x20\n        /* \"#utility.yul\":6424:6477   */\n      tag_394\n        /* \"#utility.yul\":6469:6476   */\n      dup6\n        /* \"#utility.yul\":6460:6466   */\n      dup3\n        /* \"#utility.yul\":6449:6458   */\n      dup7\n        /* \"#utility.yul\":6445:6467   */\n      add\n        /* \"#utility.yul\":6424:6477   */\n      tag_268\n      jump\t// in\n    tag_394:\n        /* \"#utility.yul\":6414:6477   */\n      swap2\n      pop\n        /* \"#utility.yul\":6369:6487   */\n      pop\n        /* \"#utility.yul\":6020:6494   */\n      swap3\n      pop\n      swap3\n      swap1\n      pop\n      jump\t// out\n        /* \"#utility.yul\":6500:6604   */\n    tag_278:\n        /* \"#utility.yul\":6545:6552   */\n      0x00\n        /* \"#utility.yul\":6574:6598   */\n      tag_396\n        /* \"#utility.yul\":6592:6597   */\n      dup3\n        /* \"#utility.yul\":6574:6598   */\n      tag_265\n      jump\t// in\n    tag_396:\n        /* \"#utility.yul\":6563:6598   */\n      swap1\n      pop\n        /* \"#utility.yul\":6500:6604   */\n      swap2\n      swap1\n      pop\n      jump\t// out\n        /* \"#utility.yul\":6610:6752   */\n    tag_279:\n        /* \"#utility.yul\":6713:6745   */\n      tag_398\n        /* \"#utility.yul\":6739:6744   */\n      dup2\n        /* \"#utility.yul\":6713:6745   */\n      tag_278\n      jump\t// in\n    tag_398:\n        /* \"#utility.yul\":6708:6711   */\n      dup3\n        /* \"#utility.yul\":6701:6746   */\n      mstore\n        /* \"#utility.yul\":6610:6752   */\n      pop\n      pop\n      jump\t// out\n        /* \"#utility.yul\":6758:7012   */\n    tag_126:\n        /* \"#utility.yul\":6867:6871   */\n      0x00\n        /* \"#utility.yul\":6905:6907   */\n      0x20\n        /* \"#utility.yul\":6894:6903   */\n      dup3\n        /* \"#utility.yul\":6890:6908   */\n      add\n        /* \"#utility.yul\":6882:6908   */\n      swap1\n      pop\n        /* \"#utility.yul\":6918:7005   */\n      tag_400\n        /* \"#utility.yul\":7002:7003   */\n      0x00\n        /* \"#utility.yul\":6991:7000   */\n      dup4\n        /* \"#utility.yul\":6987:7004   */\n      add\n        /* \"#utility.yul\":6978:6984   */\n      dup5\n        /* \"#utility.yul\":6918:7005   */\n      tag_279\n      jump\t// in\n    tag_400:\n        /* \"#utility.yul\":6758:7012   */\n      swap3\n      swap2\n      pop\n      pop\n      jump\t// out\n        /* \"#utility.yul\":7018:7140   */\n    tag_280:\n        /* \"#utility.yul\":7093:7099   */\n      0x00\n        /* \"#utility.yul\":7127:7132   */\n      dup2\n        /* \"#utility.yul\":7121:7133   */\n      mload\n        /* \"#utility.yul\":7111:7133   */\n      swap1\n      pop\n        /* \"#utility.yul\":7018:7140   */\n      swap2\n      swap1\n      pop\n      jump\t// out\n        /* \"#utility.yul\":7146:7338   */\n    tag_281:\n        /* \"#utility.yul\":7253:7264   */\n      0x00\n        /* \"#utility.yul\":7287:7293   */\n      dup3\n        /* \"#utility.yul\":7282:7285   */\n      dup3\n        /* \"#utility.yul\":7275:7294   */\n      mstore\n        /* \"#utility.yul\":7327:7331   */\n      0x20\n        /* \"#utility.yul\":7322:7325   */\n      dup3\n        /* \"#utility.yul\":7318:7332   */\n      add\n        /* \"#utility.yul\":7303:7332   */\n      swap1\n      pop\n        /* \"#utility.yul\":7146:7338   */\n      swap3\n      swap2\n      pop\n      pop\n      jump\t// out\n        /* \"#utility.yul\":7344:7484   */\n    tag_282:\n        /* \"#utility.yul\":7419:7423   */\n      0x00\n        /* \"#utility.yul\":7442:7445   */\n      dup2\n        /* \"#utility.yul\":7434:7445   */\n      swap1\n      pop\n        /* \"#utility.yul\":7472:7476   */\n      0x20\n        /* \"#utility.yul\":7467:7470   */\n      dup3\n        /* \"#utility.yul\":7463:7477   */\n      add\n        /* \"#utility.yul\":7455:7477   */\n      swap1\n      pop\n        /* \"#utility.yul\":7344:7484   */\n      swap2\n      swap1\n      pop\n      jump\t// out\n        /* \"#utility.yul\":7490:7622   */\n    tag_283:\n        /* \"#utility.yul\":7583:7615   */\n      tag_405\n        /* \"#utility.yul\":7609:7614   */\n      dup2\n        /* \"#utility.yul\":7583:7615   */\n      tag_278\n      jump\t// in\n    tag_405:\n        /* \"#utility.yul\":7578:7581   */\n      dup3\n        /* \"#utility.yul\":7571:7616   */\n      mstore\n        /* \"#utility.yul\":7490:7622   */\n      pop\n      pop\n      jump\t// out\n        /* \"#utility.yul\":7628:7839   */\n    tag_284:\n        /* \"#utility.yul\":7713:7723   */\n      0x00\n        /* \"#utility.yul\":7734:7796   */\n      tag_407\n        /* \"#utility.yul\":7792:7795   */\n      dup4\n        /* \"#utility.yul\":7784:7790   */\n      dup4\n        /* \"#utility.yul\":7734:7796   */\n      tag_283\n      jump\t// in\n    tag_407:\n        /* \"#utility.yul\":7828:7832   */\n      0x20\n        /* \"#utility.yul\":7823:7826   */\n      dup4\n        /* \"#utility.yul\":7819:7833   */\n      add\n        /* \"#utility.yul\":7805:7833   */\n      swap1\n      pop\n        /* \"#utility.yul\":7628:7839   */\n      swap3\n      swap2\n      pop\n      pop\n      jump\t// out\n        /* \"#utility.yul\":7845:7966   */\n    tag_285:\n        /* \"#utility.yul\":7923:7927   */\n      0x00\n        /* \"#utility.yul\":7955:7959   */\n      0x20\n        /* \"#utility.yul\":7950:7953   */\n      dup3\n        /* \"#utility.yul\":7946:7960   */\n      add\n        /* \"#utility.yul\":7938:7960   */\n      swap1\n      pop\n        /* \"#utility.yul\":7845:7966   */\n      swap2\n      swap1\n      pop\n      jump\t// out\n        /* \"#utility.yul\":8018:8814   */\n    tag_286:\n        /* \"#utility.yul\":8153:8156   */\n      0x00\n        /* \"#utility.yul\":8182:8244   */\n      tag_410\n        /* \"#utility.yul\":8238:8243   */\n      dup3\n        /* \"#utility.yul\":8182:8244   */\n      tag_280\n      jump\t// in\n    tag_410:\n        /* \"#utility.yul\":8260:8354   */\n      tag_411\n        /* \"#utility.yul\":8347:8353   */\n      dup2\n        /* \"#utility.yul\":8342:8345   */\n      dup6\n        /* \"#utility.yul\":8260:8354   */\n      tag_281\n      jump\t// in\n    tag_411:\n        /* \"#utility.yul\":8253:8354   */\n      swap4\n      pop\n        /* \"#utility.yul\":8378:8442   */\n      tag_412\n        /* \"#utility.yul\":8436:8441   */\n      dup4\n        /* \"#utility.yul\":8378:8442   */\n      tag_282\n      jump\t// in\n    tag_412:\n        /* \"#utility.yul\":8465:8472   */\n      dup1\n        /* \"#utility.yul\":8496:8497   */\n      0x00\n        /* \"#utility.yul\":8481:8789   */\n    tag_413:\n        /* \"#utility.yul\":8506:8512   */\n      dup4\n        /* \"#utility.yul\":8503:8504   */\n      dup2\n        /* \"#utility.yul\":8500:8513   */\n      lt\n        /* \"#utility.yul\":8481:8789   */\n      iszero\n      tag_415\n      jumpi\n        /* \"#utility.yul\":8582:8588   */\n      dup2\n        /* \"#utility.yul\":8576:8589   */\n      mload\n        /* \"#utility.yul\":8609:8688   */\n      tag_416\n        /* \"#utility.yul\":8684:8687   */\n      dup9\n        /* \"#utility.yul\":8669:8682   */\n      dup3\n        /* \"#utility.yul\":8609:8688   */\n      tag_284\n      jump\t// in\n    tag_416:\n        /* \"#utility.yul\":8602:8688   */\n      swap8\n      pop\n        /* \"#utility.yul\":8711:8779   */\n      tag_417\n        /* \"#utility.yul\":8772:8778   */\n      dup4\n        /* \"#utility.yul\":8711:8779   */\n      tag_285\n      jump\t// in\n    tag_417:\n        /* \"#utility.yul\":8701:8779   */\n      swap3\n      pop\n        /* \"#utility.yul\":8541:8789   */\n      pop\n        /* \"#utility.yul\":8528:8529   */\n      0x01\n        /* \"#utility.yul\":8525:8526   */\n      dup2\n        /* \"#utility.yul\":8521:8530   */\n      add\n        /* \"#utility.yul\":8516:8530   */\n      swap1\n      pop\n        /* \"#utility.yul\":8481:8789   */\n      jump(tag_413)\n    tag_415:\n        /* \"#utility.yul\":8485:8499   */\n      pop\n        /* \"#utility.yul\":8805:8808   */\n      dup6\n        /* \"#utility.yul\":8798:8808   */\n      swap4\n      pop\n        /* \"#utility.yul\":8158:8814   */\n      pop\n      pop\n      pop\n        /* \"#utility.yul\":8018:8814   */\n      swap3\n      swap2\n      pop\n      pop\n      jump\t// out\n        /* \"#utility.yul\":8820:9225   */\n    tag_136:\n        /* \"#utility.yul\":8979:8983   */\n      0x00\n        /* \"#utility.yul\":9017:9019   */\n      0x20\n        /* \"#utility.yul\":9006:9015   */\n      dup3\n        /* \"#utility.yul\":9002:9020   */\n      add\n        /* \"#utility.yul\":8994:9020   */\n      swap1\n      pop\n        /* \"#utility.yul\":9066:9075   */\n      dup2\n        /* \"#utility.yul\":9060:9064   */\n      dup2\n        /* \"#utility.yul\":9056:9076   */\n      sub\n        /* \"#utility.yul\":9052:9053   */\n      0x00\n        /* \"#utility.yul\":9041:9050   */\n      dup4\n        /* \"#utility.yul\":9037:9054   */\n      add\n        /* \"#utility.yul\":9030:9077   */\n      mstore\n        /* \"#utility.yul\":9094:9218   */\n      tag_419\n        /* \"#utility.yul\":9213:9217   */\n      dup2\n        /* \"#utility.yul\":9204:9210   */\n      dup5\n        /* \"#utility.yul\":9094:9218   */\n      tag_286\n      jump\t// in\n    tag_419:\n        /* \"#utility.yul\":9086:9218   */\n      swap1\n      pop\n        /* \"#utility.yul\":8820:9225   */\n      swap3\n      swap2\n      pop\n      pop\n      jump\t// out\n        /* \"#utility.yul\":9231:9411   */\n    tag_287:\n        /* \"#utility.yul\":9279:9356   */\n      0x4e487b7100000000000000000000000000000000000000000000000000000000\n        /* \"#utility.yul\":9276:9277   */\n      0x00\n        /* \"#utility.yul\":9269:9357   */\n      mstore\n        /* \"#utility.yul\":9376:9380   */\n      0x22\n        /* \"#utility.yul\":9373:9374   */\n      0x04\n        /* \"#utility.yul\":9366:9381   */\n      mstore\n        /* \"#utility.yul\":9400:9404   */\n      0x24\n        /* \"#utility.yul\":9397:9398   */\n      0x00\n        /* \"#utility.yul\":9390:9405   */\n      revert\n        /* \"#utility.yul\":9417:9737   */\n    tag_138:\n        /* \"#utility.yul\":9461:9467   */\n      0x00\n        /* \"#utility.yul\":9498:9499   */\n      0x02\n        /* \"#utility.yul\":9492:9496   */\n      dup3\n        /* \"#utility.yul\":9488:9500   */\n      div\n        /* \"#utility.yul\":9478:9500   */\n      swap1\n      pop\n        /* \"#utility.yul\":9545:9546   */\n      0x01\n        /* \"#utility.yul\":9539:9543   */\n      dup3\n        /* \"#utility.yul\":9535:9547   */\n      and\n        /* \"#utility.yul\":9566:9584   */\n      dup1\n        /* \"#utility.yul\":9556:9637   */\n      tag_422\n      jumpi\n        /* \"#utility.yul\":9622:9626   */\n      0x7f\n        /* \"#utility.yul\":9614:9620   */\n      dup3\n        /* \"#utility.yul\":9610:9627   */\n      and\n        /* \"#utility.yul\":9600:9627   */\n      swap2\n      pop\n        /* \"#utility.yul\":9556:9637   */\n    tag_422:\n        /* \"#utility.yul\":9684:9686   */\n      0x20\n        /* \"#utility.yul\":9676:9682   */\n      dup3\n        /* \"#utility.yul\":9673:9687   */\n      lt\n        /* \"#utility.yul\":9653:9671   */\n      dup2\n        /* \"#utility.yul\":9650:9688   */\n      sub\n        /* \"#utility.yul\":9647:9731   */\n      tag_423\n      jumpi\n        /* \"#utility.yul\":9703:9721   */\n      tag_424\n      tag_287\n      jump\t// in\n    tag_424:\n        /* \"#utility.yul\":9647:9731   */\n    tag_423:\n        /* \"#utility.yul\":9468:9737   */\n      pop\n        /* \"#utility.yul\":9417:9737   */\n      swap2\n      swap1\n      pop\n      jump\t// out\n        /* \"#utility.yul\":9743:9971   */\n    tag_288:\n        /* \"#utility.yul\":9883:9917   */\n      0x4174206c65617374206f6e65206c6f7474657279207469636b6574206d757374\n        /* \"#utility.yul\":9879:9880   */\n      0x00\n        /* \"#utility.yul\":9871:9877   */\n      dup3\n        /* \"#utility.yul\":9867:9881   */\n      add\n        /* \"#utility.yul\":9860:9918   */\n      mstore\n        /* \"#utility.yul\":9952:9963   */\n      0x20626520736f6c642e0000000000000000000000000000000000000000000000\n        /* \"#utility.yul\":9947:9949   */\n      0x20\n        /* \"#utility.yul\":9939:9945   */\n      dup3\n        /* \"#utility.yul\":9935:9950   */\n      add\n        /* \"#utility.yul\":9928:9964   */\n      mstore\n        /* \"#utility.yul\":9743:9971   */\n      pop\n      jump\t// out\n        /* \"#utility.yul\":9977:10343   */\n    tag_289:\n        /* \"#utility.yul\":10119:10122   */\n      0x00\n        /* \"#utility.yul\":10140:10207   */\n      tag_427\n        /* \"#utility.yul\":10204:10206   */\n      0x29\n        /* \"#utility.yul\":10199:10202   */\n      dup4\n        /* \"#utility.yul\":10140:10207   */\n      tag_258\n      jump\t// in\n    tag_427:\n        /* \"#utility.yul\":10133:10207   */\n      swap2\n      pop\n        /* \"#utility.yul\":10216:10309   */\n      tag_428\n        /* \"#utility.yul\":10305:10308   */\n      dup3\n        /* \"#utility.yul\":10216:10309   */\n      tag_288\n      jump\t// in\n    tag_428:\n        /* \"#utility.yul\":10334:10336   */\n      0x40\n        /* \"#utility.yul\":10329:10332   */\n      dup3\n        /* \"#utility.yul\":10325:10337   */\n      add\n        /* \"#utility.yul\":10318:10337   */\n      swap1\n      pop\n        /* \"#utility.yul\":9977:10343   */\n      swap2\n      swap1\n      pop\n      jump\t// out\n        /* \"#utility.yul\":10349:10768   */\n    tag_150:\n        /* \"#utility.yul\":10515:10519   */\n      0x00\n        /* \"#utility.yul\":10553:10555   */\n      0x20\n        /* \"#utility.yul\":10542:10551   */\n      dup3\n        /* \"#utility.yul\":10538:10556   */\n      add\n        /* \"#utility.yul\":10530:10556   */\n      swap1\n      pop\n        /* \"#utility.yul\":10602:10611   */\n      dup2\n        /* \"#utility.yul\":10596:10600   */\n      dup2\n        /* \"#utility.yul\":10592:10612   */\n      sub\n        /* \"#utility.yul\":10588:10589   */\n      0x00\n        /* \"#utility.yul\":10577:10586   */\n      dup4\n        /* \"#utility.yul\":10573:10590   */\n      add\n        /* \"#utility.yul\":10566:10613   */\n      mstore\n        /* \"#utility.yul\":10630:10761   */\n      tag_430\n        /* \"#utility.yul\":10756:10760   */\n      dup2\n        /* \"#utility.yul\":10630:10761   */\n      tag_289\n      jump\t// in\n    tag_430:\n        /* \"#utility.yul\":10622:10761   */\n      swap1\n      pop\n        /* \"#utility.yul\":10349:10768   */\n      swap2\n      swap1\n      pop\n      jump\t// out\n        /* \"#utility.yul\":10774:10954   */\n    tag_290:\n        /* \"#utility.yul\":10822:10899   */\n      0x4e487b7100000000000000000000000000000000000000000000000000000000\n        /* \"#utility.yul\":10819:10820   */\n      0x00\n        /* \"#utility.yul\":10812:10900   */\n      mstore\n        /* \"#utility.yul\":10919:10923   */\n      0x11\n        /* \"#utility.yul\":10916:10917   */\n      0x04\n        /* \"#utility.yul\":10909:10924   */\n      mstore\n        /* \"#utility.yul\":10943:10947   */\n      0x24\n        /* \"#utility.yul\":10940:10941   */\n      0x00\n        /* \"#utility.yul\":10933:10948   */\n      revert\n        /* \"#utility.yul\":10960:11151   */\n    tag_152:\n        /* \"#utility.yul\":11000:11003   */\n      0x00\n        /* \"#utility.yul\":11019:11039   */\n      tag_433\n        /* \"#utility.yul\":11037:11038   */\n      dup3\n        /* \"#utility.yul\":11019:11039   */\n      tag_269\n      jump\t// in\n    tag_433:\n        /* \"#utility.yul\":11014:11039   */\n      swap2\n      pop\n        /* \"#utility.yul\":11053:11073   */\n      tag_434\n        /* \"#utility.yul\":11071:11072   */\n      dup4\n        /* \"#utility.yul\":11053:11073   */\n      tag_269\n      jump\t// in\n    tag_434:\n        /* \"#utility.yul\":11048:11073   */\n      swap3\n      pop\n        /* \"#utility.yul\":11096:11097   */\n      dup3\n        /* \"#utility.yul\":11093:11094   */\n      dup3\n        /* \"#utility.yul\":11089:11098   */\n      add\n        /* \"#utility.yul\":11082:11098   */\n      swap1\n      pop\n        /* \"#utility.yul\":11117:11120   */\n      dup1\n        /* \"#utility.yul\":11114:11115   */\n      dup3\n        /* \"#utility.yul\":11111:11121   */\n      gt\n        /* \"#utility.yul\":11108:11144   */\n      iszero\n      tag_435\n      jumpi\n        /* \"#utility.yul\":11124:11142   */\n      tag_436\n      tag_290\n      jump\t// in\n    tag_436:\n        /* \"#utility.yul\":11108:11144   */\n    tag_435:\n        /* \"#utility.yul\":10960:11151   */\n      swap3\n      swap2\n      pop\n      pop\n      jump\t// out\n        /* \"#utility.yul\":11157:11460   */\n    tag_291:\n        /* \"#utility.yul\":11297:11331   */\n      0x5468652062616e6b65722063616e6e6f742063616c6c20746865206472617720\n        /* \"#utility.yul\":11293:11294   */\n      0x00\n        /* \"#utility.yul\":11285:11291   */\n      dup3\n        /* \"#utility.yul\":11281:11295   */\n      add\n        /* \"#utility.yul\":11274:11332   */\n      mstore\n        /* \"#utility.yul\":11366:11400   */\n      0x66756e6374696f6e2077697468696e2033206d696e75746573206f6620746865\n        /* \"#utility.yul\":11361:11363   */\n      0x20\n        /* \"#utility.yul\":11353:11359   */\n      dup3\n        /* \"#utility.yul\":11349:11364   */\n      add\n        /* \"#utility.yul\":11342:11401   */\n      mstore\n        /* \"#utility.yul\":11435:11452   */\n      0x2070726576696f757320647261772e0000000000000000000000000000000000\n        /* \"#utility.yul\":11430:11432   */\n      0x40\n        /* \"#utility.yul\":11422:11428   */\n      dup3\n        /* \"#utility.yul\":11418:11433   */\n      add\n        /* \"#utility.yul\":11411:11453   */\n      mstore\n        /* \"#utility.yul\":11157:11460   */\n      pop\n      jump\t// out\n        /* \"#utility.yul\":11466:11832   */\n    tag_292:\n        /* \"#utility.yul\":11608:11611   */\n      0x00\n        /* \"#utility.yul\":11629:11696   */\n      tag_439\n        /* \"#utility.yul\":11693:11695   */\n      0x4f\n        /* \"#utility.yul\":11688:11691   */\n      dup4\n        /* \"#utility.yul\":11629:11696   */\n      tag_258\n      jump\t// in\n    tag_439:\n        /* \"#utility.yul\":11622:11696   */\n      swap2\n      pop\n        /* \"#utility.yul\":11705:11798   */\n      tag_440\n        /* \"#utility.yul\":11794:11797   */\n      dup3\n        /* \"#utility.yul\":11705:11798   */\n      tag_291\n      jump\t// in\n    tag_440:\n        /* \"#utility.yul\":11823:11825   */\n      0x60\n        /* \"#utility.yul\":11818:11821   */\n      dup3\n        /* \"#utility.yul\":11814:11826   */\n      add\n        /* \"#utility.yul\":11807:11826   */\n      swap1\n      pop\n        /* \"#utility.yul\":11466:11832   */\n      swap2\n      swap1\n      pop\n      jump\t// out\n        /* \"#utility.yul\":11838:12257   */\n    tag_155:\n        /* \"#utility.yul\":12004:12008   */\n      0x00\n        /* \"#utility.yul\":12042:12044   */\n      0x20\n        /* \"#utility.yul\":12031:12040   */\n      dup3\n        /* \"#utility.yul\":12027:12045   */\n      add\n        /* \"#utility.yul\":12019:12045   */\n      swap1\n      pop\n        /* \"#utility.yul\":12091:12100   */\n      dup2\n        /* \"#utility.yul\":12085:12089   */\n      dup2\n        /* \"#utility.yul\":12081:12101   */\n      sub\n        /* \"#utility.yul\":12077:12078   */\n      0x00\n        /* \"#utility.yul\":12066:12075   */\n      dup4\n        /* \"#utility.yul\":12062:12079   */\n      add\n        /* \"#utility.yul\":12055:12102   */\n      mstore\n        /* \"#utility.yul\":12119:12250   */\n      tag_442\n        /* \"#utility.yul\":12245:12249   */\n      dup2\n        /* \"#utility.yul\":12119:12250   */\n      tag_292\n      jump\t// in\n    tag_442:\n        /* \"#utility.yul\":12111:12250   */\n      swap1\n      pop\n        /* \"#utility.yul\":11838:12257   */\n      swap2\n      swap1\n      pop\n      jump\t// out\n        /* \"#utility.yul\":12263:12443   */\n    tag_293:\n        /* \"#utility.yul\":12311:12388   */\n      0x4e487b7100000000000000000000000000000000000000000000000000000000\n        /* \"#utility.yul\":12308:12309   */\n      0x00\n        /* \"#utility.yul\":12301:12389   */\n      mstore\n        /* \"#utility.yul\":12408:12412   */\n      0x12\n        /* \"#utility.yul\":12405:12406   */\n      0x04\n        /* \"#utility.yul\":12398:12413   */\n      mstore\n        /* \"#utility.yul\":12432:12436   */\n      0x24\n        /* \"#utility.yul\":12429:12430   */\n      0x00\n        /* \"#utility.yul\":12422:12437   */\n      revert\n        /* \"#utility.yul\":12449:12625   */\n    tag_158:\n        /* \"#utility.yul\":12481:12482   */\n      0x00\n        /* \"#utility.yul\":12498:12518   */\n      tag_445\n        /* \"#utility.yul\":12516:12517   */\n      dup3\n        /* \"#utility.yul\":12498:12518   */\n      tag_269\n      jump\t// in\n    tag_445:\n        /* \"#utility.yul\":12493:12518   */\n      swap2\n      pop\n        /* \"#utility.yul\":12532:12552   */\n      tag_446\n        /* \"#utility.yul\":12550:12551   */\n      dup4\n        /* \"#utility.yul\":12532:12552   */\n      tag_269\n      jump\t// in\n    tag_446:\n        /* \"#utility.yul\":12527:12552   */\n      swap3\n      pop\n        /* \"#utility.yul\":12571:12572   */\n      dup3\n        /* \"#utility.yul\":12561:12596   */\n      tag_447\n      jumpi\n        /* \"#utility.yul\":12576:12594   */\n      tag_448\n      tag_293\n      jump\t// in\n    tag_448:\n        /* \"#utility.yul\":12561:12596   */\n    tag_447:\n        /* \"#utility.yul\":12617:12618   */\n      dup3\n        /* \"#utility.yul\":12614:12615   */\n      dup3\n        /* \"#utility.yul\":12610:12619   */\n      mod\n        /* \"#utility.yul\":12605:12619   */\n      swap1\n      pop\n        /* \"#utility.yul\":12449:12625   */\n      swap3\n      swap2\n      pop\n      pop\n      jump\t// out\n        /* \"#utility.yul\":12631:12811   */\n    tag_161:\n        /* \"#utility.yul\":12679:12756   */\n      0x4e487b7100000000000000000000000000000000000000000000000000000000\n        /* \"#utility.yul\":12676:12677   */\n      0x00\n        /* \"#utility.yul\":12669:12757   */\n      mstore\n        /* \"#utility.yul\":12776:12780   */\n      0x32\n        /* \"#utility.yul\":12773:12774   */\n      0x04\n        /* \"#utility.yul\":12766:12781   */\n      mstore\n        /* \"#utility.yul\":12800:12804   */\n      0x24\n        /* \"#utility.yul\":12797:12798   */\n      0x00\n        /* \"#utility.yul\":12790:12805   */\n      revert\n        /* \"#utility.yul\":12817:13227   */\n    tag_164:\n        /* \"#utility.yul\":12857:12864   */\n      0x00\n        /* \"#utility.yul\":12880:12900   */\n      tag_451\n        /* \"#utility.yul\":12898:12899   */\n      dup3\n        /* \"#utility.yul\":12880:12900   */\n      tag_269\n      jump\t// in\n    tag_451:\n        /* \"#utility.yul\":12875:12900   */\n      swap2\n      pop\n        /* \"#utility.yul\":12914:12934   */\n      tag_452\n        /* \"#utility.yul\":12932:12933   */\n      dup4\n        /* \"#utility.yul\":12914:12934   */\n      tag_269\n      jump\t// in\n    tag_452:\n        /* \"#utility.yul\":12909:12934   */\n      swap3\n      pop\n        /* \"#utility.yul\":12969:12970   */\n      dup3\n        /* \"#utility.yul\":12966:12967   */\n      dup3\n        /* \"#utility.yul\":12962:12971   */\n      mul\n        /* \"#utility.yul\":12991:13021   */\n      tag_453\n        /* \"#utility.yul\":13009:13020   */\n      dup2\n        /* \"#utility.yul\":12991:13021   */\n      tag_269\n      jump\t// in\n    tag_453:\n        /* \"#utility.yul\":12980:13021   */\n      swap2\n      pop\n        /* \"#utility.yul\":13170:13171   */\n      dup3\n        /* \"#utility.yul\":13161:13168   */\n      dup3\n        /* \"#utility.yul\":13157:13172   */\n      div\n        /* \"#utility.yul\":13154:13155   */\n      dup5\n        /* \"#utility.yul\":13151:13173   */\n      eq\n        /* \"#utility.yul\":13131:13132   */\n      dup4\n        /* \"#utility.yul\":13124:13133   */\n      iszero\n        /* \"#utility.yul\":13104:13187   */\n      or\n        /* \"#utility.yul\":13081:13220   */\n      tag_454\n      jumpi\n        /* \"#utility.yul\":13200:13218   */\n      tag_455\n      tag_290\n      jump\t// in\n    tag_455:\n        /* \"#utility.yul\":13081:13220   */\n    tag_454:\n        /* \"#utility.yul\":12865:13227   */\n      pop\n        /* \"#utility.yul\":12817:13227   */\n      swap3\n      swap2\n      pop\n      pop\n      jump\t// out\n        /* \"#utility.yul\":13233:13418   */\n    tag_166:\n        /* \"#utility.yul\":13273:13274   */\n      0x00\n        /* \"#utility.yul\":13290:13310   */\n      tag_457\n        /* \"#utility.yul\":13308:13309   */\n      dup3\n        /* \"#utility.yul\":13290:13310   */\n      tag_269\n      jump\t// in\n    tag_457:\n        /* \"#utility.yul\":13285:13310   */\n      swap2\n      pop\n        /* \"#utility.yul\":13324:13344   */\n      tag_458\n        /* \"#utility.yul\":13342:13343   */\n      dup4\n        /* \"#utility.yul\":13324:13344   */\n      tag_269\n      jump\t// in\n    tag_458:\n        /* \"#utility.yul\":13319:13344   */\n      swap3\n      pop\n        /* \"#utility.yul\":13363:13364   */\n      dup3\n        /* \"#utility.yul\":13353:13388   */\n      tag_459\n      jumpi\n        /* \"#utility.yul\":13368:13386   */\n      tag_460\n      tag_293\n      jump\t// in\n    tag_460:\n        /* \"#utility.yul\":13353:13388   */\n    tag_459:\n        /* \"#utility.yul\":13410:13411   */\n      dup3\n        /* \"#utility.yul\":13407:13408   */\n      dup3\n        /* \"#utility.yul\":13403:13412   */\n      div\n        /* \"#utility.yul\":13398:13412   */\n      swap1\n      pop\n        /* \"#utility.yul\":13233:13418   */\n      swap3\n      swap2\n      pop\n      pop\n      jump\t// out\n        /* \"#utility.yul\":13424:13618   */\n    tag_172:\n        /* \"#utility.yul\":13464:13468   */\n      0x00\n        /* \"#utility.yul\":13484:13504   */\n      tag_462\n        /* \"#utility.yul\":13502:13503   */\n      dup3\n        /* \"#utility.yul\":13484:13504   */\n      tag_269\n      jump\t// in\n    tag_462:\n        /* \"#utility.yul\":13479:13504   */\n      swap2\n      pop\n        /* \"#utility.yul\":13518:13538   */\n      tag_463\n        /* \"#utility.yul\":13536:13537   */\n      dup4\n        /* \"#utility.yul\":13518:13538   */\n      tag_269\n      jump\t// in\n    tag_463:\n        /* \"#utility.yul\":13513:13538   */\n      swap3\n      pop\n        /* \"#utility.yul\":13562:13563   */\n      dup3\n        /* \"#utility.yul\":13559:13560   */\n      dup3\n        /* \"#utility.yul\":13555:13564   */\n      sub\n        /* \"#utility.yul\":13547:13564   */\n      swap1\n      pop\n        /* \"#utility.yul\":13586:13587   */\n      dup2\n        /* \"#utility.yul\":13580:13584   */\n      dup2\n        /* \"#utility.yul\":13577:13588   */\n      gt\n        /* \"#utility.yul\":13574:13611   */\n      iszero\n      tag_464\n      jumpi\n        /* \"#utility.yul\":13591:13609   */\n      tag_465\n      tag_290\n      jump\t// in\n    tag_465:\n        /* \"#utility.yul\":13574:13611   */\n    tag_464:\n        /* \"#utility.yul\":13424:13618   */\n      swap3\n      swap2\n      pop\n      pop\n      jump\t// out\n        /* \"#utility.yul\":13624:13855   */\n    tag_294:\n        /* \"#utility.yul\":13764:13798   */\n      0x546865206f776e65722063616e6e6f7420706172746963697061746520696e20\n        /* \"#utility.yul\":13760:13761   */\n      0x00\n        /* \"#utility.yul\":13752:13758   */\n      dup3\n        /* \"#utility.yul\":13748:13762   */\n      add\n        /* \"#utility.yul\":13741:13799   */\n      mstore\n        /* \"#utility.yul\":13833:13847   */\n      0x746865206c6f74746572792e0000000000000000000000000000000000000000\n        /* \"#utility.yul\":13828:13830   */\n      0x20\n        /* \"#utility.yul\":13820:13826   */\n      dup3\n        /* \"#utility.yul\":13816:13831   */\n      add\n        /* \"#utility.yul\":13809:13848   */\n      mstore\n        /* \"#utility.yul\":13624:13855   */\n      pop\n      jump\t// out\n        /* \"#utility.yul\":13861:14227   */\n    tag_295:\n        /* \"#utility.yul\":14003:14006   */\n      0x00\n        /* \"#utility.yul\":14024:14091   */\n      tag_468\n        /* \"#utility.yul\":14088:14090   */\n      0x2c\n        /* \"#utility.yul\":14083:14086   */\n      dup4\n        /* \"#utility.yul\":14024:14091   */\n      tag_258\n      jump\t// in\n    tag_468:\n        /* \"#utility.yul\":14017:14091   */\n      swap2\n      pop\n        /* \"#utility.yul\":14100:14193   */\n      tag_469\n        /* \"#utility.yul\":14189:14192   */\n      dup3\n        /* \"#utility.yul\":14100:14193   */\n      tag_294\n      jump\t// in\n    tag_469:\n        /* \"#utility.yul\":14218:14220   */\n      0x40\n        /* \"#utility.yul\":14213:14216   */\n      dup3\n        /* \"#utility.yul\":14209:14221   */\n      add\n        /* \"#utility.yul\":14202:14221   */\n      swap1\n      pop\n        /* \"#utility.yul\":13861:14227   */\n      swap2\n      swap1\n      pop\n      jump\t// out\n        /* \"#utility.yul\":14233:14652   */\n    tag_181:\n        /* \"#utility.yul\":14399:14403   */\n      0x00\n        /* \"#utility.yul\":14437:14439   */\n      0x20\n        /* \"#utility.yul\":14426:14435   */\n      dup3\n        /* \"#utility.yul\":14422:14440   */\n      add\n        /* \"#utility.yul\":14414:14440   */\n      swap1\n      pop\n        /* \"#utility.yul\":14486:14495   */\n      dup2\n        /* \"#utility.yul\":14480:14484   */\n      dup2\n        /* \"#utility.yul\":14476:14496   */\n      sub\n        /* \"#utility.yul\":14472:14473   */\n      0x00\n        /* \"#utility.yul\":14461:14470   */\n      dup4\n        /* \"#utility.yul\":14457:14474   */\n      add\n        /* \"#utility.yul\":14450:14497   */\n      mstore\n        /* \"#utility.yul\":14514:14645   */\n      tag_471\n        /* \"#utility.yul\":14640:14644   */\n      dup2\n        /* \"#utility.yul\":14514:14645   */\n      tag_295\n      jump\t// in\n    tag_471:\n        /* \"#utility.yul\":14506:14645   */\n      swap1\n      pop\n        /* \"#utility.yul\":14233:14652   */\n      swap2\n      swap1\n      pop\n      jump\t// out\n        /* \"#utility.yul\":14658:14881   */\n    tag_296:\n        /* \"#utility.yul\":14798:14832   */\n      0x5468652062657420616d6f756e742073686f756c642062652031303020746f6b\n        /* \"#utility.yul\":14794:14795   */\n      0x00\n        /* \"#utility.yul\":14786:14792   */\n      dup3\n        /* \"#utility.yul\":14782:14796   */\n      add\n        /* \"#utility.yul\":14775:14833   */\n      mstore\n        /* \"#utility.yul\":14867:14873   */\n      0x656e732e00000000000000000000000000000000000000000000000000000000\n        /* \"#utility.yul\":14862:14864   */\n      0x20\n        /* \"#utility.yul\":14854:14860   */\n      dup3\n        /* \"#utility.yul\":14850:14865   */\n      add\n        /* \"#utility.yul\":14843:14874   */\n      mstore\n        /* \"#utility.yul\":14658:14881   */\n      pop\n      jump\t// out\n        /* \"#utility.yul\":14887:15253   */\n    tag_297:\n        /* \"#utility.yul\":15029:15032   */\n      0x00\n        /* \"#utility.yul\":15050:15117   */\n      tag_474\n        /* \"#utility.yul\":15114:15116   */\n      0x24\n        /* \"#utility.yul\":15109:15112   */\n      dup4\n        /* \"#utility.yul\":15050:15117   */\n      tag_258\n      jump\t// in\n    tag_474:\n        /* \"#utility.yul\":15043:15117   */\n      swap2\n      pop\n        /* \"#utility.yul\":15126:15219   */\n      tag_475\n        /* \"#utility.yul\":15215:15218   */\n      dup3\n        /* \"#utility.yul\":15126:15219   */\n      tag_296\n      jump\t// in\n    tag_475:\n        /* \"#utility.yul\":15244:15246   */\n      0x40\n        /* \"#utility.yul\":15239:15242   */\n      dup3\n        /* \"#utility.yul\":15235:15247   */\n      add\n        /* \"#utility.yul\":15228:15247   */\n      swap1\n      pop\n        /* \"#utility.yul\":14887:15253   */\n      swap2\n      swap1\n      pop\n      jump\t// out\n        /* \"#utility.yul\":15259:15678   */\n    tag_184:\n        /* \"#utility.yul\":15425:15429   */\n      0x00\n        /* \"#utility.yul\":15463:15465   */\n      0x20\n        /* \"#utility.yul\":15452:15461   */\n      dup3\n        /* \"#utility.yul\":15448:15466   */\n      add\n        /* \"#utility.yul\":15440:15466   */\n      swap1\n      pop\n        /* \"#utility.yul\":15512:15521   */\n      dup2\n        /* \"#utility.yul\":15506:15510   */\n      dup2\n        /* \"#utility.yul\":15502:15522   */\n      sub\n        /* \"#utility.yul\":15498:15499   */\n      0x00\n        /* \"#utility.yul\":15487:15496   */\n      dup4\n        /* \"#utility.yul\":15483:15500   */\n      add\n        /* \"#utility.yul\":15476:15523   */\n      mstore\n        /* \"#utility.yul\":15540:15671   */\n      tag_477\n        /* \"#utility.yul\":15666:15670   */\n      dup2\n        /* \"#utility.yul\":15540:15671   */\n      tag_297\n      jump\t// in\n    tag_477:\n        /* \"#utility.yul\":15532:15671   */\n      swap1\n      pop\n        /* \"#utility.yul\":15259:15678   */\n      swap2\n      swap1\n      pop\n      jump\t// out\n        /* \"#utility.yul\":15684:15863   */\n    tag_298:\n        /* \"#utility.yul\":15824:15855   */\n      0x4e6f7420656e6f75676820746f6b656e20666f72206c6f74746572792e000000\n        /* \"#utility.yul\":15820:15821   */\n      0x00\n        /* \"#utility.yul\":15812:15818   */\n      dup3\n        /* \"#utility.yul\":15808:15822   */\n      add\n        /* \"#utility.yul\":15801:15856   */\n      mstore\n        /* \"#utility.yul\":15684:15863   */\n      pop\n      jump\t// out\n        /* \"#utility.yul\":15869:16235   */\n    tag_299:\n        /* \"#utility.yul\":16011:16014   */\n      0x00\n        /* \"#utility.yul\":16032:16099   */\n      tag_480\n        /* \"#utility.yul\":16096:16098   */\n      0x1d\n        /* \"#utility.yul\":16091:16094   */\n      dup4\n        /* \"#utility.yul\":16032:16099   */\n      tag_258\n      jump\t// in\n    tag_480:\n        /* \"#utility.yul\":16025:16099   */\n      swap2\n      pop\n        /* \"#utility.yul\":16108:16201   */\n      tag_481\n        /* \"#utility.yul\":16197:16200   */\n      dup3\n        /* \"#utility.yul\":16108:16201   */\n      tag_298\n      jump\t// in\n    tag_481:\n        /* \"#utility.yul\":16226:16228   */\n      0x20\n        /* \"#utility.yul\":16221:16224   */\n      dup3\n        /* \"#utility.yul\":16217:16229   */\n      add\n        /* \"#utility.yul\":16210:16229   */\n      swap1\n      pop\n        /* \"#utility.yul\":15869:16235   */\n      swap2\n      swap1\n      pop\n      jump\t// out\n        /* \"#utility.yul\":16241:16660   */\n    tag_187:\n        /* \"#utility.yul\":16407:16411   */\n      0x00\n        /* \"#utility.yul\":16445:16447   */\n      0x20\n        /* \"#utility.yul\":16434:16443   */\n      dup3\n        /* \"#utility.yul\":16430:16448   */\n      add\n        /* \"#utility.yul\":16422:16448   */\n      swap1\n      pop\n        /* \"#utility.yul\":16494:16503   */\n      dup2\n        /* \"#utility.yul\":16488:16492   */\n      dup2\n        /* \"#utility.yul\":16484:16504   */\n      sub\n        /* \"#utility.yul\":16480:16481   */\n      0x00\n        /* \"#utility.yul\":16469:16478   */\n      dup4\n        /* \"#utility.yul\":16465:16482   */\n      add\n        /* \"#utility.yul\":16458:16505   */\n      mstore\n        /* \"#utility.yul\":16522:16653   */\n      tag_483\n        /* \"#utility.yul\":16648:16652   */\n      dup2\n        /* \"#utility.yul\":16522:16653   */\n      tag_299\n      jump\t// in\n    tag_483:\n        /* \"#utility.yul\":16514:16653   */\n      swap1\n      pop\n        /* \"#utility.yul\":16241:16660   */\n      swap2\n      swap1\n      pop\n      jump\t// out\n        /* \"#utility.yul\":16666:16847   */\n    tag_300:\n        /* \"#utility.yul\":16806:16839   */\n      0x546f74616c20706f74206578636565647320746f6b656e20737570706c792e00\n        /* \"#utility.yul\":16802:16803   */\n      0x00\n        /* \"#utility.yul\":16794:16800   */\n      dup3\n        /* \"#utility.yul\":16790:16804   */\n      add\n        /* \"#utility.yul\":16783:16840   */\n      mstore\n        /* \"#utility.yul\":16666:16847   */\n      pop\n      jump\t// out\n        /* \"#utility.yul\":16853:17219   */\n    tag_301:\n        /* \"#utility.yul\":16995:16998   */\n      0x00\n        /* \"#utility.yul\":17016:17083   */\n      tag_486\n        /* \"#utility.yul\":17080:17082   */\n      0x1f\n        /* \"#utility.yul\":17075:17078   */\n      dup4\n        /* \"#utility.yul\":17016:17083   */\n      tag_258\n      jump\t// in\n    tag_486:\n        /* \"#utility.yul\":17009:17083   */\n      swap2\n      pop\n        /* \"#utility.yul\":17092:17185   */\n      tag_487\n        /* \"#utility.yul\":17181:17184   */\n      dup3\n        /* \"#utility.yul\":17092:17185   */\n      tag_300\n      jump\t// in\n    tag_487:\n        /* \"#utility.yul\":17210:17212   */\n      0x20\n        /* \"#utility.yul\":17205:17208   */\n      dup3\n        /* \"#utility.yul\":17201:17213   */\n      add\n        /* \"#utility.yul\":17194:17213   */\n      swap1\n      pop\n        /* \"#utility.yul\":16853:17219   */\n      swap2\n      swap1\n      pop\n      jump\t// out\n        /* \"#utility.yul\":17225:17644   */\n    tag_191:\n        /* \"#utility.yul\":17391:17395   */\n      0x00\n        /* \"#utility.yul\":17429:17431   */\n      0x20\n        /* \"#utility.yul\":17418:17427   */\n      dup3\n        /* \"#utility.yul\":17414:17432   */\n      add\n        /* \"#utility.yul\":17406:17432   */\n      swap1\n      pop\n        /* \"#utility.yul\":17478:17487   */\n      dup2\n        /* \"#utility.yul\":17472:17476   */\n      dup2\n        /* \"#utility.yul\":17468:17488   */\n      sub\n        /* \"#utility.yul\":17464:17465   */\n      0x00\n        /* \"#utility.yul\":17453:17462   */\n      dup4\n        /* \"#utility.yul\":17449:17466   */\n      add\n        /* \"#utility.yul\":17442:17489   */\n      mstore\n        /* \"#utility.yul\":17506:17637   */\n      tag_489\n        /* \"#utility.yul\":17632:17636   */\n      dup2\n        /* \"#utility.yul\":17506:17637   */\n      tag_301\n      jump\t// in\n    tag_489:\n        /* \"#utility.yul\":17498:17637   */\n      swap1\n      pop\n        /* \"#utility.yul\":17225:17644   */\n      swap2\n      swap1\n      pop\n      jump\t// out\n        /* \"#utility.yul\":17650:17729   */\n    tag_302:\n        /* \"#utility.yul\":17689:17696   */\n      0x00\n        /* \"#utility.yul\":17718:17723   */\n      dup2\n        /* \"#utility.yul\":17707:17723   */\n      swap1\n      pop\n        /* \"#utility.yul\":17650:17729   */\n      swap2\n      swap1\n      pop\n      jump\t// out\n        /* \"#utility.yul\":17735:17892   */\n    tag_303:\n        /* \"#utility.yul\":17840:17885   */\n      tag_492\n        /* \"#utility.yul\":17860:17884   */\n      tag_493\n        /* \"#utility.yul\":17878:17883   */\n      dup3\n        /* \"#utility.yul\":17860:17884   */\n      tag_269\n      jump\t// in\n    tag_493:\n        /* \"#utility.yul\":17840:17885   */\n      tag_302\n      jump\t// in\n    tag_492:\n        /* \"#utility.yul\":17835:17838   */\n      dup3\n        /* \"#utility.yul\":17828:17886   */\n      mstore\n        /* \"#utility.yul\":17735:17892   */\n      pop\n      pop\n      jump\t// out\n        /* \"#utility.yul\":17898:17992   */\n    tag_304:\n        /* \"#utility.yul\":17931:17939   */\n      0x00\n        /* \"#utility.yul\":17979:17984   */\n      dup2\n        /* \"#utility.yul\":17975:17977   */\n      0x60\n        /* \"#utility.yul\":17971:17985   */\n      shl\n        /* \"#utility.yul\":17950:17985   */\n      swap1\n      pop\n        /* \"#utility.yul\":17898:17992   */\n      swap2\n      swap1\n      pop\n      jump\t// out\n        /* \"#utility.yul\":17998:18092   */\n    tag_305:\n        /* \"#utility.yul\":18037:18044   */\n      0x00\n        /* \"#utility.yul\":18066:18086   */\n      tag_496\n        /* \"#utility.yul\":18080:18085   */\n      dup3\n        /* \"#utility.yul\":18066:18086   */\n      tag_304\n      jump\t// in\n    tag_496:\n        /* \"#utility.yul\":18055:18086   */\n      swap1\n      pop\n        /* \"#utility.yul\":17998:18092   */\n      swap2\n      swap1\n      pop\n      jump\t// out\n        /* \"#utility.yul\":18098:18198   */\n    tag_306:\n        /* \"#utility.yul\":18137:18144   */\n      0x00\n        /* \"#utility.yul\":18166:18192   */\n      tag_498\n        /* \"#utility.yul\":18186:18191   */\n      dup3\n        /* \"#utility.yul\":18166:18192   */\n      tag_305\n      jump\t// in\n    tag_498:\n        /* \"#utility.yul\":18155:18192   */\n      swap1\n      pop\n        /* \"#utility.yul\":18098:18198   */\n      swap2\n      swap1\n      pop\n      jump\t// out\n        /* \"#utility.yul\":18204:18361   */\n    tag_307:\n        /* \"#utility.yul\":18309:18354   */\n      tag_500\n        /* \"#utility.yul\":18329:18353   */\n      tag_501\n        /* \"#utility.yul\":18347:18352   */\n      dup3\n        /* \"#utility.yul\":18329:18353   */\n      tag_266\n      jump\t// in\n    tag_501:\n        /* \"#utility.yul\":18309:18354   */\n      tag_306\n      jump\t// in\n    tag_500:\n        /* \"#utility.yul\":18304:18307   */\n      dup3\n        /* \"#utility.yul\":18297:18355   */\n      mstore\n        /* \"#utility.yul\":18204:18361   */\n      pop\n      pop\n      jump\t// out\n        /* \"#utility.yul\":18367:18905   */\n    tag_198:\n        /* \"#utility.yul\":18535:18538   */\n      0x00\n        /* \"#utility.yul\":18550:18625   */\n      tag_503\n        /* \"#utility.yul\":18621:18624   */\n      dup3\n        /* \"#utility.yul\":18612:18618   */\n      dup7\n        /* \"#utility.yul\":18550:18625   */\n      tag_303\n      jump\t// in\n    tag_503:\n        /* \"#utility.yul\":18650:18652   */\n      0x20\n        /* \"#utility.yul\":18645:18648   */\n      dup3\n        /* \"#utility.yul\":18641:18653   */\n      add\n        /* \"#utility.yul\":18634:18653   */\n      swap2\n      pop\n        /* \"#utility.yul\":18663:18738   */\n      tag_504\n        /* \"#utility.yul\":18734:18737   */\n      dup3\n        /* \"#utility.yul\":18725:18731   */\n      dup6\n        /* \"#utility.yul\":18663:18738   */\n      tag_303\n      jump\t// in\n    tag_504:\n        /* \"#utility.yul\":18763:18765   */\n      0x20\n        /* \"#utility.yul\":18758:18761   */\n      dup3\n        /* \"#utility.yul\":18754:18766   */\n      add\n        /* \"#utility.yul\":18747:18766   */\n      swap2\n      pop\n        /* \"#utility.yul\":18776:18851   */\n      tag_505\n        /* \"#utility.yul\":18847:18850   */\n      dup3\n        /* \"#utility.yul\":18838:18844   */\n      dup5\n        /* \"#utility.yul\":18776:18851   */\n      tag_307\n      jump\t// in\n    tag_505:\n        /* \"#utility.yul\":18876:18878   */\n      0x14\n        /* \"#utility.yul\":18871:18874   */\n      dup3\n        /* \"#utility.yul\":18867:18879   */\n      add\n        /* \"#utility.yul\":18860:18879   */\n      swap2\n      pop\n        /* \"#utility.yul\":18896:18899   */\n      dup2\n        /* \"#utility.yul\":18889:18899   */\n      swap1\n      pop\n        /* \"#utility.yul\":18367:18905   */\n      swap5\n      swap4\n      pop\n      pop\n      pop\n      pop\n      jump\t// out\n        /* \"#utility.yul\":18911:19079   */\n    tag_308:\n        /* \"#utility.yul\":19051:19071   */\n      0x496e76616c6964206f7065726174696f6e210000000000000000000000000000\n        /* \"#utility.yul\":19047:19048   */\n      0x00\n        /* \"#utility.yul\":19039:19045   */\n      dup3\n        /* \"#utility.yul\":19035:19049   */\n      add\n        /* \"#utility.yul\":19028:19072   */\n      mstore\n        /* \"#utility.yul\":18911:19079   */\n      pop\n      jump\t// out\n        /* \"#utility.yul\":19085:19451   */\n    tag_309:\n        /* \"#utility.yul\":19227:19230   */\n      0x00\n        /* \"#utility.yul\":19248:19315   */\n      tag_508\n        /* \"#utility.yul\":19312:19314   */\n      0x12\n        /* \"#utility.yul\":19307:19310   */\n      dup4\n        /* \"#utility.yul\":19248:19315   */\n      tag_258\n      jump\t// in\n    tag_508:\n        /* \"#utility.yul\":19241:19315   */\n      swap2\n      pop\n        /* \"#utility.yul\":19324:19417   */\n      tag_509\n        /* \"#utility.yul\":19413:19416   */\n      dup3\n        /* \"#utility.yul\":19324:19417   */\n      tag_308\n      jump\t// in\n    tag_509:\n        /* \"#utility.yul\":19442:19444   */\n      0x20\n        /* \"#utility.yul\":19437:19440   */\n      dup3\n        /* \"#utility.yul\":19433:19445   */\n      add\n        /* \"#utility.yul\":19426:19445   */\n      swap1\n      pop\n        /* \"#utility.yul\":19085:19451   */\n      swap2\n      swap1\n      pop\n      jump\t// out\n        /* \"#utility.yul\":19457:19876   */\n    tag_207:\n        /* \"#utility.yul\":19623:19627   */\n      0x00\n        /* \"#utility.yul\":19661:19663   */\n      0x20\n        /* \"#utility.yul\":19650:19659   */\n      dup3\n        /* \"#utility.yul\":19646:19664   */\n      add\n        /* \"#utility.yul\":19638:19664   */\n      swap1\n      pop\n        /* \"#utility.yul\":19710:19719   */\n      dup2\n        /* \"#utility.yul\":19704:19708   */\n      dup2\n        /* \"#utility.yul\":19700:19720   */\n      sub\n        /* \"#utility.yul\":19696:19697   */\n      0x00\n        /* \"#utility.yul\":19685:19694   */\n      dup4\n        /* \"#utility.yul\":19681:19698   */\n      add\n        /* \"#utility.yul\":19674:19721   */\n      mstore\n        /* \"#utility.yul\":19738:19869   */\n      tag_511\n        /* \"#utility.yul\":19864:19868   */\n      dup2\n        /* \"#utility.yul\":19738:19869   */\n      tag_309\n      jump\t// in\n    tag_511:\n        /* \"#utility.yul\":19730:19869   */\n      swap1\n      pop\n        /* \"#utility.yul\":19457:19876   */\n      swap2\n      swap1\n      pop\n      jump\t// out\n        /* \"#utility.yul\":19882:20109   */\n    tag_310:\n        /* \"#utility.yul\":20022:20056   */\n      0x436f6e7472616374206f776e65722063616e6e6f7420636c61696d2066726f6d\n        /* \"#utility.yul\":20018:20019   */\n      0x00\n        /* \"#utility.yul\":20010:20016   */\n      dup3\n        /* \"#utility.yul\":20006:20020   */\n      add\n        /* \"#utility.yul\":19999:20057   */\n      mstore\n        /* \"#utility.yul\":20091:20101   */\n      0x206661756365742e000000000000000000000000000000000000000000000000\n        /* \"#utility.yul\":20086:20088   */\n      0x20\n        /* \"#utility.yul\":20078:20084   */\n      dup3\n        /* \"#utility.yul\":20074:20089   */\n      add\n        /* \"#utility.yul\":20067:20102   */\n      mstore\n        /* \"#utility.yul\":19882:20109   */\n      pop\n      jump\t// out\n        /* \"#utility.yul\":20115:20481   */\n    tag_311:\n        /* \"#utility.yul\":20257:20260   */\n      0x00\n        /* \"#utility.yul\":20278:20345   */\n      tag_514\n        /* \"#utility.yul\":20342:20344   */\n      0x28\n        /* \"#utility.yul\":20337:20340   */\n      dup4\n        /* \"#utility.yul\":20278:20345   */\n      tag_258\n      jump\t// in\n    tag_514:\n        /* \"#utility.yul\":20271:20345   */\n      swap2\n      pop\n        /* \"#utility.yul\":20354:20447   */\n      tag_515\n        /* \"#utility.yul\":20443:20446   */\n      dup3\n        /* \"#utility.yul\":20354:20447   */\n      tag_310\n      jump\t// in\n    tag_515:\n        /* \"#utility.yul\":20472:20474   */\n      0x40\n        /* \"#utility.yul\":20467:20470   */\n      dup3\n        /* \"#utility.yul\":20463:20475   */\n      add\n        /* \"#utility.yul\":20456:20475   */\n      swap1\n      pop\n        /* \"#utility.yul\":20115:20481   */\n      swap2\n      swap1\n      pop\n      jump\t// out\n        /* \"#utility.yul\":20487:20906   */\n    tag_226:\n        /* \"#utility.yul\":20653:20657   */\n      0x00\n        /* \"#utility.yul\":20691:20693   */\n      0x20\n        /* \"#utility.yul\":20680:20689   */\n      dup3\n        /* \"#utility.yul\":20676:20694   */\n      add\n        /* \"#utility.yul\":20668:20694   */\n      swap1\n      pop\n        /* \"#utility.yul\":20740:20749   */\n      dup2\n        /* \"#utility.yul\":20734:20738   */\n      dup2\n        /* \"#utility.yul\":20730:20750   */\n      sub\n        /* \"#utility.yul\":20726:20727   */\n      0x00\n        /* \"#utility.yul\":20715:20724   */\n      dup4\n        /* \"#utility.yul\":20711:20728   */\n      add\n        /* \"#utility.yul\":20704:20751   */\n      mstore\n        /* \"#utility.yul\":20768:20899   */\n      tag_517\n        /* \"#utility.yul\":20894:20898   */\n      dup2\n        /* \"#utility.yul\":20768:20899   */\n      tag_311\n      jump\t// in\n    tag_517:\n        /* \"#utility.yul\":20760:20899   */\n      swap1\n      pop\n        /* \"#utility.yul\":20487:20906   */\n      swap2\n      swap1\n      pop\n      jump\t// out\n        /* \"#utility.yul\":20912:21141   */\n    tag_312:\n        /* \"#utility.yul\":21052:21086   */\n      0x506c65617365207761697420666f72203330207365636f6e647320746f20636c\n        /* \"#utility.yul\":21048:21049   */\n      0x00\n        /* \"#utility.yul\":21040:21046   */\n      dup3\n        /* \"#utility.yul\":21036:21050   */\n      add\n        /* \"#utility.yul\":21029:21087   */\n      mstore\n        /* \"#utility.yul\":21121:21133   */\n      0x61696d20616761696e2e00000000000000000000000000000000000000000000\n        /* \"#utility.yul\":21116:21118   */\n      0x20\n        /* \"#utility.yul\":21108:21114   */\n      dup3\n        /* \"#utility.yul\":21104:21119   */\n      add\n        /* \"#utility.yul\":21097:21134   */\n      mstore\n        /* \"#utility.yul\":20912:21141   */\n      pop\n      jump\t// out\n        /* \"#utility.yul\":21147:21513   */\n    tag_313:\n        /* \"#utility.yul\":21289:21292   */\n      0x00\n        /* \"#utility.yul\":21310:21377   */\n      tag_520\n        /* \"#utility.yul\":21374:21376   */\n      0x2a\n        /* \"#utility.yul\":21369:21372   */\n      dup4\n        /* \"#utility.yul\":21310:21377   */\n      tag_258\n      jump\t// in\n    tag_520:\n        /* \"#utility.yul\":21303:21377   */\n      swap2\n      pop\n        /* \"#utility.yul\":21386:21479   */\n      tag_521\n        /* \"#utility.yul\":21475:21478   */\n      dup3\n        /* \"#utility.yul\":21386:21479   */\n      tag_312\n      jump\t// in\n    tag_521:\n        /* \"#utility.yul\":21504:21506   */\n      0x40\n        /* \"#utility.yul\":21499:21502   */\n      dup3\n        /* \"#utility.yul\":21495:21507   */\n      add\n        /* \"#utility.yul\":21488:21507   */\n      swap1\n      pop\n        /* \"#utility.yul\":21147:21513   */\n      swap2\n      swap1\n      pop\n      jump\t// out\n        /* \"#utility.yul\":21519:21938   */\n    tag_230:\n        /* \"#utility.yul\":21685:21689   */\n      0x00\n        /* \"#utility.yul\":21723:21725   */\n      0x20\n        /* \"#utility.yul\":21712:21721   */\n      dup3\n        /* \"#utility.yul\":21708:21726   */\n      add\n        /* \"#utility.yul\":21700:21726   */\n      swap1\n      pop\n        /* \"#utility.yul\":21772:21781   */\n      dup2\n        /* \"#utility.yul\":21766:21770   */\n      dup2\n        /* \"#utility.yul\":21762:21782   */\n      sub\n        /* \"#utility.yul\":21758:21759   */\n      0x00\n        /* \"#utility.yul\":21747:21756   */\n      dup4\n        /* \"#utility.yul\":21743:21760   */\n      add\n        /* \"#utility.yul\":21736:21783   */\n      mstore\n        /* \"#utility.yul\":21800:21931   */\n      tag_523\n        /* \"#utility.yul\":21926:21930   */\n      dup2\n        /* \"#utility.yul\":21800:21931   */\n      tag_313\n      jump\t// in\n    tag_523:\n        /* \"#utility.yul\":21792:21931   */\n      swap1\n      pop\n        /* \"#utility.yul\":21519:21938   */\n      swap2\n      swap1\n      pop\n      jump\t// out\n        /* \"#utility.yul\":21944:22122   */\n    tag_314:\n        /* \"#utility.yul\":22084:22114   */\n      0x4e6f7420656e6f75676820746f6b656e20666f72206661756365742e00000000\n        /* \"#utility.yul\":22080:22081   */\n      0x00\n        /* \"#utility.yul\":22072:22078   */\n      dup3\n        /* \"#utility.yul\":22068:22082   */\n      add\n        /* \"#utility.yul\":22061:22115   */\n      mstore\n        /* \"#utility.yul\":21944:22122   */\n      pop\n      jump\t// out\n        /* \"#utility.yul\":22128:22494   */\n    tag_315:\n        /* \"#utility.yul\":22270:22273   */\n      0x00\n        /* \"#utility.yul\":22291:22358   */\n      tag_526\n        /* \"#utility.yul\":22355:22357   */\n      0x1c\n        /* \"#utility.yul\":22350:22353   */\n      dup4\n        /* \"#utility.yul\":22291:22358   */\n      tag_258\n      jump\t// in\n    tag_526:\n        /* \"#utility.yul\":22284:22358   */\n      swap2\n      pop\n        /* \"#utility.yul\":22367:22460   */\n      tag_527\n        /* \"#utility.yul\":22456:22459   */\n      dup3\n        /* \"#utility.yul\":22367:22460   */\n      tag_314\n      jump\t// in\n    tag_527:\n        /* \"#utility.yul\":22485:22487   */\n      0x20\n        /* \"#utility.yul\":22480:22483   */\n      dup3\n        /* \"#utility.yul\":22476:22488   */\n      add\n        /* \"#utility.yul\":22469:22488   */\n      swap1\n      pop\n        /* \"#utility.yul\":22128:22494   */\n      swap2\n      swap1\n      pop\n      jump\t// out\n        /* \"#utility.yul\":22500:22919   */\n    tag_233:\n        /* \"#utility.yul\":22666:22670   */\n      0x00\n        /* \"#utility.yul\":22704:22706   */\n      0x20\n        /* \"#utility.yul\":22693:22702   */\n      dup3\n        /* \"#utility.yul\":22689:22707   */\n      add\n        /* \"#utility.yul\":22681:22707   */\n      swap1\n      pop\n        /* \"#utility.yul\":22753:22762   */\n      dup2\n        /* \"#utility.yul\":22747:22751   */\n      dup2\n        /* \"#utility.yul\":22743:22763   */\n      sub\n        /* \"#utility.yul\":22739:22740   */\n      0x00\n        /* \"#utility.yul\":22728:22737   */\n      dup4\n        /* \"#utility.yul\":22724:22741   */\n      add\n        /* \"#utility.yul\":22717:22764   */\n      mstore\n        /* \"#utility.yul\":22781:22912   */\n      tag_529\n        /* \"#utility.yul\":22907:22911   */\n      dup2\n        /* \"#utility.yul\":22781:22912   */\n      tag_315\n      jump\t// in\n    tag_529:\n        /* \"#utility.yul\":22773:22912   */\n      swap1\n      pop\n        /* \"#utility.yul\":22500:22919   */\n      swap2\n      swap1\n      pop\n      jump\t// out\n        /* \"#utility.yul\":22925:23012   */\n    tag_316:\n        /* \"#utility.yul\":22972:22979   */\n      0x00\n        /* \"#utility.yul\":23001:23006   */\n      dup2\n        /* \"#utility.yul\":22990:23006   */\n      swap1\n      pop\n        /* \"#utility.yul\":22925:23012   */\n      swap2\n      swap1\n      pop\n      jump\t// out\n        /* \"#utility.yul\":23018:23078   */\n    tag_317:\n        /* \"#utility.yul\":23046:23049   */\n      0x00\n        /* \"#utility.yul\":23067:23072   */\n      dup2\n        /* \"#utility.yul\":23060:23072   */\n      swap1\n      pop\n        /* \"#utility.yul\":23018:23078   */\n      swap2\n      swap1\n      pop\n      jump\t// out\n        /* \"#utility.yul\":23084:23246   */\n    tag_318:\n        /* \"#utility.yul\":23144:23153   */\n      0x00\n        /* \"#utility.yul\":23177:23240   */\n      tag_533\n        /* \"#utility.yul\":23195:23239   */\n      tag_534\n        /* \"#utility.yul\":23204:23238   */\n      tag_535\n        /* \"#utility.yul\":23232:23237   */\n      dup5\n        /* \"#utility.yul\":23204:23238   */\n      tag_316\n      jump\t// in\n    tag_535:\n        /* \"#utility.yul\":23195:23239   */\n      tag_317\n      jump\t// in\n    tag_534:\n        /* \"#utility.yul\":23177:23240   */\n      tag_269\n      jump\t// in\n    tag_533:\n        /* \"#utility.yul\":23164:23240   */\n      swap1\n      pop\n        /* \"#utility.yul\":23084:23246   */\n      swap2\n      swap1\n      pop\n      jump\t// out\n        /* \"#utility.yul\":23252:23403   */\n    tag_319:\n        /* \"#utility.yul\":23349:23396   */\n      tag_537\n        /* \"#utility.yul\":23390:23395   */\n      dup2\n        /* \"#utility.yul\":23349:23396   */\n      tag_318\n      jump\t// in\n    tag_537:\n        /* \"#utility.yul\":23344:23347   */\n      dup3\n        /* \"#utility.yul\":23337:23397   */\n      mstore\n        /* \"#utility.yul\":23252:23403   */\n      pop\n      pop\n      jump\t// out\n        /* \"#utility.yul\":23409:23651   */\n    tag_238:\n        /* \"#utility.yul\":23512:23516   */\n      0x00\n        /* \"#utility.yul\":23550:23552   */\n      0x20\n        /* \"#utility.yul\":23539:23548   */\n      dup3\n        /* \"#utility.yul\":23535:23553   */\n      add\n        /* \"#utility.yul\":23527:23553   */\n      swap1\n      pop\n        /* \"#utility.yul\":23563:23644   */\n      tag_539\n        /* \"#utility.yul\":23641:23642   */\n      0x00\n        /* \"#utility.yul\":23630:23639   */\n      dup4\n        /* \"#utility.yul\":23626:23643   */\n      add\n        /* \"#utility.yul\":23617:23623   */\n      dup5\n        /* \"#utility.yul\":23563:23644   */\n      tag_319\n      jump\t// in\n    tag_539:\n        /* \"#utility.yul\":23409:23651   */\n      swap3\n      swap2\n      pop\n      pop\n      jump\t// out\n        /* \"#utility.yul\":23657:23837   */\n    tag_245:\n        /* \"#utility.yul\":23705:23782   */\n      0x4e487b7100000000000000000000000000000000000000000000000000000000\n        /* \"#utility.yul\":23702:23703   */\n      0x00\n        /* \"#utility.yul\":23695:23783   */\n      mstore\n        /* \"#utility.yul\":23802:23806   */\n      0x41\n        /* \"#utility.yul\":23799:23800   */\n      0x04\n        /* \"#utility.yul\":23792:23807   */\n      mstore\n        /* \"#utility.yul\":23826:23830   */\n      0x24\n        /* \"#utility.yul\":23823:23824   */\n      0x00\n        /* \"#utility.yul\":23816:23831   */\n      revert\n        /* \"#utility.yul\":23843:24076   */\n    tag_256:\n        /* \"#utility.yul\":23882:23885   */\n      0x00\n        /* \"#utility.yul\":23905:23929   */\n      tag_542\n        /* \"#utility.yul\":23923:23928   */\n      dup3\n        /* \"#utility.yul\":23905:23929   */\n      tag_269\n      jump\t// in\n    tag_542:\n        /* \"#utility.yul\":23896:23929   */\n      swap2\n      pop\n        /* \"#utility.yul\":23951:24017   */\n      0xffffffffffffffffffffffffffffffffffffffffffffffffffffffffffffffff\n        /* \"#utility.yul\":23944:23949   */\n      dup3\n        /* \"#utility.yul\":23941:24018   */\n      sub\n        /* \"#utility.yul\":23938:24041   */\n      tag_543\n      jumpi\n        /* \"#utility.yul\":24021:24039   */\n      tag_544\n      tag_290\n      jump\t// in\n    tag_544:\n        /* \"#utility.yul\":23938:24041   */\n    tag_543:\n        /* \"#utility.yul\":24068:24069   */\n      0x01\n        /* \"#utility.yul\":24061:24066   */\n      dup3\n        /* \"#utility.yul\":24057:24070   */\n      add\n        /* \"#utility.yul\":24050:24070   */\n      swap1\n      pop\n        /* \"#utility.yul\":23843:24076   */\n      swap2\n      swap1\n      pop\n      jump\t// out\n\n    auxdata: 0xa2646970667358221220166059381eaee872db4022716ef072830720b8d9fd298341437cb2b4627337d764736f6c63430008120033\n}\n",
				"bytecode": {
					"linkReferences": {},
					"object": "60806040523480156200001157600080fd5b506040518060400160405280600981526020017f484f4d45574f524b3200000000000000000000000000000000000000000000008152506000908162000058919062000437565b506040518060400160405280600381526020017f4857320000000000000000000000000000000000000000000000000000000000815250600190816200009f919062000437565b506012600260006101000a81548160ff021916908360ff160217905550620f4240600381905550600354600460003373ffffffffffffffffffffffffffffffffffffffff1673ffffffffffffffffffffffffffffffffffffffff1681526020019081526020016000208190555033600760006101000a81548173ffffffffffffffffffffffffffffffffffffffff021916908373ffffffffffffffffffffffffffffffffffffffff1602179055503373ffffffffffffffffffffffffffffffffffffffff16600073ffffffffffffffffffffffffffffffffffffffff167fddf252ad1be2c89b69c2b068fc378daa952ba7f163c4a11628f55a4df523b3ef600354604051620001af91906200052f565b60405180910390a36200054c565b600081519050919050565b7f4e487b7100000000000000000000000000000000000000000000000000000000600052604160045260246000fd5b7f4e487b7100000000000000000000000000000000000000000000000000000000600052602260045260246000fd5b600060028204905060018216806200023f57607f821691505b602082108103620002555762000254620001f7565b5b50919050565b60008190508160005260206000209050919050565b60006020601f8301049050919050565b600082821b905092915050565b600060088302620002bf7fffffffffffffffffffffffffffffffffffffffffffffffffffffffffffffffff8262000280565b620002cb868362000280565b95508019841693508086168417925050509392505050565b6000819050919050565b6000819050919050565b600062000318620003126200030c84620002e3565b620002ed565b620002e3565b9050919050565b6000819050919050565b6200033483620002f7565b6200034c62000343826200031f565b8484546200028d565b825550505050565b600090565b6200036362000354565b6200037081848462000329565b505050565b5b8181101562000398576200038c60008262000359565b60018101905062000376565b5050565b601f821115620003e757620003b1816200025b565b620003bc8462000270565b81016020851015620003cc578190505b620003e4620003db8562000270565b83018262000375565b50505b505050565b600082821c905092915050565b60006200040c60001984600802620003ec565b1980831691505092915050565b6000620004278383620003f9565b9150826002028217905092915050565b6200044282620001bd565b67ffffffffffffffff8111156200045e576200045d620001c8565b5b6200046a825462000226565b620004778282856200039c565b600060209050601f831160018114620004af57600084156200049a578287015190505b620004a6858262000419565b86555062000516565b601f198416620004bf866200025b565b60005b82811015620004e957848901518255600182019150602085019450602081019050620004c2565b8683101562000509578489015162000505601f891682620003f9565b8355505b6001600288020188555050505b505050505050565b6200052981620002e3565b82525050565b60006020820190506200054660008301846200051e565b92915050565b612650806200055c6000396000f3fe6080604052600436106101405760003560e01c8063773a1154116100b6578063d05c78da1161006f578063d05c78da14610457578063dd62ed3e14610494578063de5f72fd146104d1578063dfbf53ae146104e8578063e6cb901314610513578063efa1c4821461055057610140565b8063773a11541461031f5780638da5cb5b1461034a57806395d89b4114610375578063a293d1e8146103a0578063a9059cbb146103dd578063b5931f7c1461041a57610140565b806324b570a91161010857806324b570a91461022c578063313ce567146102575780633eaaf86b146102825780635cbbd635146102ad5780636a11d04e146102d857806370a08231146102e257610140565b806306fdde0314610145578063095ea7b3146101705780630eecae21146101ad57806318160ddd146101c457806323b872dd146101ef575b600080fd5b34801561015157600080fd5b5061015a61057b565b604051610167919061198a565b60405180910390f35b34801561017c57600080fd5b5061019760048036038101906101929190611a45565b610609565b6040516101a49190611aa0565b60405180910390f35b3480156101b957600080fd5b506101c26106fb565b005b3480156101d057600080fd5b506101d9610a52565b6040516101e69190611aca565b60405180910390f35b3480156101fb57600080fd5b5061021660048036038101906102119190611ae5565b610aa6565b6040516102239190611aa0565b60405180910390f35b34801561023857600080fd5b50610241610d36565b60405161024e9190611aca565b60405180910390f35b34801561026357600080fd5b5061026c610d3c565b6040516102799190611b54565b60405180910390f35b34801561028e57600080fd5b50610297610d4f565b6040516102a49190611aca565b60405180910390f35b3480156102b957600080fd5b506102c2610d55565b6040516102cf9190611aca565b60405180910390f35b6102e0610d5b565b005b3480156102ee57600080fd5b5061030960048036038101906103049190611b6f565b611014565b6040516103169190611aca565b60405180910390f35b34801561032b57600080fd5b5061033461105d565b6040516103419190611aca565b60405180910390f35b34801561035657600080fd5b5061035f611097565b60405161036c9190611bab565b60405180910390f35b34801561038157600080fd5b5061038a6110bd565b604051610397919061198a565b60405180910390f35b3480156103ac57600080fd5b506103c760048036038101906103c29190611bc6565b61114b565b6040516103d49190611aca565b60405180910390f35b3480156103e957600080fd5b5061040460048036038101906103ff9190611a45565b6111a4565b6040516104119190611aa0565b60405180910390f35b34801561042657600080fd5b50610441600480360381019061043c9190611bc6565b61133f565b60405161044e9190611aca565b60405180910390f35b34801561046357600080fd5b5061047e60048036038101906104799190611bc6565b611361565b60405161048b9190611aca565b60405180910390f35b3480156104a057600080fd5b506104bb60048036038101906104b69190611c06565b611399565b6040516104c89190611aca565b60405180910390f35b3480156104dd57600080fd5b506104e6611420565b005b3480156104f457600080fd5b506104fd6117a6565b60405161050a9190611c67565b60405180910390f35b34801561051f57600080fd5b5061053a60048036038101906105359190611bc6565b6117cc565b6040516105479190611aca565b60405180910390f35b34801561055c57600080fd5b506105656117ef565b6040516105729190611d40565b60405180910390f35b6000805461058890611d91565b80601f01602080910402602001604051908101604052809291908181526020018280546105b490611d91565b80156106015780601f106105d657610100808354040283529160200191610601565b820191906000526020600020905b8154815290600101906020018083116105e457829003601f168201915b505050505081565b600081600560003373ffffffffffffffffffffffffffffffffffffffff1673ffffffffffffffffffffffffffffffffffffffff16815260200190815260200160002060008573ffffffffffffffffffffffffffffffffffffffff1673ffffffffffffffffffffffffffffffffffffffff168152602001908152602001600020819055508273ffffffffffffffffffffffffffffffffffffffff163373ffffffffffffffffffffffffffffffffffffffff167f8c5be1e5ebec7d5bd14f71427d1e84f3dd0314c0f7b2291e5b200ac8c7c3b925846040516106e99190611aca565b60405180910390a36001905092915050565b600760009054906101000a900473ffffffffffffffffffffffffffffffffffffffff1673ffffffffffffffffffffffffffffffffffffffff163373ffffffffffffffffffffffffffffffffffffffff161461075557600080fd5b60006009805490501161079d576040517f08c379a000000000000000000000000000000000000000000000000000000000815260040161079490611e34565b60405180910390fd5b60b4600b546107ac9190611e83565b42116107ed576040517f08c379a00000000000000000000000000000000000000000000000000000000081526004016107e490611f4f565b60405180910390fd5b60006107f761105d565b905060006009805490508261080c9190611f9e565b90506009818154811061082257610821611fcf565b5b9060005260206000200160009054906101000a900473ffffffffffffffffffffffffffffffffffffffff16600860006101000a81548173ffffffffffffffffffffffffffffffffffffffff021916908373ffffffffffffffffffffffffffffffffffffffff1602179055506000600a6009600a546108a09190611ffe565b6108aa9190612040565b905061091960046000600760009054906101000a900473ffffffffffffffffffffffffffffffffffffffff1673ffffffffffffffffffffffffffffffffffffffff1673ffffffffffffffffffffffffffffffffffffffff16815260200190815260200160002054600a546117cc565b60046000600760009054906101000a900473ffffffffffffffffffffffffffffffffffffffff1673ffffffffffffffffffffffffffffffffffffffff1673ffffffffffffffffffffffffffffffffffffffff168152602001908152602001600020819055506000600a819055506109d5600760009054906101000a900473ffffffffffffffffffffffffffffffffffffffff16600860009054906101000a900473ffffffffffffffffffffffffffffffffffffffff1683610aa6565b50600860009054906101000a900473ffffffffffffffffffffffffffffffffffffffff1673ffffffffffffffffffffffffffffffffffffffff167fe270ee2f324e081c14957e0abdb70aa14e5aacd0466ac05a9a1e89982cdb532682604051610a3e9190611aca565b60405180910390a242600b81905550505050565b6000600460008073ffffffffffffffffffffffffffffffffffffffff1673ffffffffffffffffffffffffffffffffffffffff16815260200190815260200160002054600354610aa19190612071565b905090565b6000610af1600460008673ffffffffffffffffffffffffffffffffffffffff1673ffffffffffffffffffffffffffffffffffffffff168152602001908152602001600020548361114b565b600460008673ffffffffffffffffffffffffffffffffffffffff1673ffffffffffffffffffffffffffffffffffffffff16815260200190815260200160002081905550610bba600560008673ffffffffffffffffffffffffffffffffffffffff1673ffffffffffffffffffffffffffffffffffffffff16815260200190815260200160002060003373ffffffffffffffffffffffffffffffffffffffff1673ffffffffffffffffffffffffffffffffffffffff168152602001908152602001600020548361114b565b600560008673ffffffffffffffffffffffffffffffffffffffff1673ffffffffffffffffffffffffffffffffffffffff16815260200190815260200160002060003373ffffffffffffffffffffffffffffffffffffffff1673ffffffffffffffffffffffffffffffffffffffff16815260200190815260200160002081905550610c83600460008573ffffffffffffffffffffffffffffffffffffffff1673ffffffffffffffffffffffffffffffffffffffff16815260200190815260200160002054836117cc565b600460008573ffffffffffffffffffffffffffffffffffffffff1673ffffffffffffffffffffffffffffffffffffffff168152602001908152602001600020819055508273ffffffffffffffffffffffffffffffffffffffff168473ffffffffffffffffffffffffffffffffffffffff167fddf252ad1be2c89b69c2b068fc378daa952ba7f163c4a11628f55a4df523b3ef84604051610d239190611aca565b60405180910390a3600190509392505050565b600a5481565b600260009054906101000a900460ff1681565b60035481565b600b5481565b600760009054906101000a900473ffffffffffffffffffffffffffffffffffffffff1673ffffffffffffffffffffffffffffffffffffffff163373ffffffffffffffffffffffffffffffffffffffff1603610deb576040517f08c379a0000000000000000000000000000000000000000000000000000000008152600401610de290612117565b60405180910390fd5b6064600460003373ffffffffffffffffffffffffffffffffffffffff1673ffffffffffffffffffffffffffffffffffffffff168152602001908152602001600020541015610e6e576040517f08c379a0000000000000000000000000000000000000000000000000000000008152600401610e65906121a9565b60405180910390fd5b6101f46003541015610eb5576040517f08c379a0000000000000000000000000000000000000000000000000000000008152600401610eac90612215565b60405180910390fd5b6003546064600a54610ec79190611e83565b1115610f08576040517f08c379a0000000000000000000000000000000000000000000000000000000008152600401610eff90612281565b60405180910390fd5b610f52600460003373ffffffffffffffffffffffffffffffffffffffff1673ffffffffffffffffffffffffffffffffffffffff16815260200190815260200160002054606461114b565b600460003373ffffffffffffffffffffffffffffffffffffffff1673ffffffffffffffffffffffffffffffffffffffff168152602001908152602001600020819055506009339080600181540180825580915050600190039060005260206000200160009091909190916101000a81548173ffffffffffffffffffffffffffffffffffffffff021916908373ffffffffffffffffffffffffffffffffffffffff1602179055506064600a600082825461100b9190611e83565b92505081905550565b6000600460008373ffffffffffffffffffffffffffffffffffffffff1673ffffffffffffffffffffffffffffffffffffffff168152602001908152602001600020549050919050565b6000804244336040516020016110759392919061230a565b6040516020818303038152906040528051906020012060001c90508091505090565b600760009054906101000a900473ffffffffffffffffffffffffffffffffffffffff1681565b600180546110ca90611d91565b80601f01602080910402602001604051908101604052809291908181526020018280546110f690611d91565b80156111435780601f1061111857610100808354040283529160200191611143565b820191906000526020600020905b81548152906001019060200180831161112657829003601f168201915b505050505081565b600082821115611190576040517f08c379a000000000000000000000000000000000000000000000000000000000815260040161118790612393565b60405180910390fd5b818361119c9190612071565b905092915050565b60006111ef600460003373ffffffffffffffffffffffffffffffffffffffff1673ffffffffffffffffffffffffffffffffffffffff168152602001908152602001600020548361114b565b600460003373ffffffffffffffffffffffffffffffffffffffff1673ffffffffffffffffffffffffffffffffffffffff1681526020019081526020016000208190555061127b600460008573ffffffffffffffffffffffffffffffffffffffff1673ffffffffffffffffffffffffffffffffffffffff16815260200190815260200160002054836117cc565b600460008573ffffffffffffffffffffffffffffffffffffffff1673ffffffffffffffffffffffffffffffffffffffff168152602001908152602001600020819055506112ca6003548361114b565b6003819055508273ffffffffffffffffffffffffffffffffffffffff163373ffffffffffffffffffffffffffffffffffffffff167fddf252ad1be2c89b69c2b068fc378daa952ba7f163c4a11628f55a4df523b3ef8460405161132d9190611aca565b60405180910390a36001905092915050565b600080821161134d57600080fd5b81836113599190612040565b905092915050565b6000818361136f9190611ffe565b9050600083148061138a57508183826113889190612040565b145b61139357600080fd5b92915050565b6000600560008473ffffffffffffffffffffffffffffffffffffffff1673ffffffffffffffffffffffffffffffffffffffff16815260200190815260200160002060008373ffffffffffffffffffffffffffffffffffffffff1673ffffffffffffffffffffffffffffffffffffffff16815260200190815260200160002054905092915050565b600760009054906101000a900473ffffffffffffffffffffffffffffffffffffffff1673ffffffffffffffffffffffffffffffffffffffff163373ffffffffffffffffffffffffffffffffffffffff16036114b0576040517f08c379a00000000000000000000000000000000000000000000000000000000081526004016114a790612425565b60405180910390fd5b42601e600660003373ffffffffffffffffffffffffffffffffffffffff1673ffffffffffffffffffffffffffffffffffffffff168152602001908152602001600020546114fd9190611e83565b1061153d576040517f08c379a0000000000000000000000000000000000000000000000000000000008152600401611534906124b7565b60405180910390fd5b6101f46003541015611584576040517f08c379a000000000000000000000000000000000000000000000000000000000815260040161157b90612523565b60405180910390fd5b42600660003373ffffffffffffffffffffffffffffffffffffffff1673ffffffffffffffffffffffffffffffffffffffff168152602001908152602001600020819055506115d66003546101f461114b565b60038190555061164960046000600760009054906101000a900473ffffffffffffffffffffffffffffffffffffffff1673ffffffffffffffffffffffffffffffffffffffff1673ffffffffffffffffffffffffffffffffffffffff168152602001908152602001600020546101f461114b565b60046000600760009054906101000a900473ffffffffffffffffffffffffffffffffffffffff1673ffffffffffffffffffffffffffffffffffffffff1673ffffffffffffffffffffffffffffffffffffffff168152602001908152602001600020819055506116f9600460003373ffffffffffffffffffffffffffffffffffffffff1673ffffffffffffffffffffffffffffffffffffffff168152602001908152602001600020546101f46117cc565b600460003373ffffffffffffffffffffffffffffffffffffffff1673ffffffffffffffffffffffffffffffffffffffff168152602001908152602001600020819055503373ffffffffffffffffffffffffffffffffffffffff16600073ffffffffffffffffffffffffffffffffffffffff167fddf252ad1be2c89b69c2b068fc378daa952ba7f163c4a11628f55a4df523b3ef6101f460405161179c9190612588565b60405180910390a3565b600860009054906101000a900473ffffffffffffffffffffffffffffffffffffffff1681565b600081836117da9190611e83565b9050828110156117e957600080fd5b92915050565b6060600060098054905067ffffffffffffffff811115611812576118116125a3565b5b6040519080825280602002602001820160405280156118405781602001602082028036833780820191505090505b50905060005b6009805490508110156118f2576009818154811061186757611866611fcf565b5b9060005260206000200160009054906101000a900473ffffffffffffffffffffffffffffffffffffffff168282815181106118a5576118a4611fcf565b5b602002602001019073ffffffffffffffffffffffffffffffffffffffff16908173ffffffffffffffffffffffffffffffffffffffff168152505080806118ea906125d2565b915050611846565b508091505090565b600081519050919050565b600082825260208201905092915050565b60005b83811015611934578082015181840152602081019050611919565b60008484015250505050565b6000601f19601f8301169050919050565b600061195c826118fa565b6119668185611905565b9350611976818560208601611916565b61197f81611940565b840191505092915050565b600060208201905081810360008301526119a48184611951565b905092915050565b600080fd5b600073ffffffffffffffffffffffffffffffffffffffff82169050919050565b60006119dc826119b1565b9050919050565b6119ec816119d1565b81146119f757600080fd5b50565b600081359050611a09816119e3565b92915050565b6000819050919050565b611a2281611a0f565b8114611a2d57600080fd5b50565b600081359050611a3f81611a19565b92915050565b60008060408385031215611a5c57611a5b6119ac565b5b6000611a6a858286016119fa565b9250506020611a7b85828601611a30565b9150509250929050565b60008115159050919050565b611a9a81611a85565b82525050565b6000602082019050611ab56000830184611a91565b92915050565b611ac481611a0f565b82525050565b6000602082019050611adf6000830184611abb565b92915050565b600080600060608486031215611afe57611afd6119ac565b5b6000611b0c868287016119fa565b9350506020611b1d868287016119fa565b9250506040611b2e86828701611a30565b9150509250925092565b600060ff82169050919050565b611b4e81611b38565b82525050565b6000602082019050611b696000830184611b45565b92915050565b600060208284031215611b8557611b846119ac565b5b6000611b93848285016119fa565b91505092915050565b611ba5816119d1565b82525050565b6000602082019050611bc06000830184611b9c565b92915050565b60008060408385031215611bdd57611bdc6119ac565b5b6000611beb85828601611a30565b9250506020611bfc85828601611a30565b9150509250929050565b60008060408385031215611c1d57611c1c6119ac565b5b6000611c2b858286016119fa565b9250506020611c3c858286016119fa565b9150509250929050565b6000611c51826119b1565b9050919050565b611c6181611c46565b82525050565b6000602082019050611c7c6000830184611c58565b92915050565b600081519050919050565b600082825260208201905092915050565b6000819050602082019050919050565b611cb781611c46565b82525050565b6000611cc98383611cae565b60208301905092915050565b6000602082019050919050565b6000611ced82611c82565b611cf78185611c8d565b9350611d0283611c9e565b8060005b83811015611d33578151611d1a8882611cbd565b9750611d2583611cd5565b925050600181019050611d06565b5085935050505092915050565b60006020820190508181036000830152611d5a8184611ce2565b905092915050565b7f4e487b7100000000000000000000000000000000000000000000000000000000600052602260045260246000fd5b60006002820490506001821680611da957607f821691505b602082108103611dbc57611dbb611d62565b5b50919050565b7f4174206c65617374206f6e65206c6f7474657279207469636b6574206d75737460008201527f20626520736f6c642e0000000000000000000000000000000000000000000000602082015250565b6000611e1e602983611905565b9150611e2982611dc2565b604082019050919050565b60006020820190508181036000830152611e4d81611e11565b9050919050565b7f4e487b7100000000000000000000000000000000000000000000000000000000600052601160045260246000fd5b6000611e8e82611a0f565b9150611e9983611a0f565b9250828201905080821115611eb157611eb0611e54565b5b92915050565b7f5468652062616e6b65722063616e6e6f742063616c6c2074686520647261772060008201527f66756e6374696f6e2077697468696e2033206d696e75746573206f662074686560208201527f2070726576696f757320647261772e0000000000000000000000000000000000604082015250565b6000611f39604f83611905565b9150611f4482611eb7565b606082019050919050565b60006020820190508181036000830152611f6881611f2c565b9050919050565b7f4e487b7100000000000000000000000000000000000000000000000000000000600052601260045260246000fd5b6000611fa982611a0f565b9150611fb483611a0f565b925082611fc457611fc3611f6f565b5b828206905092915050565b7f4e487b7100000000000000000000000000000000000000000000000000000000600052603260045260246000fd5b600061200982611a0f565b915061201483611a0f565b925082820261202281611a0f565b9150828204841483151761203957612038611e54565b5b5092915050565b600061204b82611a0f565b915061205683611a0f565b92508261206657612065611f6f565b5b828204905092915050565b600061207c82611a0f565b915061208783611a0f565b925082820390508181111561209f5761209e611e54565b5b92915050565b7f546865206f776e65722063616e6e6f7420706172746963697061746520696e2060008201527f746865206c6f74746572792e0000000000000000000000000000000000000000602082015250565b6000612101602c83611905565b915061210c826120a5565b604082019050919050565b60006020820190508181036000830152612130816120f4565b9050919050565b7f5468652062657420616d6f756e742073686f756c642062652031303020746f6b60008201527f656e732e00000000000000000000000000000000000000000000000000000000602082015250565b6000612193602483611905565b915061219e82612137565b604082019050919050565b600060208201905081810360008301526121c281612186565b9050919050565b7f4e6f7420656e6f75676820746f6b656e20666f72206c6f74746572792e000000600082015250565b60006121ff601d83611905565b915061220a826121c9565b602082019050919050565b6000602082019050818103600083015261222e816121f2565b9050919050565b7f546f74616c20706f74206578636565647320746f6b656e20737570706c792e00600082015250565b600061226b601f83611905565b915061227682612235565b602082019050919050565b6000602082019050818103600083015261229a8161225e565b9050919050565b6000819050919050565b6122bc6122b782611a0f565b6122a1565b82525050565b60008160601b9050919050565b60006122da826122c2565b9050919050565b60006122ec826122cf565b9050919050565b6123046122ff826119d1565b6122e1565b82525050565b600061231682866122ab565b60208201915061232682856122ab565b60208201915061233682846122f3565b601482019150819050949350505050565b7f496e76616c6964206f7065726174696f6e210000000000000000000000000000600082015250565b600061237d601283611905565b915061238882612347565b602082019050919050565b600060208201905081810360008301526123ac81612370565b9050919050565b7f436f6e7472616374206f776e65722063616e6e6f7420636c61696d2066726f6d60008201527f206661756365742e000000000000000000000000000000000000000000000000602082015250565b600061240f602883611905565b915061241a826123b3565b604082019050919050565b6000602082019050818103600083015261243e81612402565b9050919050565b7f506c65617365207761697420666f72203330207365636f6e647320746f20636c60008201527f61696d20616761696e2e00000000000000000000000000000000000000000000602082015250565b60006124a1602a83611905565b91506124ac82612445565b604082019050919050565b600060208201905081810360008301526124d081612494565b9050919050565b7f4e6f7420656e6f75676820746f6b656e20666f72206661756365742e00000000600082015250565b600061250d601c83611905565b9150612518826124d7565b602082019050919050565b6000602082019050818103600083015261253c81612500565b9050919050565b6000819050919050565b6000819050919050565b600061257261256d61256884612543565b61254d565b611a0f565b9050919050565b61258281612557565b82525050565b600060208201905061259d6000830184612579565b92915050565b7f4e487b7100000000000000000000000000000000000000000000000000000000600052604160045260246000fd5b60006125dd82611a0f565b91507fffffffffffffffffffffffffffffffffffffffffffffffffffffffffffffffff820361260f5761260e611e54565b5b60018201905091905056fea2646970667358221220166059381eaee872db4022716ef072830720b8d9fd298341437cb2b4627337d764736f6c63430008120033",
					"opcodes": "PUSH1 0x80 PUSH1 0x40 MSTORE CALLVALUE DUP1 ISZERO PUSH3 0x11 JUMPI PUSH1 0x0 DUP1 REVERT JUMPDEST POP PUSH1 0x40 MLOAD DUP1 PUSH1 0x40 ADD PUSH1 0x40 MSTORE DUP1 PUSH1 0x9 DUP2 MSTORE PUSH1 0x20 ADD PUSH32 0x484F4D45574F524B320000000000000000000000000000000000000000000000 DUP2 MSTORE POP PUSH1 0x0 SWAP1 DUP2 PUSH3 0x58 SWAP2 SWAP1 PUSH3 0x437 JUMP JUMPDEST POP PUSH1 0x40 MLOAD DUP1 PUSH1 0x40 ADD PUSH1 0x40 MSTORE DUP1 PUSH1 0x3 DUP2 MSTORE PUSH1 0x20 ADD PUSH32 0x4857320000000000000000000000000000000000000000000000000000000000 DUP2 MSTORE POP PUSH1 0x1 SWAP1 DUP2 PUSH3 0x9F SWAP2 SWAP1 PUSH3 0x437 JUMP JUMPDEST POP PUSH1 0x12 PUSH1 0x2 PUSH1 0x0 PUSH2 0x100 EXP DUP2 SLOAD DUP2 PUSH1 0xFF MUL NOT AND SWAP1 DUP4 PUSH1 0xFF AND MUL OR SWAP1 SSTORE POP PUSH3 0xF4240 PUSH1 0x3 DUP2 SWAP1 SSTORE POP PUSH1 0x3 SLOAD PUSH1 0x4 PUSH1 0x0 CALLER PUSH20 0xFFFFFFFFFFFFFFFFFFFFFFFFFFFFFFFFFFFFFFFF AND PUSH20 0xFFFFFFFFFFFFFFFFFFFFFFFFFFFFFFFFFFFFFFFF AND DUP2 MSTORE PUSH1 0x20 ADD SWAP1 DUP2 MSTORE PUSH1 0x20 ADD PUSH1 0x0 KECCAK256 DUP2 SWAP1 SSTORE POP CALLER PUSH1 0x7 PUSH1 0x0 PUSH2 0x100 EXP DUP2 SLOAD DUP2 PUSH20 0xFFFFFFFFFFFFFFFFFFFFFFFFFFFFFFFFFFFFFFFF MUL NOT AND SWAP1 DUP4 PUSH20 0xFFFFFFFFFFFFFFFFFFFFFFFFFFFFFFFFFFFFFFFF AND MUL OR SWAP1 SSTORE POP CALLER PUSH20 0xFFFFFFFFFFFFFFFFFFFFFFFFFFFFFFFFFFFFFFFF AND PUSH1 0x0 PUSH20 0xFFFFFFFFFFFFFFFFFFFFFFFFFFFFFFFFFFFFFFFF AND PUSH32 0xDDF252AD1BE2C89B69C2B068FC378DAA952BA7F163C4A11628F55A4DF523B3EF PUSH1 0x3 SLOAD PUSH1 0x40 MLOAD PUSH3 0x1AF SWAP2 SWAP1 PUSH3 0x52F JUMP JUMPDEST PUSH1 0x40 MLOAD DUP1 SWAP2 SUB SWAP1 LOG3 PUSH3 0x54C JUMP JUMPDEST PUSH1 0x0 DUP2 MLOAD SWAP1 POP SWAP2 SWAP1 POP JUMP JUMPDEST PUSH32 0x4E487B7100000000000000000000000000000000000000000000000000000000 PUSH1 0x0 MSTORE PUSH1 0x41 PUSH1 0x4 MSTORE PUSH1 0x24 PUSH1 0x0 REVERT JUMPDEST PUSH32 0x4E487B7100000000000000000000000000000000000000000000000000000000 PUSH1 0x0 MSTORE PUSH1 0x22 PUSH1 0x4 MSTORE PUSH1 0x24 PUSH1 0x0 REVERT JUMPDEST PUSH1 0x0 PUSH1 0x2 DUP3 DIV SWAP1 POP PUSH1 0x1 DUP3 AND DUP1 PUSH3 0x23F JUMPI PUSH1 0x7F DUP3 AND SWAP2 POP JUMPDEST PUSH1 0x20 DUP3 LT DUP2 SUB PUSH3 0x255 JUMPI PUSH3 0x254 PUSH3 0x1F7 JUMP JUMPDEST JUMPDEST POP SWAP2 SWAP1 POP JUMP JUMPDEST PUSH1 0x0 DUP2 SWAP1 POP DUP2 PUSH1 0x0 MSTORE PUSH1 0x20 PUSH1 0x0 KECCAK256 SWAP1 POP SWAP2 SWAP1 POP JUMP JUMPDEST PUSH1 0x0 PUSH1 0x20 PUSH1 0x1F DUP4 ADD DIV SWAP1 POP SWAP2 SWAP1 POP JUMP JUMPDEST PUSH1 0x0 DUP3 DUP3 SHL SWAP1 POP SWAP3 SWAP2 POP POP JUMP JUMPDEST PUSH1 0x0 PUSH1 0x8 DUP4 MUL PUSH3 0x2BF PUSH32 0xFFFFFFFFFFFFFFFFFFFFFFFFFFFFFFFFFFFFFFFFFFFFFFFFFFFFFFFFFFFFFFFF DUP3 PUSH3 0x280 JUMP JUMPDEST PUSH3 0x2CB DUP7 DUP4 PUSH3 0x280 JUMP JUMPDEST SWAP6 POP DUP1 NOT DUP5 AND SWAP4 POP DUP1 DUP7 AND DUP5 OR SWAP3 POP POP POP SWAP4 SWAP3 POP POP POP JUMP JUMPDEST PUSH1 0x0 DUP2 SWAP1 POP SWAP2 SWAP1 POP JUMP JUMPDEST PUSH1 0x0 DUP2 SWAP1 POP SWAP2 SWAP1 POP JUMP JUMPDEST PUSH1 0x0 PUSH3 0x318 PUSH3 0x312 PUSH3 0x30C DUP5 PUSH3 0x2E3 JUMP JUMPDEST PUSH3 0x2ED JUMP JUMPDEST PUSH3 0x2E3 JUMP JUMPDEST SWAP1 POP SWAP2 SWAP1 POP JUMP JUMPDEST PUSH1 0x0 DUP2 SWAP1 POP SWAP2 SWAP1 POP JUMP JUMPDEST PUSH3 0x334 DUP4 PUSH3 0x2F7 JUMP JUMPDEST PUSH3 0x34C PUSH3 0x343 DUP3 PUSH3 0x31F JUMP JUMPDEST DUP5 DUP5 SLOAD PUSH3 0x28D JUMP JUMPDEST DUP3 SSTORE POP POP POP POP JUMP JUMPDEST PUSH1 0x0 SWAP1 JUMP JUMPDEST PUSH3 0x363 PUSH3 0x354 JUMP JUMPDEST PUSH3 0x370 DUP2 DUP5 DUP5 PUSH3 0x329 JUMP JUMPDEST POP POP POP JUMP JUMPDEST JUMPDEST DUP2 DUP2 LT ISZERO PUSH3 0x398 JUMPI PUSH3 0x38C PUSH1 0x0 DUP3 PUSH3 0x359 JUMP JUMPDEST PUSH1 0x1 DUP2 ADD SWAP1 POP PUSH3 0x376 JUMP JUMPDEST POP POP JUMP JUMPDEST PUSH1 0x1F DUP3 GT ISZERO PUSH3 0x3E7 JUMPI PUSH3 0x3B1 DUP2 PUSH3 0x25B JUMP JUMPDEST PUSH3 0x3BC DUP5 PUSH3 0x270 JUMP JUMPDEST DUP2 ADD PUSH1 0x20 DUP6 LT ISZERO PUSH3 0x3CC JUMPI DUP2 SWAP1 POP JUMPDEST PUSH3 0x3E4 PUSH3 0x3DB DUP6 PUSH3 0x270 JUMP JUMPDEST DUP4 ADD DUP3 PUSH3 0x375 JUMP JUMPDEST POP POP JUMPDEST POP POP POP JUMP JUMPDEST PUSH1 0x0 DUP3 DUP3 SHR SWAP1 POP SWAP3 SWAP2 POP POP JUMP JUMPDEST PUSH1 0x0 PUSH3 0x40C PUSH1 0x0 NOT DUP5 PUSH1 0x8 MUL PUSH3 0x3EC JUMP JUMPDEST NOT DUP1 DUP4 AND SWAP2 POP POP SWAP3 SWAP2 POP POP JUMP JUMPDEST PUSH1 0x0 PUSH3 0x427 DUP4 DUP4 PUSH3 0x3F9 JUMP JUMPDEST SWAP2 POP DUP3 PUSH1 0x2 MUL DUP3 OR SWAP1 POP SWAP3 SWAP2 POP POP JUMP JUMPDEST PUSH3 0x442 DUP3 PUSH3 0x1BD JUMP JUMPDEST PUSH8 0xFFFFFFFFFFFFFFFF DUP2 GT ISZERO PUSH3 0x45E JUMPI PUSH3 0x45D PUSH3 0x1C8 JUMP JUMPDEST JUMPDEST PUSH3 0x46A DUP3 SLOAD PUSH3 0x226 JUMP JUMPDEST PUSH3 0x477 DUP3 DUP3 DUP6 PUSH3 0x39C JUMP JUMPDEST PUSH1 0x0 PUSH1 0x20 SWAP1 POP PUSH1 0x1F DUP4 GT PUSH1 0x1 DUP2 EQ PUSH3 0x4AF JUMPI PUSH1 0x0 DUP5 ISZERO PUSH3 0x49A JUMPI DUP3 DUP8 ADD MLOAD SWAP1 POP JUMPDEST PUSH3 0x4A6 DUP6 DUP3 PUSH3 0x419 JUMP JUMPDEST DUP7 SSTORE POP PUSH3 0x516 JUMP JUMPDEST PUSH1 0x1F NOT DUP5 AND PUSH3 0x4BF DUP7 PUSH3 0x25B JUMP JUMPDEST PUSH1 0x0 JUMPDEST DUP3 DUP2 LT ISZERO PUSH3 0x4E9 JUMPI DUP5 DUP10 ADD MLOAD DUP3 SSTORE PUSH1 0x1 DUP3 ADD SWAP2 POP PUSH1 0x20 DUP6 ADD SWAP5 POP PUSH1 0x20 DUP2 ADD SWAP1 POP PUSH3 0x4C2 JUMP JUMPDEST DUP7 DUP4 LT ISZERO PUSH3 0x509 JUMPI DUP5 DUP10 ADD MLOAD PUSH3 0x505 PUSH1 0x1F DUP10 AND DUP3 PUSH3 0x3F9 JUMP JUMPDEST DUP4 SSTORE POP JUMPDEST PUSH1 0x1 PUSH1 0x2 DUP9 MUL ADD DUP9 SSTORE POP POP POP JUMPDEST POP POP POP POP POP POP JUMP JUMPDEST PUSH3 0x529 DUP2 PUSH3 0x2E3 JUMP JUMPDEST DUP3 MSTORE POP POP JUMP JUMPDEST PUSH1 0x0 PUSH1 0x20 DUP3 ADD SWAP1 POP PUSH3 0x546 PUSH1 0x0 DUP4 ADD DUP5 PUSH3 0x51E JUMP JUMPDEST SWAP3 SWAP2 POP POP JUMP JUMPDEST PUSH2 0x2650 DUP1 PUSH3 0x55C PUSH1 0x0 CODECOPY PUSH1 0x0 RETURN INVALID PUSH1 0x80 PUSH1 0x40 MSTORE PUSH1 0x4 CALLDATASIZE LT PUSH2 0x140 JUMPI PUSH1 0x0 CALLDATALOAD PUSH1 0xE0 SHR DUP1 PUSH4 0x773A1154 GT PUSH2 0xB6 JUMPI DUP1 PUSH4 0xD05C78DA GT PUSH2 0x6F JUMPI DUP1 PUSH4 0xD05C78DA EQ PUSH2 0x457 JUMPI DUP1 PUSH4 0xDD62ED3E EQ PUSH2 0x494 JUMPI DUP1 PUSH4 0xDE5F72FD EQ PUSH2 0x4D1 JUMPI DUP1 PUSH4 0xDFBF53AE EQ PUSH2 0x4E8 JUMPI DUP1 PUSH4 0xE6CB9013 EQ PUSH2 0x513 JUMPI DUP1 PUSH4 0xEFA1C482 EQ PUSH2 0x550 JUMPI PUSH2 0x140 JUMP JUMPDEST DUP1 PUSH4 0x773A1154 EQ PUSH2 0x31F JUMPI DUP1 PUSH4 0x8DA5CB5B EQ PUSH2 0x34A JUMPI DUP1 PUSH4 0x95D89B41 EQ PUSH2 0x375 JUMPI DUP1 PUSH4 0xA293D1E8 EQ PUSH2 0x3A0 JUMPI DUP1 PUSH4 0xA9059CBB EQ PUSH2 0x3DD JUMPI DUP1 PUSH4 0xB5931F7C EQ PUSH2 0x41A JUMPI PUSH2 0x140 JUMP JUMPDEST DUP1 PUSH4 0x24B570A9 GT PUSH2 0x108 JUMPI DUP1 PUSH4 0x24B570A9 EQ PUSH2 0x22C JUMPI DUP1 PUSH4 0x313CE567 EQ PUSH2 0x257 JUMPI DUP1 PUSH4 0x3EAAF86B EQ PUSH2 0x282 JUMPI DUP1 PUSH4 0x5CBBD635 EQ PUSH2 0x2AD JUMPI DUP1 PUSH4 0x6A11D04E EQ PUSH2 0x2D8 JUMPI DUP1 PUSH4 0x70A08231 EQ PUSH2 0x2E2 JUMPI PUSH2 0x140 JUMP JUMPDEST DUP1 PUSH4 0x6FDDE03 EQ PUSH2 0x145 JUMPI DUP1 PUSH4 0x95EA7B3 EQ PUSH2 0x170 JUMPI DUP1 PUSH4 0xEECAE21 EQ PUSH2 0x1AD JUMPI DUP1 PUSH4 0x18160DDD EQ PUSH2 0x1C4 JUMPI DUP1 PUSH4 0x23B872DD EQ PUSH2 0x1EF JUMPI JUMPDEST PUSH1 0x0 DUP1 REVERT JUMPDEST CALLVALUE DUP1 ISZERO PUSH2 0x151 JUMPI PUSH1 0x0 DUP1 REVERT JUMPDEST POP PUSH2 0x15A PUSH2 0x57B JUMP JUMPDEST PUSH1 0x40 MLOAD PUSH2 0x167 SWAP2 SWAP1 PUSH2 0x198A JUMP JUMPDEST PUSH1 0x40 MLOAD DUP1 SWAP2 SUB SWAP1 RETURN JUMPDEST CALLVALUE DUP1 ISZERO PUSH2 0x17C JUMPI PUSH1 0x0 DUP1 REVERT JUMPDEST POP PUSH2 0x197 PUSH1 0x4 DUP1 CALLDATASIZE SUB DUP2 ADD SWAP1 PUSH2 0x192 SWAP2 SWAP1 PUSH2 0x1A45 JUMP JUMPDEST PUSH2 0x609 JUMP JUMPDEST PUSH1 0x40 MLOAD PUSH2 0x1A4 SWAP2 SWAP1 PUSH2 0x1AA0 JUMP JUMPDEST PUSH1 0x40 MLOAD DUP1 SWAP2 SUB SWAP1 RETURN JUMPDEST CALLVALUE DUP1 ISZERO PUSH2 0x1B9 JUMPI PUSH1 0x0 DUP1 REVERT JUMPDEST POP PUSH2 0x1C2 PUSH2 0x6FB JUMP JUMPDEST STOP JUMPDEST CALLVALUE DUP1 ISZERO PUSH2 0x1D0 JUMPI PUSH1 0x0 DUP1 REVERT JUMPDEST POP PUSH2 0x1D9 PUSH2 0xA52 JUMP JUMPDEST PUSH1 0x40 MLOAD PUSH2 0x1E6 SWAP2 SWAP1 PUSH2 0x1ACA JUMP JUMPDEST PUSH1 0x40 MLOAD DUP1 SWAP2 SUB SWAP1 RETURN JUMPDEST CALLVALUE DUP1 ISZERO PUSH2 0x1FB JUMPI PUSH1 0x0 DUP1 REVERT JUMPDEST POP PUSH2 0x216 PUSH1 0x4 DUP1 CALLDATASIZE SUB DUP2 ADD SWAP1 PUSH2 0x211 SWAP2 SWAP1 PUSH2 0x1AE5 JUMP JUMPDEST PUSH2 0xAA6 JUMP JUMPDEST PUSH1 0x40 MLOAD PUSH2 0x223 SWAP2 SWAP1 PUSH2 0x1AA0 JUMP JUMPDEST PUSH1 0x40 MLOAD DUP1 SWAP2 SUB SWAP1 RETURN JUMPDEST CALLVALUE DUP1 ISZERO PUSH2 0x238 JUMPI PUSH1 0x0 DUP1 REVERT JUMPDEST POP PUSH2 0x241 PUSH2 0xD36 JUMP JUMPDEST PUSH1 0x40 MLOAD PUSH2 0x24E SWAP2 SWAP1 PUSH2 0x1ACA JUMP JUMPDEST PUSH1 0x40 MLOAD DUP1 SWAP2 SUB SWAP1 RETURN JUMPDEST CALLVALUE DUP1 ISZERO PUSH2 0x263 JUMPI PUSH1 0x0 DUP1 REVERT JUMPDEST POP PUSH2 0x26C PUSH2 0xD3C JUMP JUMPDEST PUSH1 0x40 MLOAD PUSH2 0x279 SWAP2 SWAP1 PUSH2 0x1B54 JUMP JUMPDEST PUSH1 0x40 MLOAD DUP1 SWAP2 SUB SWAP1 RETURN JUMPDEST CALLVALUE DUP1 ISZERO PUSH2 0x28E JUMPI PUSH1 0x0 DUP1 REVERT JUMPDEST POP PUSH2 0x297 PUSH2 0xD4F JUMP JUMPDEST PUSH1 0x40 MLOAD PUSH2 0x2A4 SWAP2 SWAP1 PUSH2 0x1ACA JUMP JUMPDEST PUSH1 0x40 MLOAD DUP1 SWAP2 SUB SWAP1 RETURN JUMPDEST CALLVALUE DUP1 ISZERO PUSH2 0x2B9 JUMPI PUSH1 0x0 DUP1 REVERT JUMPDEST POP PUSH2 0x2C2 PUSH2 0xD55 JUMP JUMPDEST PUSH1 0x40 MLOAD PUSH2 0x2CF SWAP2 SWAP1 PUSH2 0x1ACA JUMP JUMPDEST PUSH1 0x40 MLOAD DUP1 SWAP2 SUB SWAP1 RETURN JUMPDEST PUSH2 0x2E0 PUSH2 0xD5B JUMP JUMPDEST STOP JUMPDEST CALLVALUE DUP1 ISZERO PUSH2 0x2EE JUMPI PUSH1 0x0 DUP1 REVERT JUMPDEST POP PUSH2 0x309 PUSH1 0x4 DUP1 CALLDATASIZE SUB DUP2 ADD SWAP1 PUSH2 0x304 SWAP2 SWAP1 PUSH2 0x1B6F JUMP JUMPDEST PUSH2 0x1014 JUMP JUMPDEST PUSH1 0x40 MLOAD PUSH2 0x316 SWAP2 SWAP1 PUSH2 0x1ACA JUMP JUMPDEST PUSH1 0x40 MLOAD DUP1 SWAP2 SUB SWAP1 RETURN JUMPDEST CALLVALUE DUP1 ISZERO PUSH2 0x32B JUMPI PUSH1 0x0 DUP1 REVERT JUMPDEST POP PUSH2 0x334 PUSH2 0x105D JUMP JUMPDEST PUSH1 0x40 MLOAD PUSH2 0x341 SWAP2 SWAP1 PUSH2 0x1ACA JUMP JUMPDEST PUSH1 0x40 MLOAD DUP1 SWAP2 SUB SWAP1 RETURN JUMPDEST CALLVALUE DUP1 ISZERO PUSH2 0x356 JUMPI PUSH1 0x0 DUP1 REVERT JUMPDEST POP PUSH2 0x35F PUSH2 0x1097 JUMP JUMPDEST PUSH1 0x40 MLOAD PUSH2 0x36C SWAP2 SWAP1 PUSH2 0x1BAB JUMP JUMPDEST PUSH1 0x40 MLOAD DUP1 SWAP2 SUB SWAP1 RETURN JUMPDEST CALLVALUE DUP1 ISZERO PUSH2 0x381 JUMPI PUSH1 0x0 DUP1 REVERT JUMPDEST POP PUSH2 0x38A PUSH2 0x10BD JUMP JUMPDEST PUSH1 0x40 MLOAD PUSH2 0x397 SWAP2 SWAP1 PUSH2 0x198A JUMP JUMPDEST PUSH1 0x40 MLOAD DUP1 SWAP2 SUB SWAP1 RETURN JUMPDEST CALLVALUE DUP1 ISZERO PUSH2 0x3AC JUMPI PUSH1 0x0 DUP1 REVERT JUMPDEST POP PUSH2 0x3C7 PUSH1 0x4 DUP1 CALLDATASIZE SUB DUP2 ADD SWAP1 PUSH2 0x3C2 SWAP2 SWAP1 PUSH2 0x1BC6 JUMP JUMPDEST PUSH2 0x114B JUMP JUMPDEST PUSH1 0x40 MLOAD PUSH2 0x3D4 SWAP2 SWAP1 PUSH2 0x1ACA JUMP JUMPDEST PUSH1 0x40 MLOAD DUP1 SWAP2 SUB SWAP1 RETURN JUMPDEST CALLVALUE DUP1 ISZERO PUSH2 0x3E9 JUMPI PUSH1 0x0 DUP1 REVERT JUMPDEST POP PUSH2 0x404 PUSH1 0x4 DUP1 CALLDATASIZE SUB DUP2 ADD SWAP1 PUSH2 0x3FF SWAP2 SWAP1 PUSH2 0x1A45 JUMP JUMPDEST PUSH2 0x11A4 JUMP JUMPDEST PUSH1 0x40 MLOAD PUSH2 0x411 SWAP2 SWAP1 PUSH2 0x1AA0 JUMP JUMPDEST PUSH1 0x40 MLOAD DUP1 SWAP2 SUB SWAP1 RETURN JUMPDEST CALLVALUE DUP1 ISZERO PUSH2 0x426 JUMPI PUSH1 0x0 DUP1 REVERT JUMPDEST POP PUSH2 0x441 PUSH1 0x4 DUP1 CALLDATASIZE SUB DUP2 ADD SWAP1 PUSH2 0x43C SWAP2 SWAP1 PUSH2 0x1BC6 JUMP JUMPDEST PUSH2 0x133F JUMP JUMPDEST PUSH1 0x40 MLOAD PUSH2 0x44E SWAP2 SWAP1 PUSH2 0x1ACA JUMP JUMPDEST PUSH1 0x40 MLOAD DUP1 SWAP2 SUB SWAP1 RETURN JUMPDEST CALLVALUE DUP1 ISZERO PUSH2 0x463 JUMPI PUSH1 0x0 DUP1 REVERT JUMPDEST POP PUSH2 0x47E PUSH1 0x4 DUP1 CALLDATASIZE SUB DUP2 ADD SWAP1 PUSH2 0x479 SWAP2 SWAP1 PUSH2 0x1BC6 JUMP JUMPDEST PUSH2 0x1361 JUMP JUMPDEST PUSH1 0x40 MLOAD PUSH2 0x48B SWAP2 SWAP1 PUSH2 0x1ACA JUMP JUMPDEST PUSH1 0x40 MLOAD DUP1 SWAP2 SUB SWAP1 RETURN JUMPDEST CALLVALUE DUP1 ISZERO PUSH2 0x4A0 JUMPI PUSH1 0x0 DUP1 REVERT JUMPDEST POP PUSH2 0x4BB PUSH1 0x4 DUP1 CALLDATASIZE SUB DUP2 ADD SWAP1 PUSH2 0x4B6 SWAP2 SWAP1 PUSH2 0x1C06 JUMP JUMPDEST PUSH2 0x1399 JUMP JUMPDEST PUSH1 0x40 MLOAD PUSH2 0x4C8 SWAP2 SWAP1 PUSH2 0x1ACA JUMP JUMPDEST PUSH1 0x40 MLOAD DUP1 SWAP2 SUB SWAP1 RETURN JUMPDEST CALLVALUE DUP1 ISZERO PUSH2 0x4DD JUMPI PUSH1 0x0 DUP1 REVERT JUMPDEST POP PUSH2 0x4E6 PUSH2 0x1420 JUMP JUMPDEST STOP JUMPDEST CALLVALUE DUP1 ISZERO PUSH2 0x4F4 JUMPI PUSH1 0x0 DUP1 REVERT JUMPDEST POP PUSH2 0x4FD PUSH2 0x17A6 JUMP JUMPDEST PUSH1 0x40 MLOAD PUSH2 0x50A SWAP2 SWAP1 PUSH2 0x1C67 JUMP JUMPDEST PUSH1 0x40 MLOAD DUP1 SWAP2 SUB SWAP1 RETURN JUMPDEST CALLVALUE DUP1 ISZERO PUSH2 0x51F JUMPI PUSH1 0x0 DUP1 REVERT JUMPDEST POP PUSH2 0x53A PUSH1 0x4 DUP1 CALLDATASIZE SUB DUP2 ADD SWAP1 PUSH2 0x535 SWAP2 SWAP1 PUSH2 0x1BC6 JUMP JUMPDEST PUSH2 0x17CC JUMP JUMPDEST PUSH1 0x40 MLOAD PUSH2 0x547 SWAP2 SWAP1 PUSH2 0x1ACA JUMP JUMPDEST PUSH1 0x40 MLOAD DUP1 SWAP2 SUB SWAP1 RETURN JUMPDEST CALLVALUE DUP1 ISZERO PUSH2 0x55C JUMPI PUSH1 0x0 DUP1 REVERT JUMPDEST POP PUSH2 0x565 PUSH2 0x17EF JUMP JUMPDEST PUSH1 0x40 MLOAD PUSH2 0x572 SWAP2 SWAP1 PUSH2 0x1D40 JUMP JUMPDEST PUSH1 0x40 MLOAD DUP1 SWAP2 SUB SWAP1 RETURN JUMPDEST PUSH1 0x0 DUP1 SLOAD PUSH2 0x588 SWAP1 PUSH2 0x1D91 JUMP JUMPDEST DUP1 PUSH1 0x1F ADD PUSH1 0x20 DUP1 SWAP2 DIV MUL PUSH1 0x20 ADD PUSH1 0x40 MLOAD SWAP1 DUP2 ADD PUSH1 0x40 MSTORE DUP1 SWAP3 SWAP2 SWAP1 DUP2 DUP2 MSTORE PUSH1 0x20 ADD DUP3 DUP1 SLOAD PUSH2 0x5B4 SWAP1 PUSH2 0x1D91 JUMP JUMPDEST DUP1 ISZERO PUSH2 0x601 JUMPI DUP1 PUSH1 0x1F LT PUSH2 0x5D6 JUMPI PUSH2 0x100 DUP1 DUP4 SLOAD DIV MUL DUP4 MSTORE SWAP2 PUSH1 0x20 ADD SWAP2 PUSH2 0x601 JUMP JUMPDEST DUP3 ADD SWAP2 SWAP1 PUSH1 0x0 MSTORE PUSH1 0x20 PUSH1 0x0 KECCAK256 SWAP1 JUMPDEST DUP2 SLOAD DUP2 MSTORE SWAP1 PUSH1 0x1 ADD SWAP1 PUSH1 0x20 ADD DUP1 DUP4 GT PUSH2 0x5E4 JUMPI DUP3 SWAP1 SUB PUSH1 0x1F AND DUP3 ADD SWAP2 JUMPDEST POP POP POP POP POP DUP2 JUMP JUMPDEST PUSH1 0x0 DUP2 PUSH1 0x5 PUSH1 0x0 CALLER PUSH20 0xFFFFFFFFFFFFFFFFFFFFFFFFFFFFFFFFFFFFFFFF AND PUSH20 0xFFFFFFFFFFFFFFFFFFFFFFFFFFFFFFFFFFFFFFFF AND DUP2 MSTORE PUSH1 0x20 ADD SWAP1 DUP2 MSTORE PUSH1 0x20 ADD PUSH1 0x0 KECCAK256 PUSH1 0x0 DUP6 PUSH20 0xFFFFFFFFFFFFFFFFFFFFFFFFFFFFFFFFFFFFFFFF AND PUSH20 0xFFFFFFFFFFFFFFFFFFFFFFFFFFFFFFFFFFFFFFFF AND DUP2 MSTORE PUSH1 0x20 ADD SWAP1 DUP2 MSTORE PUSH1 0x20 ADD PUSH1 0x0 KECCAK256 DUP2 SWAP1 SSTORE POP DUP3 PUSH20 0xFFFFFFFFFFFFFFFFFFFFFFFFFFFFFFFFFFFFFFFF AND CALLER PUSH20 0xFFFFFFFFFFFFFFFFFFFFFFFFFFFFFFFFFFFFFFFF AND PUSH32 0x8C5BE1E5EBEC7D5BD14F71427D1E84F3DD0314C0F7B2291E5B200AC8C7C3B925 DUP5 PUSH1 0x40 MLOAD PUSH2 0x6E9 SWAP2 SWAP1 PUSH2 0x1ACA JUMP JUMPDEST PUSH1 0x40 MLOAD DUP1 SWAP2 SUB SWAP1 LOG3 PUSH1 0x1 SWAP1 POP SWAP3 SWAP2 POP POP JUMP JUMPDEST PUSH1 0x7 PUSH1 0x0 SWAP1 SLOAD SWAP1 PUSH2 0x100 EXP SWAP1 DIV PUSH20 0xFFFFFFFFFFFFFFFFFFFFFFFFFFFFFFFFFFFFFFFF AND PUSH20 0xFFFFFFFFFFFFFFFFFFFFFFFFFFFFFFFFFFFFFFFF AND CALLER PUSH20 0xFFFFFFFFFFFFFFFFFFFFFFFFFFFFFFFFFFFFFFFF AND EQ PUSH2 0x755 JUMPI PUSH1 0x0 DUP1 REVERT JUMPDEST PUSH1 0x0 PUSH1 0x9 DUP1 SLOAD SWAP1 POP GT PUSH2 0x79D JUMPI PUSH1 0x40 MLOAD PUSH32 0x8C379A000000000000000000000000000000000000000000000000000000000 DUP2 MSTORE PUSH1 0x4 ADD PUSH2 0x794 SWAP1 PUSH2 0x1E34 JUMP JUMPDEST PUSH1 0x40 MLOAD DUP1 SWAP2 SUB SWAP1 REVERT JUMPDEST PUSH1 0xB4 PUSH1 0xB SLOAD PUSH2 0x7AC SWAP2 SWAP1 PUSH2 0x1E83 JUMP JUMPDEST TIMESTAMP GT PUSH2 0x7ED JUMPI PUSH1 0x40 MLOAD PUSH32 0x8C379A000000000000000000000000000000000000000000000000000000000 DUP2 MSTORE PUSH1 0x4 ADD PUSH2 0x7E4 SWAP1 PUSH2 0x1F4F JUMP JUMPDEST PUSH1 0x40 MLOAD DUP1 SWAP2 SUB SWAP1 REVERT JUMPDEST PUSH1 0x0 PUSH2 0x7F7 PUSH2 0x105D JUMP JUMPDEST SWAP1 POP PUSH1 0x0 PUSH1 0x9 DUP1 SLOAD SWAP1 POP DUP3 PUSH2 0x80C SWAP2 SWAP1 PUSH2 0x1F9E JUMP JUMPDEST SWAP1 POP PUSH1 0x9 DUP2 DUP2 SLOAD DUP2 LT PUSH2 0x822 JUMPI PUSH2 0x821 PUSH2 0x1FCF JUMP JUMPDEST JUMPDEST SWAP1 PUSH1 0x0 MSTORE PUSH1 0x20 PUSH1 0x0 KECCAK256 ADD PUSH1 0x0 SWAP1 SLOAD SWAP1 PUSH2 0x100 EXP SWAP1 DIV PUSH20 0xFFFFFFFFFFFFFFFFFFFFFFFFFFFFFFFFFFFFFFFF AND PUSH1 0x8 PUSH1 0x0 PUSH2 0x100 EXP DUP2 SLOAD DUP2 PUSH20 0xFFFFFFFFFFFFFFFFFFFFFFFFFFFFFFFFFFFFFFFF MUL NOT AND SWAP1 DUP4 PUSH20 0xFFFFFFFFFFFFFFFFFFFFFFFFFFFFFFFFFFFFFFFF AND MUL OR SWAP1 SSTORE POP PUSH1 0x0 PUSH1 0xA PUSH1 0x9 PUSH1 0xA SLOAD PUSH2 0x8A0 SWAP2 SWAP1 PUSH2 0x1FFE JUMP JUMPDEST PUSH2 0x8AA SWAP2 SWAP1 PUSH2 0x2040 JUMP JUMPDEST SWAP1 POP PUSH2 0x919 PUSH1 0x4 PUSH1 0x0 PUSH1 0x7 PUSH1 0x0 SWAP1 SLOAD SWAP1 PUSH2 0x100 EXP SWAP1 DIV PUSH20 0xFFFFFFFFFFFFFFFFFFFFFFFFFFFFFFFFFFFFFFFF AND PUSH20 0xFFFFFFFFFFFFFFFFFFFFFFFFFFFFFFFFFFFFFFFF AND PUSH20 0xFFFFFFFFFFFFFFFFFFFFFFFFFFFFFFFFFFFFFFFF AND DUP2 MSTORE PUSH1 0x20 ADD SWAP1 DUP2 MSTORE PUSH1 0x20 ADD PUSH1 0x0 KECCAK256 SLOAD PUSH1 0xA SLOAD PUSH2 0x17CC JUMP JUMPDEST PUSH1 0x4 PUSH1 0x0 PUSH1 0x7 PUSH1 0x0 SWAP1 SLOAD SWAP1 PUSH2 0x100 EXP SWAP1 DIV PUSH20 0xFFFFFFFFFFFFFFFFFFFFFFFFFFFFFFFFFFFFFFFF AND PUSH20 0xFFFFFFFFFFFFFFFFFFFFFFFFFFFFFFFFFFFFFFFF AND PUSH20 0xFFFFFFFFFFFFFFFFFFFFFFFFFFFFFFFFFFFFFFFF AND DUP2 MSTORE PUSH1 0x20 ADD SWAP1 DUP2 MSTORE PUSH1 0x20 ADD PUSH1 0x0 KECCAK256 DUP2 SWAP1 SSTORE POP PUSH1 0x0 PUSH1 0xA DUP2 SWAP1 SSTORE POP PUSH2 0x9D5 PUSH1 0x7 PUSH1 0x0 SWAP1 SLOAD SWAP1 PUSH2 0x100 EXP SWAP1 DIV PUSH20 0xFFFFFFFFFFFFFFFFFFFFFFFFFFFFFFFFFFFFFFFF AND PUSH1 0x8 PUSH1 0x0 SWAP1 SLOAD SWAP1 PUSH2 0x100 EXP SWAP1 DIV PUSH20 0xFFFFFFFFFFFFFFFFFFFFFFFFFFFFFFFFFFFFFFFF AND DUP4 PUSH2 0xAA6 JUMP JUMPDEST POP PUSH1 0x8 PUSH1 0x0 SWAP1 SLOAD SWAP1 PUSH2 0x100 EXP SWAP1 DIV PUSH20 0xFFFFFFFFFFFFFFFFFFFFFFFFFFFFFFFFFFFFFFFF AND PUSH20 0xFFFFFFFFFFFFFFFFFFFFFFFFFFFFFFFFFFFFFFFF AND PUSH32 0xE270EE2F324E081C14957E0ABDB70AA14E5AACD0466AC05A9A1E89982CDB5326 DUP3 PUSH1 0x40 MLOAD PUSH2 0xA3E SWAP2 SWAP1 PUSH2 0x1ACA JUMP JUMPDEST PUSH1 0x40 MLOAD DUP1 SWAP2 SUB SWAP1 LOG2 TIMESTAMP PUSH1 0xB DUP2 SWAP1 SSTORE POP POP POP POP JUMP JUMPDEST PUSH1 0x0 PUSH1 0x4 PUSH1 0x0 DUP1 PUSH20 0xFFFFFFFFFFFFFFFFFFFFFFFFFFFFFFFFFFFFFFFF AND PUSH20 0xFFFFFFFFFFFFFFFFFFFFFFFFFFFFFFFFFFFFFFFF AND DUP2 MSTORE PUSH1 0x20 ADD SWAP1 DUP2 MSTORE PUSH1 0x20 ADD PUSH1 0x0 KECCAK256 SLOAD PUSH1 0x3 SLOAD PUSH2 0xAA1 SWAP2 SWAP1 PUSH2 0x2071 JUMP JUMPDEST SWAP1 POP SWAP1 JUMP JUMPDEST PUSH1 0x0 PUSH2 0xAF1 PUSH1 0x4 PUSH1 0x0 DUP7 PUSH20 0xFFFFFFFFFFFFFFFFFFFFFFFFFFFFFFFFFFFFFFFF AND PUSH20 0xFFFFFFFFFFFFFFFFFFFFFFFFFFFFFFFFFFFFFFFF AND DUP2 MSTORE PUSH1 0x20 ADD SWAP1 DUP2 MSTORE PUSH1 0x20 ADD PUSH1 0x0 KECCAK256 SLOAD DUP4 PUSH2 0x114B JUMP JUMPDEST PUSH1 0x4 PUSH1 0x0 DUP7 PUSH20 0xFFFFFFFFFFFFFFFFFFFFFFFFFFFFFFFFFFFFFFFF AND PUSH20 0xFFFFFFFFFFFFFFFFFFFFFFFFFFFFFFFFFFFFFFFF AND DUP2 MSTORE PUSH1 0x20 ADD SWAP1 DUP2 MSTORE PUSH1 0x20 ADD PUSH1 0x0 KECCAK256 DUP2 SWAP1 SSTORE POP PUSH2 0xBBA PUSH1 0x5 PUSH1 0x0 DUP7 PUSH20 0xFFFFFFFFFFFFFFFFFFFFFFFFFFFFFFFFFFFFFFFF AND PUSH20 0xFFFFFFFFFFFFFFFFFFFFFFFFFFFFFFFFFFFFFFFF AND DUP2 MSTORE PUSH1 0x20 ADD SWAP1 DUP2 MSTORE PUSH1 0x20 ADD PUSH1 0x0 KECCAK256 PUSH1 0x0 CALLER PUSH20 0xFFFFFFFFFFFFFFFFFFFFFFFFFFFFFFFFFFFFFFFF AND PUSH20 0xFFFFFFFFFFFFFFFFFFFFFFFFFFFFFFFFFFFFFFFF AND DUP2 MSTORE PUSH1 0x20 ADD SWAP1 DUP2 MSTORE PUSH1 0x20 ADD PUSH1 0x0 KECCAK256 SLOAD DUP4 PUSH2 0x114B JUMP JUMPDEST PUSH1 0x5 PUSH1 0x0 DUP7 PUSH20 0xFFFFFFFFFFFFFFFFFFFFFFFFFFFFFFFFFFFFFFFF AND PUSH20 0xFFFFFFFFFFFFFFFFFFFFFFFFFFFFFFFFFFFFFFFF AND DUP2 MSTORE PUSH1 0x20 ADD SWAP1 DUP2 MSTORE PUSH1 0x20 ADD PUSH1 0x0 KECCAK256 PUSH1 0x0 CALLER PUSH20 0xFFFFFFFFFFFFFFFFFFFFFFFFFFFFFFFFFFFFFFFF AND PUSH20 0xFFFFFFFFFFFFFFFFFFFFFFFFFFFFFFFFFFFFFFFF AND DUP2 MSTORE PUSH1 0x20 ADD SWAP1 DUP2 MSTORE PUSH1 0x20 ADD PUSH1 0x0 KECCAK256 DUP2 SWAP1 SSTORE POP PUSH2 0xC83 PUSH1 0x4 PUSH1 0x0 DUP6 PUSH20 0xFFFFFFFFFFFFFFFFFFFFFFFFFFFFFFFFFFFFFFFF AND PUSH20 0xFFFFFFFFFFFFFFFFFFFFFFFFFFFFFFFFFFFFFFFF AND DUP2 MSTORE PUSH1 0x20 ADD SWAP1 DUP2 MSTORE PUSH1 0x20 ADD PUSH1 0x0 KECCAK256 SLOAD DUP4 PUSH2 0x17CC JUMP JUMPDEST PUSH1 0x4 PUSH1 0x0 DUP6 PUSH20 0xFFFFFFFFFFFFFFFFFFFFFFFFFFFFFFFFFFFFFFFF AND PUSH20 0xFFFFFFFFFFFFFFFFFFFFFFFFFFFFFFFFFFFFFFFF AND DUP2 MSTORE PUSH1 0x20 ADD SWAP1 DUP2 MSTORE PUSH1 0x20 ADD PUSH1 0x0 KECCAK256 DUP2 SWAP1 SSTORE POP DUP3 PUSH20 0xFFFFFFFFFFFFFFFFFFFFFFFFFFFFFFFFFFFFFFFF AND DUP5 PUSH20 0xFFFFFFFFFFFFFFFFFFFFFFFFFFFFFFFFFFFFFFFF AND PUSH32 0xDDF252AD1BE2C89B69C2B068FC378DAA952BA7F163C4A11628F55A4DF523B3EF DUP5 PUSH1 0x40 MLOAD PUSH2 0xD23 SWAP2 SWAP1 PUSH2 0x1ACA JUMP JUMPDEST PUSH1 0x40 MLOAD DUP1 SWAP2 SUB SWAP1 LOG3 PUSH1 0x1 SWAP1 POP SWAP4 SWAP3 POP POP POP JUMP JUMPDEST PUSH1 0xA SLOAD DUP2 JUMP JUMPDEST PUSH1 0x2 PUSH1 0x0 SWAP1 SLOAD SWAP1 PUSH2 0x100 EXP SWAP1 DIV PUSH1 0xFF AND DUP2 JUMP JUMPDEST PUSH1 0x3 SLOAD DUP2 JUMP JUMPDEST PUSH1 0xB SLOAD DUP2 JUMP JUMPDEST PUSH1 0x7 PUSH1 0x0 SWAP1 SLOAD SWAP1 PUSH2 0x100 EXP SWAP1 DIV PUSH20 0xFFFFFFFFFFFFFFFFFFFFFFFFFFFFFFFFFFFFFFFF AND PUSH20 0xFFFFFFFFFFFFFFFFFFFFFFFFFFFFFFFFFFFFFFFF AND CALLER PUSH20 0xFFFFFFFFFFFFFFFFFFFFFFFFFFFFFFFFFFFFFFFF AND SUB PUSH2 0xDEB JUMPI PUSH1 0x40 MLOAD PUSH32 0x8C379A000000000000000000000000000000000000000000000000000000000 DUP2 MSTORE PUSH1 0x4 ADD PUSH2 0xDE2 SWAP1 PUSH2 0x2117 JUMP JUMPDEST PUSH1 0x40 MLOAD DUP1 SWAP2 SUB SWAP1 REVERT JUMPDEST PUSH1 0x64 PUSH1 0x4 PUSH1 0x0 CALLER PUSH20 0xFFFFFFFFFFFFFFFFFFFFFFFFFFFFFFFFFFFFFFFF AND PUSH20 0xFFFFFFFFFFFFFFFFFFFFFFFFFFFFFFFFFFFFFFFF AND DUP2 MSTORE PUSH1 0x20 ADD SWAP1 DUP2 MSTORE PUSH1 0x20 ADD PUSH1 0x0 KECCAK256 SLOAD LT ISZERO PUSH2 0xE6E JUMPI PUSH1 0x40 MLOAD PUSH32 0x8C379A000000000000000000000000000000000000000000000000000000000 DUP2 MSTORE PUSH1 0x4 ADD PUSH2 0xE65 SWAP1 PUSH2 0x21A9 JUMP JUMPDEST PUSH1 0x40 MLOAD DUP1 SWAP2 SUB SWAP1 REVERT JUMPDEST PUSH2 0x1F4 PUSH1 0x3 SLOAD LT ISZERO PUSH2 0xEB5 JUMPI PUSH1 0x40 MLOAD PUSH32 0x8C379A000000000000000000000000000000000000000000000000000000000 DUP2 MSTORE PUSH1 0x4 ADD PUSH2 0xEAC SWAP1 PUSH2 0x2215 JUMP JUMPDEST PUSH1 0x40 MLOAD DUP1 SWAP2 SUB SWAP1 REVERT JUMPDEST PUSH1 0x3 SLOAD PUSH1 0x64 PUSH1 0xA SLOAD PUSH2 0xEC7 SWAP2 SWAP1 PUSH2 0x1E83 JUMP JUMPDEST GT ISZERO PUSH2 0xF08 JUMPI PUSH1 0x40 MLOAD PUSH32 0x8C379A000000000000000000000000000000000000000000000000000000000 DUP2 MSTORE PUSH1 0x4 ADD PUSH2 0xEFF SWAP1 PUSH2 0x2281 JUMP JUMPDEST PUSH1 0x40 MLOAD DUP1 SWAP2 SUB SWAP1 REVERT JUMPDEST PUSH2 0xF52 PUSH1 0x4 PUSH1 0x0 CALLER PUSH20 0xFFFFFFFFFFFFFFFFFFFFFFFFFFFFFFFFFFFFFFFF AND PUSH20 0xFFFFFFFFFFFFFFFFFFFFFFFFFFFFFFFFFFFFFFFF AND DUP2 MSTORE PUSH1 0x20 ADD SWAP1 DUP2 MSTORE PUSH1 0x20 ADD PUSH1 0x0 KECCAK256 SLOAD PUSH1 0x64 PUSH2 0x114B JUMP JUMPDEST PUSH1 0x4 PUSH1 0x0 CALLER PUSH20 0xFFFFFFFFFFFFFFFFFFFFFFFFFFFFFFFFFFFFFFFF AND PUSH20 0xFFFFFFFFFFFFFFFFFFFFFFFFFFFFFFFFFFFFFFFF AND DUP2 MSTORE PUSH1 0x20 ADD SWAP1 DUP2 MSTORE PUSH1 0x20 ADD PUSH1 0x0 KECCAK256 DUP2 SWAP1 SSTORE POP PUSH1 0x9 CALLER SWAP1 DUP1 PUSH1 0x1 DUP2 SLOAD ADD DUP1 DUP3 SSTORE DUP1 SWAP2 POP POP PUSH1 0x1 SWAP1 SUB SWAP1 PUSH1 0x0 MSTORE PUSH1 0x20 PUSH1 0x0 KECCAK256 ADD PUSH1 0x0 SWAP1 SWAP2 SWAP1 SWAP2 SWAP1 SWAP2 PUSH2 0x100 EXP DUP2 SLOAD DUP2 PUSH20 0xFFFFFFFFFFFFFFFFFFFFFFFFFFFFFFFFFFFFFFFF MUL NOT AND SWAP1 DUP4 PUSH20 0xFFFFFFFFFFFFFFFFFFFFFFFFFFFFFFFFFFFFFFFF AND MUL OR SWAP1 SSTORE POP PUSH1 0x64 PUSH1 0xA PUSH1 0x0 DUP3 DUP3 SLOAD PUSH2 0x100B SWAP2 SWAP1 PUSH2 0x1E83 JUMP JUMPDEST SWAP3 POP POP DUP2 SWAP1 SSTORE POP JUMP JUMPDEST PUSH1 0x0 PUSH1 0x4 PUSH1 0x0 DUP4 PUSH20 0xFFFFFFFFFFFFFFFFFFFFFFFFFFFFFFFFFFFFFFFF AND PUSH20 0xFFFFFFFFFFFFFFFFFFFFFFFFFFFFFFFFFFFFFFFF AND DUP2 MSTORE PUSH1 0x20 ADD SWAP1 DUP2 MSTORE PUSH1 0x20 ADD PUSH1 0x0 KECCAK256 SLOAD SWAP1 POP SWAP2 SWAP1 POP JUMP JUMPDEST PUSH1 0x0 DUP1 TIMESTAMP PREVRANDAO CALLER PUSH1 0x40 MLOAD PUSH1 0x20 ADD PUSH2 0x1075 SWAP4 SWAP3 SWAP2 SWAP1 PUSH2 0x230A JUMP JUMPDEST PUSH1 0x40 MLOAD PUSH1 0x20 DUP2 DUP4 SUB SUB DUP2 MSTORE SWAP1 PUSH1 0x40 MSTORE DUP1 MLOAD SWAP1 PUSH1 0x20 ADD KECCAK256 PUSH1 0x0 SHR SWAP1 POP DUP1 SWAP2 POP POP SWAP1 JUMP JUMPDEST PUSH1 0x7 PUSH1 0x0 SWAP1 SLOAD SWAP1 PUSH2 0x100 EXP SWAP1 DIV PUSH20 0xFFFFFFFFFFFFFFFFFFFFFFFFFFFFFFFFFFFFFFFF AND DUP2 JUMP JUMPDEST PUSH1 0x1 DUP1 SLOAD PUSH2 0x10CA SWAP1 PUSH2 0x1D91 JUMP JUMPDEST DUP1 PUSH1 0x1F ADD PUSH1 0x20 DUP1 SWAP2 DIV MUL PUSH1 0x20 ADD PUSH1 0x40 MLOAD SWAP1 DUP2 ADD PUSH1 0x40 MSTORE DUP1 SWAP3 SWAP2 SWAP1 DUP2 DUP2 MSTORE PUSH1 0x20 ADD DUP3 DUP1 SLOAD PUSH2 0x10F6 SWAP1 PUSH2 0x1D91 JUMP JUMPDEST DUP1 ISZERO PUSH2 0x1143 JUMPI DUP1 PUSH1 0x1F LT PUSH2 0x1118 JUMPI PUSH2 0x100 DUP1 DUP4 SLOAD DIV MUL DUP4 MSTORE SWAP2 PUSH1 0x20 ADD SWAP2 PUSH2 0x1143 JUMP JUMPDEST DUP3 ADD SWAP2 SWAP1 PUSH1 0x0 MSTORE PUSH1 0x20 PUSH1 0x0 KECCAK256 SWAP1 JUMPDEST DUP2 SLOAD DUP2 MSTORE SWAP1 PUSH1 0x1 ADD SWAP1 PUSH1 0x20 ADD DUP1 DUP4 GT PUSH2 0x1126 JUMPI DUP3 SWAP1 SUB PUSH1 0x1F AND DUP3 ADD SWAP2 JUMPDEST POP POP POP POP POP DUP2 JUMP JUMPDEST PUSH1 0x0 DUP3 DUP3 GT ISZERO PUSH2 0x1190 JUMPI PUSH1 0x40 MLOAD PUSH32 0x8C379A000000000000000000000000000000000000000000000000000000000 DUP2 MSTORE PUSH1 0x4 ADD PUSH2 0x1187 SWAP1 PUSH2 0x2393 JUMP JUMPDEST PUSH1 0x40 MLOAD DUP1 SWAP2 SUB SWAP1 REVERT JUMPDEST DUP2 DUP4 PUSH2 0x119C SWAP2 SWAP1 PUSH2 0x2071 JUMP JUMPDEST SWAP1 POP SWAP3 SWAP2 POP POP JUMP JUMPDEST PUSH1 0x0 PUSH2 0x11EF PUSH1 0x4 PUSH1 0x0 CALLER PUSH20 0xFFFFFFFFFFFFFFFFFFFFFFFFFFFFFFFFFFFFFFFF AND PUSH20 0xFFFFFFFFFFFFFFFFFFFFFFFFFFFFFFFFFFFFFFFF AND DUP2 MSTORE PUSH1 0x20 ADD SWAP1 DUP2 MSTORE PUSH1 0x20 ADD PUSH1 0x0 KECCAK256 SLOAD DUP4 PUSH2 0x114B JUMP JUMPDEST PUSH1 0x4 PUSH1 0x0 CALLER PUSH20 0xFFFFFFFFFFFFFFFFFFFFFFFFFFFFFFFFFFFFFFFF AND PUSH20 0xFFFFFFFFFFFFFFFFFFFFFFFFFFFFFFFFFFFFFFFF AND DUP2 MSTORE PUSH1 0x20 ADD SWAP1 DUP2 MSTORE PUSH1 0x20 ADD PUSH1 0x0 KECCAK256 DUP2 SWAP1 SSTORE POP PUSH2 0x127B PUSH1 0x4 PUSH1 0x0 DUP6 PUSH20 0xFFFFFFFFFFFFFFFFFFFFFFFFFFFFFFFFFFFFFFFF AND PUSH20 0xFFFFFFFFFFFFFFFFFFFFFFFFFFFFFFFFFFFFFFFF AND DUP2 MSTORE PUSH1 0x20 ADD SWAP1 DUP2 MSTORE PUSH1 0x20 ADD PUSH1 0x0 KECCAK256 SLOAD DUP4 PUSH2 0x17CC JUMP JUMPDEST PUSH1 0x4 PUSH1 0x0 DUP6 PUSH20 0xFFFFFFFFFFFFFFFFFFFFFFFFFFFFFFFFFFFFFFFF AND PUSH20 0xFFFFFFFFFFFFFFFFFFFFFFFFFFFFFFFFFFFFFFFF AND DUP2 MSTORE PUSH1 0x20 ADD SWAP1 DUP2 MSTORE PUSH1 0x20 ADD PUSH1 0x0 KECCAK256 DUP2 SWAP1 SSTORE POP PUSH2 0x12CA PUSH1 0x3 SLOAD DUP4 PUSH2 0x114B JUMP JUMPDEST PUSH1 0x3 DUP2 SWAP1 SSTORE POP DUP3 PUSH20 0xFFFFFFFFFFFFFFFFFFFFFFFFFFFFFFFFFFFFFFFF AND CALLER PUSH20 0xFFFFFFFFFFFFFFFFFFFFFFFFFFFFFFFFFFFFFFFF AND PUSH32 0xDDF252AD1BE2C89B69C2B068FC378DAA952BA7F163C4A11628F55A4DF523B3EF DUP5 PUSH1 0x40 MLOAD PUSH2 0x132D SWAP2 SWAP1 PUSH2 0x1ACA JUMP JUMPDEST PUSH1 0x40 MLOAD DUP1 SWAP2 SUB SWAP1 LOG3 PUSH1 0x1 SWAP1 POP SWAP3 SWAP2 POP POP JUMP JUMPDEST PUSH1 0x0 DUP1 DUP3 GT PUSH2 0x134D JUMPI PUSH1 0x0 DUP1 REVERT JUMPDEST DUP2 DUP4 PUSH2 0x1359 SWAP2 SWAP1 PUSH2 0x2040 JUMP JUMPDEST SWAP1 POP SWAP3 SWAP2 POP POP JUMP JUMPDEST PUSH1 0x0 DUP2 DUP4 PUSH2 0x136F SWAP2 SWAP1 PUSH2 0x1FFE JUMP JUMPDEST SWAP1 POP PUSH1 0x0 DUP4 EQ DUP1 PUSH2 0x138A JUMPI POP DUP2 DUP4 DUP3 PUSH2 0x1388 SWAP2 SWAP1 PUSH2 0x2040 JUMP JUMPDEST EQ JUMPDEST PUSH2 0x1393 JUMPI PUSH1 0x0 DUP1 REVERT JUMPDEST SWAP3 SWAP2 POP POP JUMP JUMPDEST PUSH1 0x0 PUSH1 0x5 PUSH1 0x0 DUP5 PUSH20 0xFFFFFFFFFFFFFFFFFFFFFFFFFFFFFFFFFFFFFFFF AND PUSH20 0xFFFFFFFFFFFFFFFFFFFFFFFFFFFFFFFFFFFFFFFF AND DUP2 MSTORE PUSH1 0x20 ADD SWAP1 DUP2 MSTORE PUSH1 0x20 ADD PUSH1 0x0 KECCAK256 PUSH1 0x0 DUP4 PUSH20 0xFFFFFFFFFFFFFFFFFFFFFFFFFFFFFFFFFFFFFFFF AND PUSH20 0xFFFFFFFFFFFFFFFFFFFFFFFFFFFFFFFFFFFFFFFF AND DUP2 MSTORE PUSH1 0x20 ADD SWAP1 DUP2 MSTORE PUSH1 0x20 ADD PUSH1 0x0 KECCAK256 SLOAD SWAP1 POP SWAP3 SWAP2 POP POP JUMP JUMPDEST PUSH1 0x7 PUSH1 0x0 SWAP1 SLOAD SWAP1 PUSH2 0x100 EXP SWAP1 DIV PUSH20 0xFFFFFFFFFFFFFFFFFFFFFFFFFFFFFFFFFFFFFFFF AND PUSH20 0xFFFFFFFFFFFFFFFFFFFFFFFFFFFFFFFFFFFFFFFF AND CALLER PUSH20 0xFFFFFFFFFFFFFFFFFFFFFFFFFFFFFFFFFFFFFFFF AND SUB PUSH2 0x14B0 JUMPI PUSH1 0x40 MLOAD PUSH32 0x8C379A000000000000000000000000000000000000000000000000000000000 DUP2 MSTORE PUSH1 0x4 ADD PUSH2 0x14A7 SWAP1 PUSH2 0x2425 JUMP JUMPDEST PUSH1 0x40 MLOAD DUP1 SWAP2 SUB SWAP1 REVERT JUMPDEST TIMESTAMP PUSH1 0x1E PUSH1 0x6 PUSH1 0x0 CALLER PUSH20 0xFFFFFFFFFFFFFFFFFFFFFFFFFFFFFFFFFFFFFFFF AND PUSH20 0xFFFFFFFFFFFFFFFFFFFFFFFFFFFFFFFFFFFFFFFF AND DUP2 MSTORE PUSH1 0x20 ADD SWAP1 DUP2 MSTORE PUSH1 0x20 ADD PUSH1 0x0 KECCAK256 SLOAD PUSH2 0x14FD SWAP2 SWAP1 PUSH2 0x1E83 JUMP JUMPDEST LT PUSH2 0x153D JUMPI PUSH1 0x40 MLOAD PUSH32 0x8C379A000000000000000000000000000000000000000000000000000000000 DUP2 MSTORE PUSH1 0x4 ADD PUSH2 0x1534 SWAP1 PUSH2 0x24B7 JUMP JUMPDEST PUSH1 0x40 MLOAD DUP1 SWAP2 SUB SWAP1 REVERT JUMPDEST PUSH2 0x1F4 PUSH1 0x3 SLOAD LT ISZERO PUSH2 0x1584 JUMPI PUSH1 0x40 MLOAD PUSH32 0x8C379A000000000000000000000000000000000000000000000000000000000 DUP2 MSTORE PUSH1 0x4 ADD PUSH2 0x157B SWAP1 PUSH2 0x2523 JUMP JUMPDEST PUSH1 0x40 MLOAD DUP1 SWAP2 SUB SWAP1 REVERT JUMPDEST TIMESTAMP PUSH1 0x6 PUSH1 0x0 CALLER PUSH20 0xFFFFFFFFFFFFFFFFFFFFFFFFFFFFFFFFFFFFFFFF AND PUSH20 0xFFFFFFFFFFFFFFFFFFFFFFFFFFFFFFFFFFFFFFFF AND DUP2 MSTORE PUSH1 0x20 ADD SWAP1 DUP2 MSTORE PUSH1 0x20 ADD PUSH1 0x0 KECCAK256 DUP2 SWAP1 SSTORE POP PUSH2 0x15D6 PUSH1 0x3 SLOAD PUSH2 0x1F4 PUSH2 0x114B JUMP JUMPDEST PUSH1 0x3 DUP2 SWAP1 SSTORE POP PUSH2 0x1649 PUSH1 0x4 PUSH1 0x0 PUSH1 0x7 PUSH1 0x0 SWAP1 SLOAD SWAP1 PUSH2 0x100 EXP SWAP1 DIV PUSH20 0xFFFFFFFFFFFFFFFFFFFFFFFFFFFFFFFFFFFFFFFF AND PUSH20 0xFFFFFFFFFFFFFFFFFFFFFFFFFFFFFFFFFFFFFFFF AND PUSH20 0xFFFFFFFFFFFFFFFFFFFFFFFFFFFFFFFFFFFFFFFF AND DUP2 MSTORE PUSH1 0x20 ADD SWAP1 DUP2 MSTORE PUSH1 0x20 ADD PUSH1 0x0 KECCAK256 SLOAD PUSH2 0x1F4 PUSH2 0x114B JUMP JUMPDEST PUSH1 0x4 PUSH1 0x0 PUSH1 0x7 PUSH1 0x0 SWAP1 SLOAD SWAP1 PUSH2 0x100 EXP SWAP1 DIV PUSH20 0xFFFFFFFFFFFFFFFFFFFFFFFFFFFFFFFFFFFFFFFF AND PUSH20 0xFFFFFFFFFFFFFFFFFFFFFFFFFFFFFFFFFFFFFFFF AND PUSH20 0xFFFFFFFFFFFFFFFFFFFFFFFFFFFFFFFFFFFFFFFF AND DUP2 MSTORE PUSH1 0x20 ADD SWAP1 DUP2 MSTORE PUSH1 0x20 ADD PUSH1 0x0 KECCAK256 DUP2 SWAP1 SSTORE POP PUSH2 0x16F9 PUSH1 0x4 PUSH1 0x0 CALLER PUSH20 0xFFFFFFFFFFFFFFFFFFFFFFFFFFFFFFFFFFFFFFFF AND PUSH20 0xFFFFFFFFFFFFFFFFFFFFFFFFFFFFFFFFFFFFFFFF AND DUP2 MSTORE PUSH1 0x20 ADD SWAP1 DUP2 MSTORE PUSH1 0x20 ADD PUSH1 0x0 KECCAK256 SLOAD PUSH2 0x1F4 PUSH2 0x17CC JUMP JUMPDEST PUSH1 0x4 PUSH1 0x0 CALLER PUSH20 0xFFFFFFFFFFFFFFFFFFFFFFFFFFFFFFFFFFFFFFFF AND PUSH20 0xFFFFFFFFFFFFFFFFFFFFFFFFFFFFFFFFFFFFFFFF AND DUP2 MSTORE PUSH1 0x20 ADD SWAP1 DUP2 MSTORE PUSH1 0x20 ADD PUSH1 0x0 KECCAK256 DUP2 SWAP1 SSTORE POP CALLER PUSH20 0xFFFFFFFFFFFFFFFFFFFFFFFFFFFFFFFFFFFFFFFF AND PUSH1 0x0 PUSH20 0xFFFFFFFFFFFFFFFFFFFFFFFFFFFFFFFFFFFFFFFF AND PUSH32 0xDDF252AD1BE2C89B69C2B068FC378DAA952BA7F163C4A11628F55A4DF523B3EF PUSH2 0x1F4 PUSH1 0x40 MLOAD PUSH2 0x179C SWAP2 SWAP1 PUSH2 0x2588 JUMP JUMPDEST PUSH1 0x40 MLOAD DUP1 SWAP2 SUB SWAP1 LOG3 JUMP JUMPDEST PUSH1 0x8 PUSH1 0x0 SWAP1 SLOAD SWAP1 PUSH2 0x100 EXP SWAP1 DIV PUSH20 0xFFFFFFFFFFFFFFFFFFFFFFFFFFFFFFFFFFFFFFFF AND DUP2 JUMP JUMPDEST PUSH1 0x0 DUP2 DUP4 PUSH2 0x17DA SWAP2 SWAP1 PUSH2 0x1E83 JUMP JUMPDEST SWAP1 POP DUP3 DUP2 LT ISZERO PUSH2 0x17E9 JUMPI PUSH1 0x0 DUP1 REVERT JUMPDEST SWAP3 SWAP2 POP POP JUMP JUMPDEST PUSH1 0x60 PUSH1 0x0 PUSH1 0x9 DUP1 SLOAD SWAP1 POP PUSH8 0xFFFFFFFFFFFFFFFF DUP2 GT ISZERO PUSH2 0x1812 JUMPI PUSH2 0x1811 PUSH2 0x25A3 JUMP JUMPDEST JUMPDEST PUSH1 0x40 MLOAD SWAP1 DUP1 DUP3 MSTORE DUP1 PUSH1 0x20 MUL PUSH1 0x20 ADD DUP3 ADD PUSH1 0x40 MSTORE DUP1 ISZERO PUSH2 0x1840 JUMPI DUP2 PUSH1 0x20 ADD PUSH1 0x20 DUP3 MUL DUP1 CALLDATASIZE DUP4 CALLDATACOPY DUP1 DUP3 ADD SWAP2 POP POP SWAP1 POP JUMPDEST POP SWAP1 POP PUSH1 0x0 JUMPDEST PUSH1 0x9 DUP1 SLOAD SWAP1 POP DUP2 LT ISZERO PUSH2 0x18F2 JUMPI PUSH1 0x9 DUP2 DUP2 SLOAD DUP2 LT PUSH2 0x1867 JUMPI PUSH2 0x1866 PUSH2 0x1FCF JUMP JUMPDEST JUMPDEST SWAP1 PUSH1 0x0 MSTORE PUSH1 0x20 PUSH1 0x0 KECCAK256 ADD PUSH1 0x0 SWAP1 SLOAD SWAP1 PUSH2 0x100 EXP SWAP1 DIV PUSH20 0xFFFFFFFFFFFFFFFFFFFFFFFFFFFFFFFFFFFFFFFF AND DUP3 DUP3 DUP2 MLOAD DUP2 LT PUSH2 0x18A5 JUMPI PUSH2 0x18A4 PUSH2 0x1FCF JUMP JUMPDEST JUMPDEST PUSH1 0x20 MUL PUSH1 0x20 ADD ADD SWAP1 PUSH20 0xFFFFFFFFFFFFFFFFFFFFFFFFFFFFFFFFFFFFFFFF AND SWAP1 DUP2 PUSH20 0xFFFFFFFFFFFFFFFFFFFFFFFFFFFFFFFFFFFFFFFF AND DUP2 MSTORE POP POP DUP1 DUP1 PUSH2 0x18EA SWAP1 PUSH2 0x25D2 JUMP JUMPDEST SWAP2 POP POP PUSH2 0x1846 JUMP JUMPDEST POP DUP1 SWAP2 POP POP SWAP1 JUMP JUMPDEST PUSH1 0x0 DUP2 MLOAD SWAP1 POP SWAP2 SWAP1 POP JUMP JUMPDEST PUSH1 0x0 DUP3 DUP3 MSTORE PUSH1 0x20 DUP3 ADD SWAP1 POP SWAP3 SWAP2 POP POP JUMP JUMPDEST PUSH1 0x0 JUMPDEST DUP4 DUP2 LT ISZERO PUSH2 0x1934 JUMPI DUP1 DUP3 ADD MLOAD DUP2 DUP5 ADD MSTORE PUSH1 0x20 DUP2 ADD SWAP1 POP PUSH2 0x1919 JUMP JUMPDEST PUSH1 0x0 DUP5 DUP5 ADD MSTORE POP POP POP POP JUMP JUMPDEST PUSH1 0x0 PUSH1 0x1F NOT PUSH1 0x1F DUP4 ADD AND SWAP1 POP SWAP2 SWAP1 POP JUMP JUMPDEST PUSH1 0x0 PUSH2 0x195C DUP3 PUSH2 0x18FA JUMP JUMPDEST PUSH2 0x1966 DUP2 DUP6 PUSH2 0x1905 JUMP JUMPDEST SWAP4 POP PUSH2 0x1976 DUP2 DUP6 PUSH1 0x20 DUP7 ADD PUSH2 0x1916 JUMP JUMPDEST PUSH2 0x197F DUP2 PUSH2 0x1940 JUMP JUMPDEST DUP5 ADD SWAP2 POP POP SWAP3 SWAP2 POP POP JUMP JUMPDEST PUSH1 0x0 PUSH1 0x20 DUP3 ADD SWAP1 POP DUP2 DUP2 SUB PUSH1 0x0 DUP4 ADD MSTORE PUSH2 0x19A4 DUP2 DUP5 PUSH2 0x1951 JUMP JUMPDEST SWAP1 POP SWAP3 SWAP2 POP POP JUMP JUMPDEST PUSH1 0x0 DUP1 REVERT JUMPDEST PUSH1 0x0 PUSH20 0xFFFFFFFFFFFFFFFFFFFFFFFFFFFFFFFFFFFFFFFF DUP3 AND SWAP1 POP SWAP2 SWAP1 POP JUMP JUMPDEST PUSH1 0x0 PUSH2 0x19DC DUP3 PUSH2 0x19B1 JUMP JUMPDEST SWAP1 POP SWAP2 SWAP1 POP JUMP JUMPDEST PUSH2 0x19EC DUP2 PUSH2 0x19D1 JUMP JUMPDEST DUP2 EQ PUSH2 0x19F7 JUMPI PUSH1 0x0 DUP1 REVERT JUMPDEST POP JUMP JUMPDEST PUSH1 0x0 DUP2 CALLDATALOAD SWAP1 POP PUSH2 0x1A09 DUP2 PUSH2 0x19E3 JUMP JUMPDEST SWAP3 SWAP2 POP POP JUMP JUMPDEST PUSH1 0x0 DUP2 SWAP1 POP SWAP2 SWAP1 POP JUMP JUMPDEST PUSH2 0x1A22 DUP2 PUSH2 0x1A0F JUMP JUMPDEST DUP2 EQ PUSH2 0x1A2D JUMPI PUSH1 0x0 DUP1 REVERT JUMPDEST POP JUMP JUMPDEST PUSH1 0x0 DUP2 CALLDATALOAD SWAP1 POP PUSH2 0x1A3F DUP2 PUSH2 0x1A19 JUMP JUMPDEST SWAP3 SWAP2 POP POP JUMP JUMPDEST PUSH1 0x0 DUP1 PUSH1 0x40 DUP4 DUP6 SUB SLT ISZERO PUSH2 0x1A5C JUMPI PUSH2 0x1A5B PUSH2 0x19AC JUMP JUMPDEST JUMPDEST PUSH1 0x0 PUSH2 0x1A6A DUP6 DUP3 DUP7 ADD PUSH2 0x19FA JUMP JUMPDEST SWAP3 POP POP PUSH1 0x20 PUSH2 0x1A7B DUP6 DUP3 DUP7 ADD PUSH2 0x1A30 JUMP JUMPDEST SWAP2 POP POP SWAP3 POP SWAP3 SWAP1 POP JUMP JUMPDEST PUSH1 0x0 DUP2 ISZERO ISZERO SWAP1 POP SWAP2 SWAP1 POP JUMP JUMPDEST PUSH2 0x1A9A DUP2 PUSH2 0x1A85 JUMP JUMPDEST DUP3 MSTORE POP POP JUMP JUMPDEST PUSH1 0x0 PUSH1 0x20 DUP3 ADD SWAP1 POP PUSH2 0x1AB5 PUSH1 0x0 DUP4 ADD DUP5 PUSH2 0x1A91 JUMP JUMPDEST SWAP3 SWAP2 POP POP JUMP JUMPDEST PUSH2 0x1AC4 DUP2 PUSH2 0x1A0F JUMP JUMPDEST DUP3 MSTORE POP POP JUMP JUMPDEST PUSH1 0x0 PUSH1 0x20 DUP3 ADD SWAP1 POP PUSH2 0x1ADF PUSH1 0x0 DUP4 ADD DUP5 PUSH2 0x1ABB JUMP JUMPDEST SWAP3 SWAP2 POP POP JUMP JUMPDEST PUSH1 0x0 DUP1 PUSH1 0x0 PUSH1 0x60 DUP5 DUP7 SUB SLT ISZERO PUSH2 0x1AFE JUMPI PUSH2 0x1AFD PUSH2 0x19AC JUMP JUMPDEST JUMPDEST PUSH1 0x0 PUSH2 0x1B0C DUP7 DUP3 DUP8 ADD PUSH2 0x19FA JUMP JUMPDEST SWAP4 POP POP PUSH1 0x20 PUSH2 0x1B1D DUP7 DUP3 DUP8 ADD PUSH2 0x19FA JUMP JUMPDEST SWAP3 POP POP PUSH1 0x40 PUSH2 0x1B2E DUP7 DUP3 DUP8 ADD PUSH2 0x1A30 JUMP JUMPDEST SWAP2 POP POP SWAP3 POP SWAP3 POP SWAP3 JUMP JUMPDEST PUSH1 0x0 PUSH1 0xFF DUP3 AND SWAP1 POP SWAP2 SWAP1 POP JUMP JUMPDEST PUSH2 0x1B4E DUP2 PUSH2 0x1B38 JUMP JUMPDEST DUP3 MSTORE POP POP JUMP JUMPDEST PUSH1 0x0 PUSH1 0x20 DUP3 ADD SWAP1 POP PUSH2 0x1B69 PUSH1 0x0 DUP4 ADD DUP5 PUSH2 0x1B45 JUMP JUMPDEST SWAP3 SWAP2 POP POP JUMP JUMPDEST PUSH1 0x0 PUSH1 0x20 DUP3 DUP5 SUB SLT ISZERO PUSH2 0x1B85 JUMPI PUSH2 0x1B84 PUSH2 0x19AC JUMP JUMPDEST JUMPDEST PUSH1 0x0 PUSH2 0x1B93 DUP5 DUP3 DUP6 ADD PUSH2 0x19FA JUMP JUMPDEST SWAP2 POP POP SWAP3 SWAP2 POP POP JUMP JUMPDEST PUSH2 0x1BA5 DUP2 PUSH2 0x19D1 JUMP JUMPDEST DUP3 MSTORE POP POP JUMP JUMPDEST PUSH1 0x0 PUSH1 0x20 DUP3 ADD SWAP1 POP PUSH2 0x1BC0 PUSH1 0x0 DUP4 ADD DUP5 PUSH2 0x1B9C JUMP JUMPDEST SWAP3 SWAP2 POP POP JUMP JUMPDEST PUSH1 0x0 DUP1 PUSH1 0x40 DUP4 DUP6 SUB SLT ISZERO PUSH2 0x1BDD JUMPI PUSH2 0x1BDC PUSH2 0x19AC JUMP JUMPDEST JUMPDEST PUSH1 0x0 PUSH2 0x1BEB DUP6 DUP3 DUP7 ADD PUSH2 0x1A30 JUMP JUMPDEST SWAP3 POP POP PUSH1 0x20 PUSH2 0x1BFC DUP6 DUP3 DUP7 ADD PUSH2 0x1A30 JUMP JUMPDEST SWAP2 POP POP SWAP3 POP SWAP3 SWAP1 POP JUMP JUMPDEST PUSH1 0x0 DUP1 PUSH1 0x40 DUP4 DUP6 SUB SLT ISZERO PUSH2 0x1C1D JUMPI PUSH2 0x1C1C PUSH2 0x19AC JUMP JUMPDEST JUMPDEST PUSH1 0x0 PUSH2 0x1C2B DUP6 DUP3 DUP7 ADD PUSH2 0x19FA JUMP JUMPDEST SWAP3 POP POP PUSH1 0x20 PUSH2 0x1C3C DUP6 DUP3 DUP7 ADD PUSH2 0x19FA JUMP JUMPDEST SWAP2 POP POP SWAP3 POP SWAP3 SWAP1 POP JUMP JUMPDEST PUSH1 0x0 PUSH2 0x1C51 DUP3 PUSH2 0x19B1 JUMP JUMPDEST SWAP1 POP SWAP2 SWAP1 POP JUMP JUMPDEST PUSH2 0x1C61 DUP2 PUSH2 0x1C46 JUMP JUMPDEST DUP3 MSTORE POP POP JUMP JUMPDEST PUSH1 0x0 PUSH1 0x20 DUP3 ADD SWAP1 POP PUSH2 0x1C7C PUSH1 0x0 DUP4 ADD DUP5 PUSH2 0x1C58 JUMP JUMPDEST SWAP3 SWAP2 POP POP JUMP JUMPDEST PUSH1 0x0 DUP2 MLOAD SWAP1 POP SWAP2 SWAP1 POP JUMP JUMPDEST PUSH1 0x0 DUP3 DUP3 MSTORE PUSH1 0x20 DUP3 ADD SWAP1 POP SWAP3 SWAP2 POP POP JUMP JUMPDEST PUSH1 0x0 DUP2 SWAP1 POP PUSH1 0x20 DUP3 ADD SWAP1 POP SWAP2 SWAP1 POP JUMP JUMPDEST PUSH2 0x1CB7 DUP2 PUSH2 0x1C46 JUMP JUMPDEST DUP3 MSTORE POP POP JUMP JUMPDEST PUSH1 0x0 PUSH2 0x1CC9 DUP4 DUP4 PUSH2 0x1CAE JUMP JUMPDEST PUSH1 0x20 DUP4 ADD SWAP1 POP SWAP3 SWAP2 POP POP JUMP JUMPDEST PUSH1 0x0 PUSH1 0x20 DUP3 ADD SWAP1 POP SWAP2 SWAP1 POP JUMP JUMPDEST PUSH1 0x0 PUSH2 0x1CED DUP3 PUSH2 0x1C82 JUMP JUMPDEST PUSH2 0x1CF7 DUP2 DUP6 PUSH2 0x1C8D JUMP JUMPDEST SWAP4 POP PUSH2 0x1D02 DUP4 PUSH2 0x1C9E JUMP JUMPDEST DUP1 PUSH1 0x0 JUMPDEST DUP4 DUP2 LT ISZERO PUSH2 0x1D33 JUMPI DUP2 MLOAD PUSH2 0x1D1A DUP9 DUP3 PUSH2 0x1CBD JUMP JUMPDEST SWAP8 POP PUSH2 0x1D25 DUP4 PUSH2 0x1CD5 JUMP JUMPDEST SWAP3 POP POP PUSH1 0x1 DUP2 ADD SWAP1 POP PUSH2 0x1D06 JUMP JUMPDEST POP DUP6 SWAP4 POP POP POP POP SWAP3 SWAP2 POP POP JUMP JUMPDEST PUSH1 0x0 PUSH1 0x20 DUP3 ADD SWAP1 POP DUP2 DUP2 SUB PUSH1 0x0 DUP4 ADD MSTORE PUSH2 0x1D5A DUP2 DUP5 PUSH2 0x1CE2 JUMP JUMPDEST SWAP1 POP SWAP3 SWAP2 POP POP JUMP JUMPDEST PUSH32 0x4E487B7100000000000000000000000000000000000000000000000000000000 PUSH1 0x0 MSTORE PUSH1 0x22 PUSH1 0x4 MSTORE PUSH1 0x24 PUSH1 0x0 REVERT JUMPDEST PUSH1 0x0 PUSH1 0x2 DUP3 DIV SWAP1 POP PUSH1 0x1 DUP3 AND DUP1 PUSH2 0x1DA9 JUMPI PUSH1 0x7F DUP3 AND SWAP2 POP JUMPDEST PUSH1 0x20 DUP3 LT DUP2 SUB PUSH2 0x1DBC JUMPI PUSH2 0x1DBB PUSH2 0x1D62 JUMP JUMPDEST JUMPDEST POP SWAP2 SWAP1 POP JUMP JUMPDEST PUSH32 0x4174206C65617374206F6E65206C6F7474657279207469636B6574206D757374 PUSH1 0x0 DUP3 ADD MSTORE PUSH32 0x20626520736F6C642E0000000000000000000000000000000000000000000000 PUSH1 0x20 DUP3 ADD MSTORE POP JUMP JUMPDEST PUSH1 0x0 PUSH2 0x1E1E PUSH1 0x29 DUP4 PUSH2 0x1905 JUMP JUMPDEST SWAP2 POP PUSH2 0x1E29 DUP3 PUSH2 0x1DC2 JUMP JUMPDEST PUSH1 0x40 DUP3 ADD SWAP1 POP SWAP2 SWAP1 POP JUMP JUMPDEST PUSH1 0x0 PUSH1 0x20 DUP3 ADD SWAP1 POP DUP2 DUP2 SUB PUSH1 0x0 DUP4 ADD MSTORE PUSH2 0x1E4D DUP2 PUSH2 0x1E11 JUMP JUMPDEST SWAP1 POP SWAP2 SWAP1 POP JUMP JUMPDEST PUSH32 0x4E487B7100000000000000000000000000000000000000000000000000000000 PUSH1 0x0 MSTORE PUSH1 0x11 PUSH1 0x4 MSTORE PUSH1 0x24 PUSH1 0x0 REVERT JUMPDEST PUSH1 0x0 PUSH2 0x1E8E DUP3 PUSH2 0x1A0F JUMP JUMPDEST SWAP2 POP PUSH2 0x1E99 DUP4 PUSH2 0x1A0F JUMP JUMPDEST SWAP3 POP DUP3 DUP3 ADD SWAP1 POP DUP1 DUP3 GT ISZERO PUSH2 0x1EB1 JUMPI PUSH2 0x1EB0 PUSH2 0x1E54 JUMP JUMPDEST JUMPDEST SWAP3 SWAP2 POP POP JUMP JUMPDEST PUSH32 0x5468652062616E6B65722063616E6E6F742063616C6C20746865206472617720 PUSH1 0x0 DUP3 ADD MSTORE PUSH32 0x66756E6374696F6E2077697468696E2033206D696E75746573206F6620746865 PUSH1 0x20 DUP3 ADD MSTORE PUSH32 0x2070726576696F757320647261772E0000000000000000000000000000000000 PUSH1 0x40 DUP3 ADD MSTORE POP JUMP JUMPDEST PUSH1 0x0 PUSH2 0x1F39 PUSH1 0x4F DUP4 PUSH2 0x1905 JUMP JUMPDEST SWAP2 POP PUSH2 0x1F44 DUP3 PUSH2 0x1EB7 JUMP JUMPDEST PUSH1 0x60 DUP3 ADD SWAP1 POP SWAP2 SWAP1 POP JUMP JUMPDEST PUSH1 0x0 PUSH1 0x20 DUP3 ADD SWAP1 POP DUP2 DUP2 SUB PUSH1 0x0 DUP4 ADD MSTORE PUSH2 0x1F68 DUP2 PUSH2 0x1F2C JUMP JUMPDEST SWAP1 POP SWAP2 SWAP1 POP JUMP JUMPDEST PUSH32 0x4E487B7100000000000000000000000000000000000000000000000000000000 PUSH1 0x0 MSTORE PUSH1 0x12 PUSH1 0x4 MSTORE PUSH1 0x24 PUSH1 0x0 REVERT JUMPDEST PUSH1 0x0 PUSH2 0x1FA9 DUP3 PUSH2 0x1A0F JUMP JUMPDEST SWAP2 POP PUSH2 0x1FB4 DUP4 PUSH2 0x1A0F JUMP JUMPDEST SWAP3 POP DUP3 PUSH2 0x1FC4 JUMPI PUSH2 0x1FC3 PUSH2 0x1F6F JUMP JUMPDEST JUMPDEST DUP3 DUP3 MOD SWAP1 POP SWAP3 SWAP2 POP POP JUMP JUMPDEST PUSH32 0x4E487B7100000000000000000000000000000000000000000000000000000000 PUSH1 0x0 MSTORE PUSH1 0x32 PUSH1 0x4 MSTORE PUSH1 0x24 PUSH1 0x0 REVERT JUMPDEST PUSH1 0x0 PUSH2 0x2009 DUP3 PUSH2 0x1A0F JUMP JUMPDEST SWAP2 POP PUSH2 0x2014 DUP4 PUSH2 0x1A0F JUMP JUMPDEST SWAP3 POP DUP3 DUP3 MUL PUSH2 0x2022 DUP2 PUSH2 0x1A0F JUMP JUMPDEST SWAP2 POP DUP3 DUP3 DIV DUP5 EQ DUP4 ISZERO OR PUSH2 0x2039 JUMPI PUSH2 0x2038 PUSH2 0x1E54 JUMP JUMPDEST JUMPDEST POP SWAP3 SWAP2 POP POP JUMP JUMPDEST PUSH1 0x0 PUSH2 0x204B DUP3 PUSH2 0x1A0F JUMP JUMPDEST SWAP2 POP PUSH2 0x2056 DUP4 PUSH2 0x1A0F JUMP JUMPDEST SWAP3 POP DUP3 PUSH2 0x2066 JUMPI PUSH2 0x2065 PUSH2 0x1F6F JUMP JUMPDEST JUMPDEST DUP3 DUP3 DIV SWAP1 POP SWAP3 SWAP2 POP POP JUMP JUMPDEST PUSH1 0x0 PUSH2 0x207C DUP3 PUSH2 0x1A0F JUMP JUMPDEST SWAP2 POP PUSH2 0x2087 DUP4 PUSH2 0x1A0F JUMP JUMPDEST SWAP3 POP DUP3 DUP3 SUB SWAP1 POP DUP2 DUP2 GT ISZERO PUSH2 0x209F JUMPI PUSH2 0x209E PUSH2 0x1E54 JUMP JUMPDEST JUMPDEST SWAP3 SWAP2 POP POP JUMP JUMPDEST PUSH32 0x546865206F776E65722063616E6E6F7420706172746963697061746520696E20 PUSH1 0x0 DUP3 ADD MSTORE PUSH32 0x746865206C6F74746572792E0000000000000000000000000000000000000000 PUSH1 0x20 DUP3 ADD MSTORE POP JUMP JUMPDEST PUSH1 0x0 PUSH2 0x2101 PUSH1 0x2C DUP4 PUSH2 0x1905 JUMP JUMPDEST SWAP2 POP PUSH2 0x210C DUP3 PUSH2 0x20A5 JUMP JUMPDEST PUSH1 0x40 DUP3 ADD SWAP1 POP SWAP2 SWAP1 POP JUMP JUMPDEST PUSH1 0x0 PUSH1 0x20 DUP3 ADD SWAP1 POP DUP2 DUP2 SUB PUSH1 0x0 DUP4 ADD MSTORE PUSH2 0x2130 DUP2 PUSH2 0x20F4 JUMP JUMPDEST SWAP1 POP SWAP2 SWAP1 POP JUMP JUMPDEST PUSH32 0x5468652062657420616D6F756E742073686F756C642062652031303020746F6B PUSH1 0x0 DUP3 ADD MSTORE PUSH32 0x656E732E00000000000000000000000000000000000000000000000000000000 PUSH1 0x20 DUP3 ADD MSTORE POP JUMP JUMPDEST PUSH1 0x0 PUSH2 0x2193 PUSH1 0x24 DUP4 PUSH2 0x1905 JUMP JUMPDEST SWAP2 POP PUSH2 0x219E DUP3 PUSH2 0x2137 JUMP JUMPDEST PUSH1 0x40 DUP3 ADD SWAP1 POP SWAP2 SWAP1 POP JUMP JUMPDEST PUSH1 0x0 PUSH1 0x20 DUP3 ADD SWAP1 POP DUP2 DUP2 SUB PUSH1 0x0 DUP4 ADD MSTORE PUSH2 0x21C2 DUP2 PUSH2 0x2186 JUMP JUMPDEST SWAP1 POP SWAP2 SWAP1 POP JUMP JUMPDEST PUSH32 0x4E6F7420656E6F75676820746F6B656E20666F72206C6F74746572792E000000 PUSH1 0x0 DUP3 ADD MSTORE POP JUMP JUMPDEST PUSH1 0x0 PUSH2 0x21FF PUSH1 0x1D DUP4 PUSH2 0x1905 JUMP JUMPDEST SWAP2 POP PUSH2 0x220A DUP3 PUSH2 0x21C9 JUMP JUMPDEST PUSH1 0x20 DUP3 ADD SWAP1 POP SWAP2 SWAP1 POP JUMP JUMPDEST PUSH1 0x0 PUSH1 0x20 DUP3 ADD SWAP1 POP DUP2 DUP2 SUB PUSH1 0x0 DUP4 ADD MSTORE PUSH2 0x222E DUP2 PUSH2 0x21F2 JUMP JUMPDEST SWAP1 POP SWAP2 SWAP1 POP JUMP JUMPDEST PUSH32 0x546F74616C20706F74206578636565647320746F6B656E20737570706C792E00 PUSH1 0x0 DUP3 ADD MSTORE POP JUMP JUMPDEST PUSH1 0x0 PUSH2 0x226B PUSH1 0x1F DUP4 PUSH2 0x1905 JUMP JUMPDEST SWAP2 POP PUSH2 0x2276 DUP3 PUSH2 0x2235 JUMP JUMPDEST PUSH1 0x20 DUP3 ADD SWAP1 POP SWAP2 SWAP1 POP JUMP JUMPDEST PUSH1 0x0 PUSH1 0x20 DUP3 ADD SWAP1 POP DUP2 DUP2 SUB PUSH1 0x0 DUP4 ADD MSTORE PUSH2 0x229A DUP2 PUSH2 0x225E JUMP JUMPDEST SWAP1 POP SWAP2 SWAP1 POP JUMP JUMPDEST PUSH1 0x0 DUP2 SWAP1 POP SWAP2 SWAP1 POP JUMP JUMPDEST PUSH2 0x22BC PUSH2 0x22B7 DUP3 PUSH2 0x1A0F JUMP JUMPDEST PUSH2 0x22A1 JUMP JUMPDEST DUP3 MSTORE POP POP JUMP JUMPDEST PUSH1 0x0 DUP2 PUSH1 0x60 SHL SWAP1 POP SWAP2 SWAP1 POP JUMP JUMPDEST PUSH1 0x0 PUSH2 0x22DA DUP3 PUSH2 0x22C2 JUMP JUMPDEST SWAP1 POP SWAP2 SWAP1 POP JUMP JUMPDEST PUSH1 0x0 PUSH2 0x22EC DUP3 PUSH2 0x22CF JUMP JUMPDEST SWAP1 POP SWAP2 SWAP1 POP JUMP JUMPDEST PUSH2 0x2304 PUSH2 0x22FF DUP3 PUSH2 0x19D1 JUMP JUMPDEST PUSH2 0x22E1 JUMP JUMPDEST DUP3 MSTORE POP POP JUMP JUMPDEST PUSH1 0x0 PUSH2 0x2316 DUP3 DUP7 PUSH2 0x22AB JUMP JUMPDEST PUSH1 0x20 DUP3 ADD SWAP2 POP PUSH2 0x2326 DUP3 DUP6 PUSH2 0x22AB JUMP JUMPDEST PUSH1 0x20 DUP3 ADD SWAP2 POP PUSH2 0x2336 DUP3 DUP5 PUSH2 0x22F3 JUMP JUMPDEST PUSH1 0x14 DUP3 ADD SWAP2 POP DUP2 SWAP1 POP SWAP5 SWAP4 POP POP POP POP JUMP JUMPDEST PUSH32 0x496E76616C6964206F7065726174696F6E210000000000000000000000000000 PUSH1 0x0 DUP3 ADD MSTORE POP JUMP JUMPDEST PUSH1 0x0 PUSH2 0x237D PUSH1 0x12 DUP4 PUSH2 0x1905 JUMP JUMPDEST SWAP2 POP PUSH2 0x2388 DUP3 PUSH2 0x2347 JUMP JUMPDEST PUSH1 0x20 DUP3 ADD SWAP1 POP SWAP2 SWAP1 POP JUMP JUMPDEST PUSH1 0x0 PUSH1 0x20 DUP3 ADD SWAP1 POP DUP2 DUP2 SUB PUSH1 0x0 DUP4 ADD MSTORE PUSH2 0x23AC DUP2 PUSH2 0x2370 JUMP JUMPDEST SWAP1 POP SWAP2 SWAP1 POP JUMP JUMPDEST PUSH32 0x436F6E7472616374206F776E65722063616E6E6F7420636C61696D2066726F6D PUSH1 0x0 DUP3 ADD MSTORE PUSH32 0x206661756365742E000000000000000000000000000000000000000000000000 PUSH1 0x20 DUP3 ADD MSTORE POP JUMP JUMPDEST PUSH1 0x0 PUSH2 0x240F PUSH1 0x28 DUP4 PUSH2 0x1905 JUMP JUMPDEST SWAP2 POP PUSH2 0x241A DUP3 PUSH2 0x23B3 JUMP JUMPDEST PUSH1 0x40 DUP3 ADD SWAP1 POP SWAP2 SWAP1 POP JUMP JUMPDEST PUSH1 0x0 PUSH1 0x20 DUP3 ADD SWAP1 POP DUP2 DUP2 SUB PUSH1 0x0 DUP4 ADD MSTORE PUSH2 0x243E DUP2 PUSH2 0x2402 JUMP JUMPDEST SWAP1 POP SWAP2 SWAP1 POP JUMP JUMPDEST PUSH32 0x506C65617365207761697420666F72203330207365636F6E647320746F20636C PUSH1 0x0 DUP3 ADD MSTORE PUSH32 0x61696D20616761696E2E00000000000000000000000000000000000000000000 PUSH1 0x20 DUP3 ADD MSTORE POP JUMP JUMPDEST PUSH1 0x0 PUSH2 0x24A1 PUSH1 0x2A DUP4 PUSH2 0x1905 JUMP JUMPDEST SWAP2 POP PUSH2 0x24AC DUP3 PUSH2 0x2445 JUMP JUMPDEST PUSH1 0x40 DUP3 ADD SWAP1 POP SWAP2 SWAP1 POP JUMP JUMPDEST PUSH1 0x0 PUSH1 0x20 DUP3 ADD SWAP1 POP DUP2 DUP2 SUB PUSH1 0x0 DUP4 ADD MSTORE PUSH2 0x24D0 DUP2 PUSH2 0x2494 JUMP JUMPDEST SWAP1 POP SWAP2 SWAP1 POP JUMP JUMPDEST PUSH32 0x4E6F7420656E6F75676820746F6B656E20666F72206661756365742E00000000 PUSH1 0x0 DUP3 ADD MSTORE POP JUMP JUMPDEST PUSH1 0x0 PUSH2 0x250D PUSH1 0x1C DUP4 PUSH2 0x1905 JUMP JUMPDEST SWAP2 POP PUSH2 0x2518 DUP3 PUSH2 0x24D7 JUMP JUMPDEST PUSH1 0x20 DUP3 ADD SWAP1 POP SWAP2 SWAP1 POP JUMP JUMPDEST PUSH1 0x0 PUSH1 0x20 DUP3 ADD SWAP1 POP DUP2 DUP2 SUB PUSH1 0x0 DUP4 ADD MSTORE PUSH2 0x253C DUP2 PUSH2 0x2500 JUMP JUMPDEST SWAP1 POP SWAP2 SWAP1 POP JUMP JUMPDEST PUSH1 0x0 DUP2 SWAP1 POP SWAP2 SWAP1 POP JUMP JUMPDEST PUSH1 0x0 DUP2 SWAP1 POP SWAP2 SWAP1 POP JUMP JUMPDEST PUSH1 0x0 PUSH2 0x2572 PUSH2 0x256D PUSH2 0x2568 DUP5 PUSH2 0x2543 JUMP JUMPDEST PUSH2 0x254D JUMP JUMPDEST PUSH2 0x1A0F JUMP JUMPDEST SWAP1 POP SWAP2 SWAP1 POP JUMP JUMPDEST PUSH2 0x2582 DUP2 PUSH2 0x2557 JUMP JUMPDEST DUP3 MSTORE POP POP JUMP JUMPDEST PUSH1 0x0 PUSH1 0x20 DUP3 ADD SWAP1 POP PUSH2 0x259D PUSH1 0x0 DUP4 ADD DUP5 PUSH2 0x2579 JUMP JUMPDEST SWAP3 SWAP2 POP POP JUMP JUMPDEST PUSH32 0x4E487B7100000000000000000000000000000000000000000000000000000000 PUSH1 0x0 MSTORE PUSH1 0x41 PUSH1 0x4 MSTORE PUSH1 0x24 PUSH1 0x0 REVERT JUMPDEST PUSH1 0x0 PUSH2 0x25DD DUP3 PUSH2 0x1A0F JUMP JUMPDEST SWAP2 POP PUSH32 0xFFFFFFFFFFFFFFFFFFFFFFFFFFFFFFFFFFFFFFFFFFFFFFFFFFFFFFFFFFFFFFFF DUP3 SUB PUSH2 0x260F JUMPI PUSH2 0x260E PUSH2 0x1E54 JUMP JUMPDEST JUMPDEST PUSH1 0x1 DUP3 ADD SWAP1 POP SWAP2 SWAP1 POP JUMP INVALID LOG2 PUSH5 0x6970667358 0x22 SLT KECCAK256 AND PUSH1 0x59 CODESIZE 0x1E 0xAE 0xE8 PUSH19 0xDB4022716EF072830720B8D9FD298341437CB2 0xB4 PUSH3 0x7337D7 PUSH5 0x736F6C6343 STOP ADDMOD SLT STOP CALLER "
				},
				"gasEstimates": {
					"creation": {
						"codeDepositCost": "1961600",
						"executionCost": "infinite",
						"totalCost": "infinite"
					},
					"external": {
						"_totalSupply()": "2496",
						"allowance(address,address)": "infinite",
						"approve(address,uint256)": "infinite",
						"balanceOf(address)": "2974",
						"betLottery()": "infinite",
						"decimals()": "2516",
						"draw()": "infinite",
						"faucet()": "infinite",
						"generateRandomNumber()": "infinite",
						"getAllPlayers()": "infinite",
						"lastDrawTime()": "2518",
						"name()": "infinite",
						"owner()": "2559",
						"safeAdd(uint256,uint256)": "infinite",
						"safeDiv(uint256,uint256)": "infinite",
						"safeMul(uint256,uint256)": "infinite",
						"safeSub(uint256,uint256)": "infinite",
						"symbol()": "infinite",
						"totalPot()": "2452",
						"totalSupply()": "infinite",
						"transfer(address,uint256)": "infinite",
						"transferFrom(address,address,uint256)": "infinite",
						"winner()": "2602"
					}
				},
				"methodIdentifiers": {
					"_totalSupply()": "3eaaf86b",
					"allowance(address,address)": "dd62ed3e",
					"approve(address,uint256)": "095ea7b3",
					"balanceOf(address)": "70a08231",
					"betLottery()": "6a11d04e",
					"decimals()": "313ce567",
					"draw()": "0eecae21",
					"faucet()": "de5f72fd",
					"generateRandomNumber()": "773a1154",
					"getAllPlayers()": "efa1c482",
					"lastDrawTime()": "5cbbd635",
					"name()": "06fdde03",
					"owner()": "8da5cb5b",
					"safeAdd(uint256,uint256)": "e6cb9013",
					"safeDiv(uint256,uint256)": "b5931f7c",
					"safeMul(uint256,uint256)": "d05c78da",
					"safeSub(uint256,uint256)": "a293d1e8",
					"symbol()": "95d89b41",
					"totalPot()": "24b570a9",
					"totalSupply()": "18160ddd",
					"transfer(address,uint256)": "a9059cbb",
					"transferFrom(address,address,uint256)": "23b872dd",
					"winner()": "dfbf53ae"
				}
			},
			"storageLayout": {
				"storage": [
					{
						"astId": 176,
						"contract": "example_code.sol:myToken",
						"label": "name",
						"offset": 0,
						"slot": "0",
						"type": "t_string_storage"
					},
					{
						"astId": 178,
						"contract": "example_code.sol:myToken",
						"label": "symbol",
						"offset": 0,
						"slot": "1",
						"type": "t_string_storage"
					},
					{
						"astId": 180,
						"contract": "example_code.sol:myToken",
						"label": "decimals",
						"offset": 0,
						"slot": "2",
						"type": "t_uint8"
					},
					{
						"astId": 182,
						"contract": "example_code.sol:myToken",
						"label": "_totalSupply",
						"offset": 0,
						"slot": "3",
						"type": "t_uint256"
					},
					{
						"astId": 186,
						"contract": "example_code.sol:myToken",
						"label": "balances",
						"offset": 0,
						"slot": "4",
						"type": "t_mapping(t_address,t_uint256)"
					},
					{
						"astId": 192,
						"contract": "example_code.sol:myToken",
						"label": "allowed",
						"offset": 0,
						"slot": "5",
						"type": "t_mapping(t_address,t_mapping(t_address,t_uint256))"
					},
					{
						"astId": 196,
						"contract": "example_code.sol:myToken",
						"label": "lastFaucetTime",
						"offset": 0,
						"slot": "6",
						"type": "t_mapping(t_address,t_uint256)"
					},
					{
						"astId": 198,
						"contract": "example_code.sol:myToken",
						"label": "owner",
						"offset": 0,
						"slot": "7",
						"type": "t_address"
					},
					{
						"astId": 509,
						"contract": "example_code.sol:myToken",
						"label": "winner",
						"offset": 0,
						"slot": "8",
						"type": "t_address_payable"
					},
					{
						"astId": 512,
						"contract": "example_code.sol:myToken",
						"label": "players",
						"offset": 0,
						"slot": "9",
						"type": "t_array(t_address_payable)dyn_storage"
					},
					{
						"astId": 514,
						"contract": "example_code.sol:myToken",
						"label": "totalPot",
						"offset": 0,
						"slot": "10",
						"type": "t_uint256"
					},
					{
						"astId": 516,
						"contract": "example_code.sol:myToken",
						"label": "lastDrawTime",
						"offset": 0,
						"slot": "11",
						"type": "t_uint256"
					}
				],
				"types": {
					"t_address": {
						"encoding": "inplace",
						"label": "address",
						"numberOfBytes": "20"
					},
					"t_address_payable": {
						"encoding": "inplace",
						"label": "address payable",
						"numberOfBytes": "20"
					},
					"t_array(t_address_payable)dyn_storage": {
						"base": "t_address_payable",
						"encoding": "dynamic_array",
						"label": "address payable[]",
						"numberOfBytes": "32"
					},
					"t_mapping(t_address,t_mapping(t_address,t_uint256))": {
						"encoding": "mapping",
						"key": "t_address",
						"label": "mapping(address => mapping(address => uint256))",
						"numberOfBytes": "32",
						"value": "t_mapping(t_address,t_uint256)"
					},
					"t_mapping(t_address,t_uint256)": {
						"encoding": "mapping",
						"key": "t_address",
						"label": "mapping(address => uint256)",
						"numberOfBytes": "32",
						"value": "t_uint256"
					},
					"t_string_storage": {
						"encoding": "bytes",
						"label": "string",
						"numberOfBytes": "32"
					},
					"t_uint256": {
						"encoding": "inplace",
						"label": "uint256",
						"numberOfBytes": "32"
					},
					"t_uint8": {
						"encoding": "inplace",
						"label": "uint8",
						"numberOfBytes": "1"
					}
				}
			},
			"userdoc": {
				"kind": "user",
				"methods": {},
				"version": 1
			}
		}
	}
}